
EEE3096S_2022_Prac_2_Delays_and_I2C_Student_Version.elf:     file format elf32-littlearm

Sections:
Idx Name          Size      VMA       LMA       File off  Algn
  0 .isr_vector   000000c0  08000000  08000000  00010000  2**0
                  CONTENTS, ALLOC, LOAD, READONLY, DATA
<<<<<<< HEAD
  1 .text         00007a40  080000c0  080000c0  000100c0  2**2
                  CONTENTS, ALLOC, LOAD, READONLY, CODE
  2 .rodata       000001d0  08007b00  08007b00  00017b00  2**3
                  CONTENTS, ALLOC, LOAD, READONLY, DATA
  3 .ARM.extab    00000000  08007cd0  08007cd0  00020070  2**0
                  CONTENTS
  4 .ARM          00000000  08007cd0  08007cd0  00020070  2**0
                  CONTENTS
  5 .preinit_array 00000000  08007cd0  08007cd0  00020070  2**0
                  CONTENTS, ALLOC, LOAD, DATA
  6 .init_array   00000004  08007cd0  08007cd0  00017cd0  2**2
                  CONTENTS, ALLOC, LOAD, DATA
  7 .fini_array   00000004  08007cd4  08007cd4  00017cd4  2**2
                  CONTENTS, ALLOC, LOAD, DATA
  8 .data         00000070  20000000  08007cd8  00020000  2**2
                  CONTENTS, ALLOC, LOAD, DATA
  9 .bss          000001c8  20000070  08007d48  00020070  2**2
                  ALLOC
 10 ._user_heap_stack 00000600  20000238  08007d48  00020238  2**0
                  ALLOC
 11 .ARM.attributes 00000028  00000000  00000000  00020070  2**0
                  CONTENTS, READONLY
 12 .debug_info   0000c9f3  00000000  00000000  00020098  2**0
                  CONTENTS, READONLY, DEBUGGING, OCTETS
 13 .debug_abbrev 00001e5f  00000000  00000000  0002ca8b  2**0
                  CONTENTS, READONLY, DEBUGGING, OCTETS
 14 .debug_aranges 00000a08  00000000  00000000  0002e8f0  2**3
                  CONTENTS, READONLY, DEBUGGING, OCTETS
 15 .debug_ranges 00000940  00000000  00000000  0002f2f8  2**3
                  CONTENTS, READONLY, DEBUGGING, OCTETS
 16 .debug_macro  0001230f  00000000  00000000  0002fc38  2**0
                  CONTENTS, READONLY, DEBUGGING, OCTETS
 17 .debug_line   0000db32  00000000  00000000  00041f47  2**0
                  CONTENTS, READONLY, DEBUGGING, OCTETS
 18 .debug_str    0006ab3c  00000000  00000000  0004fa79  2**0
                  CONTENTS, READONLY, DEBUGGING, OCTETS
 19 .comment      00000050  00000000  00000000  000ba5b5  2**0
                  CONTENTS, READONLY
 20 .debug_frame  00002cc4  00000000  00000000  000ba608  2**2
=======
  1 .text         00007970  080000c0  080000c0  000100c0  2**2
                  CONTENTS, ALLOC, LOAD, READONLY, CODE
  2 .rodata       00000180  08007a30  08007a30  00017a30  2**3
                  CONTENTS, ALLOC, LOAD, READONLY, DATA
  3 .ARM.extab    00000000  08007bb0  08007bb0  00020070  2**0
                  CONTENTS
  4 .ARM          00000000  08007bb0  08007bb0  00020070  2**0
                  CONTENTS
  5 .preinit_array 00000000  08007bb0  08007bb0  00020070  2**0
                  CONTENTS, ALLOC, LOAD, DATA
  6 .init_array   00000004  08007bb0  08007bb0  00017bb0  2**2
                  CONTENTS, ALLOC, LOAD, DATA
  7 .fini_array   00000004  08007bb4  08007bb4  00017bb4  2**2
                  CONTENTS, ALLOC, LOAD, DATA
  8 .data         00000070  20000000  08007bb8  00020000  2**2
                  CONTENTS, ALLOC, LOAD, DATA
  9 .bss          00000150  20000070  08007c28  00020070  2**2
                  ALLOC
 10 ._user_heap_stack 00000600  200001c0  08007c28  000201c0  2**0
                  ALLOC
 11 .ARM.attributes 00000028  00000000  00000000  00020070  2**0
                  CONTENTS, READONLY
 12 .debug_info   0000c992  00000000  00000000  00020098  2**0
                  CONTENTS, READONLY, DEBUGGING, OCTETS
 13 .debug_abbrev 00001e77  00000000  00000000  0002ca2a  2**0
                  CONTENTS, READONLY, DEBUGGING, OCTETS
 14 .debug_aranges 00000a08  00000000  00000000  0002e8a8  2**3
                  CONTENTS, READONLY, DEBUGGING, OCTETS
 15 .debug_ranges 00000940  00000000  00000000  0002f2b0  2**3
                  CONTENTS, READONLY, DEBUGGING, OCTETS
 16 .debug_macro  0001230f  00000000  00000000  0002fbf0  2**0
                  CONTENTS, READONLY, DEBUGGING, OCTETS
 17 .debug_line   0000dd74  00000000  00000000  00041eff  2**0
                  CONTENTS, READONLY, DEBUGGING, OCTETS
 18 .debug_str    0006ab2f  00000000  00000000  0004fc73  2**0
                  CONTENTS, READONLY, DEBUGGING, OCTETS
 19 .comment      00000050  00000000  00000000  000ba7a2  2**0
                  CONTENTS, READONLY
 20 .debug_frame  00002cd4  00000000  00000000  000ba7f4  2**2
>>>>>>> 7d7ca595f0febf8d38881680e06789eb0f92c049
                  CONTENTS, READONLY, DEBUGGING, OCTETS

Disassembly of section .text:

080000c0 <__do_global_dtors_aux>:
 80000c0:	b510      	push	{r4, lr}
 80000c2:	4c06      	ldr	r4, [pc, #24]	; (80000dc <__do_global_dtors_aux+0x1c>)
 80000c4:	7823      	ldrb	r3, [r4, #0]
 80000c6:	2b00      	cmp	r3, #0
 80000c8:	d107      	bne.n	80000da <__do_global_dtors_aux+0x1a>
 80000ca:	4b05      	ldr	r3, [pc, #20]	; (80000e0 <__do_global_dtors_aux+0x20>)
 80000cc:	2b00      	cmp	r3, #0
 80000ce:	d002      	beq.n	80000d6 <__do_global_dtors_aux+0x16>
 80000d0:	4804      	ldr	r0, [pc, #16]	; (80000e4 <__do_global_dtors_aux+0x24>)
 80000d2:	e000      	b.n	80000d6 <__do_global_dtors_aux+0x16>
 80000d4:	bf00      	nop
 80000d6:	2301      	movs	r3, #1
 80000d8:	7023      	strb	r3, [r4, #0]
 80000da:	bd10      	pop	{r4, pc}
 80000dc:	20000070 	.word	0x20000070
 80000e0:	00000000 	.word	0x00000000
<<<<<<< HEAD
 80000e4:	08007ae8 	.word	0x08007ae8
=======
 80000e4:	08007a18 	.word	0x08007a18
>>>>>>> 7d7ca595f0febf8d38881680e06789eb0f92c049

080000e8 <frame_dummy>:
 80000e8:	4b04      	ldr	r3, [pc, #16]	; (80000fc <frame_dummy+0x14>)
 80000ea:	b510      	push	{r4, lr}
 80000ec:	2b00      	cmp	r3, #0
 80000ee:	d003      	beq.n	80000f8 <frame_dummy+0x10>
 80000f0:	4903      	ldr	r1, [pc, #12]	; (8000100 <frame_dummy+0x18>)
 80000f2:	4804      	ldr	r0, [pc, #16]	; (8000104 <frame_dummy+0x1c>)
 80000f4:	e000      	b.n	80000f8 <frame_dummy+0x10>
 80000f6:	bf00      	nop
 80000f8:	bd10      	pop	{r4, pc}
 80000fa:	46c0      	nop			; (mov r8, r8)
 80000fc:	00000000 	.word	0x00000000
 8000100:	20000074 	.word	0x20000074
<<<<<<< HEAD
 8000104:	08007ae8 	.word	0x08007ae8
=======
 8000104:	08007a18 	.word	0x08007a18
>>>>>>> 7d7ca595f0febf8d38881680e06789eb0f92c049

08000108 <__gnu_thumb1_case_shi>:
 8000108:	b403      	push	{r0, r1}
 800010a:	4671      	mov	r1, lr
 800010c:	0849      	lsrs	r1, r1, #1
 800010e:	0040      	lsls	r0, r0, #1
 8000110:	0049      	lsls	r1, r1, #1
 8000112:	5e09      	ldrsh	r1, [r1, r0]
 8000114:	0049      	lsls	r1, r1, #1
 8000116:	448e      	add	lr, r1
 8000118:	bc03      	pop	{r0, r1}
 800011a:	4770      	bx	lr

0800011c <__udivsi3>:
 800011c:	2200      	movs	r2, #0
 800011e:	0843      	lsrs	r3, r0, #1
 8000120:	428b      	cmp	r3, r1
 8000122:	d374      	bcc.n	800020e <__udivsi3+0xf2>
 8000124:	0903      	lsrs	r3, r0, #4
 8000126:	428b      	cmp	r3, r1
 8000128:	d35f      	bcc.n	80001ea <__udivsi3+0xce>
 800012a:	0a03      	lsrs	r3, r0, #8
 800012c:	428b      	cmp	r3, r1
 800012e:	d344      	bcc.n	80001ba <__udivsi3+0x9e>
 8000130:	0b03      	lsrs	r3, r0, #12
 8000132:	428b      	cmp	r3, r1
 8000134:	d328      	bcc.n	8000188 <__udivsi3+0x6c>
 8000136:	0c03      	lsrs	r3, r0, #16
 8000138:	428b      	cmp	r3, r1
 800013a:	d30d      	bcc.n	8000158 <__udivsi3+0x3c>
 800013c:	22ff      	movs	r2, #255	; 0xff
 800013e:	0209      	lsls	r1, r1, #8
 8000140:	ba12      	rev	r2, r2
 8000142:	0c03      	lsrs	r3, r0, #16
 8000144:	428b      	cmp	r3, r1
 8000146:	d302      	bcc.n	800014e <__udivsi3+0x32>
 8000148:	1212      	asrs	r2, r2, #8
 800014a:	0209      	lsls	r1, r1, #8
 800014c:	d065      	beq.n	800021a <__udivsi3+0xfe>
 800014e:	0b03      	lsrs	r3, r0, #12
 8000150:	428b      	cmp	r3, r1
 8000152:	d319      	bcc.n	8000188 <__udivsi3+0x6c>
 8000154:	e000      	b.n	8000158 <__udivsi3+0x3c>
 8000156:	0a09      	lsrs	r1, r1, #8
 8000158:	0bc3      	lsrs	r3, r0, #15
 800015a:	428b      	cmp	r3, r1
 800015c:	d301      	bcc.n	8000162 <__udivsi3+0x46>
 800015e:	03cb      	lsls	r3, r1, #15
 8000160:	1ac0      	subs	r0, r0, r3
 8000162:	4152      	adcs	r2, r2
 8000164:	0b83      	lsrs	r3, r0, #14
 8000166:	428b      	cmp	r3, r1
 8000168:	d301      	bcc.n	800016e <__udivsi3+0x52>
 800016a:	038b      	lsls	r3, r1, #14
 800016c:	1ac0      	subs	r0, r0, r3
 800016e:	4152      	adcs	r2, r2
 8000170:	0b43      	lsrs	r3, r0, #13
 8000172:	428b      	cmp	r3, r1
 8000174:	d301      	bcc.n	800017a <__udivsi3+0x5e>
 8000176:	034b      	lsls	r3, r1, #13
 8000178:	1ac0      	subs	r0, r0, r3
 800017a:	4152      	adcs	r2, r2
 800017c:	0b03      	lsrs	r3, r0, #12
 800017e:	428b      	cmp	r3, r1
 8000180:	d301      	bcc.n	8000186 <__udivsi3+0x6a>
 8000182:	030b      	lsls	r3, r1, #12
 8000184:	1ac0      	subs	r0, r0, r3
 8000186:	4152      	adcs	r2, r2
 8000188:	0ac3      	lsrs	r3, r0, #11
 800018a:	428b      	cmp	r3, r1
 800018c:	d301      	bcc.n	8000192 <__udivsi3+0x76>
 800018e:	02cb      	lsls	r3, r1, #11
 8000190:	1ac0      	subs	r0, r0, r3
 8000192:	4152      	adcs	r2, r2
 8000194:	0a83      	lsrs	r3, r0, #10
 8000196:	428b      	cmp	r3, r1
 8000198:	d301      	bcc.n	800019e <__udivsi3+0x82>
 800019a:	028b      	lsls	r3, r1, #10
 800019c:	1ac0      	subs	r0, r0, r3
 800019e:	4152      	adcs	r2, r2
 80001a0:	0a43      	lsrs	r3, r0, #9
 80001a2:	428b      	cmp	r3, r1
 80001a4:	d301      	bcc.n	80001aa <__udivsi3+0x8e>
 80001a6:	024b      	lsls	r3, r1, #9
 80001a8:	1ac0      	subs	r0, r0, r3
 80001aa:	4152      	adcs	r2, r2
 80001ac:	0a03      	lsrs	r3, r0, #8
 80001ae:	428b      	cmp	r3, r1
 80001b0:	d301      	bcc.n	80001b6 <__udivsi3+0x9a>
 80001b2:	020b      	lsls	r3, r1, #8
 80001b4:	1ac0      	subs	r0, r0, r3
 80001b6:	4152      	adcs	r2, r2
 80001b8:	d2cd      	bcs.n	8000156 <__udivsi3+0x3a>
 80001ba:	09c3      	lsrs	r3, r0, #7
 80001bc:	428b      	cmp	r3, r1
 80001be:	d301      	bcc.n	80001c4 <__udivsi3+0xa8>
 80001c0:	01cb      	lsls	r3, r1, #7
 80001c2:	1ac0      	subs	r0, r0, r3
 80001c4:	4152      	adcs	r2, r2
 80001c6:	0983      	lsrs	r3, r0, #6
 80001c8:	428b      	cmp	r3, r1
 80001ca:	d301      	bcc.n	80001d0 <__udivsi3+0xb4>
 80001cc:	018b      	lsls	r3, r1, #6
 80001ce:	1ac0      	subs	r0, r0, r3
 80001d0:	4152      	adcs	r2, r2
 80001d2:	0943      	lsrs	r3, r0, #5
 80001d4:	428b      	cmp	r3, r1
 80001d6:	d301      	bcc.n	80001dc <__udivsi3+0xc0>
 80001d8:	014b      	lsls	r3, r1, #5
 80001da:	1ac0      	subs	r0, r0, r3
 80001dc:	4152      	adcs	r2, r2
 80001de:	0903      	lsrs	r3, r0, #4
 80001e0:	428b      	cmp	r3, r1
 80001e2:	d301      	bcc.n	80001e8 <__udivsi3+0xcc>
 80001e4:	010b      	lsls	r3, r1, #4
 80001e6:	1ac0      	subs	r0, r0, r3
 80001e8:	4152      	adcs	r2, r2
 80001ea:	08c3      	lsrs	r3, r0, #3
 80001ec:	428b      	cmp	r3, r1
 80001ee:	d301      	bcc.n	80001f4 <__udivsi3+0xd8>
 80001f0:	00cb      	lsls	r3, r1, #3
 80001f2:	1ac0      	subs	r0, r0, r3
 80001f4:	4152      	adcs	r2, r2
 80001f6:	0883      	lsrs	r3, r0, #2
 80001f8:	428b      	cmp	r3, r1
 80001fa:	d301      	bcc.n	8000200 <__udivsi3+0xe4>
 80001fc:	008b      	lsls	r3, r1, #2
 80001fe:	1ac0      	subs	r0, r0, r3
 8000200:	4152      	adcs	r2, r2
 8000202:	0843      	lsrs	r3, r0, #1
 8000204:	428b      	cmp	r3, r1
 8000206:	d301      	bcc.n	800020c <__udivsi3+0xf0>
 8000208:	004b      	lsls	r3, r1, #1
 800020a:	1ac0      	subs	r0, r0, r3
 800020c:	4152      	adcs	r2, r2
 800020e:	1a41      	subs	r1, r0, r1
 8000210:	d200      	bcs.n	8000214 <__udivsi3+0xf8>
 8000212:	4601      	mov	r1, r0
 8000214:	4152      	adcs	r2, r2
 8000216:	4610      	mov	r0, r2
 8000218:	4770      	bx	lr
 800021a:	e7ff      	b.n	800021c <__udivsi3+0x100>
 800021c:	b501      	push	{r0, lr}
 800021e:	2000      	movs	r0, #0
 8000220:	f000 f806 	bl	8000230 <__aeabi_idiv0>
 8000224:	bd02      	pop	{r1, pc}
 8000226:	46c0      	nop			; (mov r8, r8)

08000228 <__aeabi_uidivmod>:
 8000228:	2900      	cmp	r1, #0
 800022a:	d0f7      	beq.n	800021c <__udivsi3+0x100>
 800022c:	e776      	b.n	800011c <__udivsi3>
 800022e:	4770      	bx	lr

08000230 <__aeabi_idiv0>:
 8000230:	4770      	bx	lr
 8000232:	46c0      	nop			; (mov r8, r8)

08000234 <__aeabi_cdrcmple>:
 8000234:	4684      	mov	ip, r0
 8000236:	0010      	movs	r0, r2
 8000238:	4662      	mov	r2, ip
 800023a:	468c      	mov	ip, r1
 800023c:	0019      	movs	r1, r3
 800023e:	4663      	mov	r3, ip
 8000240:	e000      	b.n	8000244 <__aeabi_cdcmpeq>
 8000242:	46c0      	nop			; (mov r8, r8)

08000244 <__aeabi_cdcmpeq>:
 8000244:	b51f      	push	{r0, r1, r2, r3, r4, lr}
 8000246:	f001 f863 	bl	8001310 <__ledf2>
 800024a:	2800      	cmp	r0, #0
 800024c:	d401      	bmi.n	8000252 <__aeabi_cdcmpeq+0xe>
 800024e:	2100      	movs	r1, #0
 8000250:	42c8      	cmn	r0, r1
 8000252:	bd1f      	pop	{r0, r1, r2, r3, r4, pc}

08000254 <__aeabi_dcmpeq>:
 8000254:	b510      	push	{r4, lr}
 8000256:	f000 ffb3 	bl	80011c0 <__eqdf2>
 800025a:	4240      	negs	r0, r0
 800025c:	3001      	adds	r0, #1
 800025e:	bd10      	pop	{r4, pc}

08000260 <__aeabi_dcmplt>:
 8000260:	b510      	push	{r4, lr}
 8000262:	f001 f855 	bl	8001310 <__ledf2>
 8000266:	2800      	cmp	r0, #0
 8000268:	db01      	blt.n	800026e <__aeabi_dcmplt+0xe>
 800026a:	2000      	movs	r0, #0
 800026c:	bd10      	pop	{r4, pc}
 800026e:	2001      	movs	r0, #1
 8000270:	bd10      	pop	{r4, pc}
 8000272:	46c0      	nop			; (mov r8, r8)

08000274 <__aeabi_dcmple>:
 8000274:	b510      	push	{r4, lr}
 8000276:	f001 f84b 	bl	8001310 <__ledf2>
 800027a:	2800      	cmp	r0, #0
 800027c:	dd01      	ble.n	8000282 <__aeabi_dcmple+0xe>
 800027e:	2000      	movs	r0, #0
 8000280:	bd10      	pop	{r4, pc}
 8000282:	2001      	movs	r0, #1
 8000284:	bd10      	pop	{r4, pc}
 8000286:	46c0      	nop			; (mov r8, r8)

08000288 <__aeabi_dcmpgt>:
 8000288:	b510      	push	{r4, lr}
 800028a:	f000 ffdb 	bl	8001244 <__gedf2>
 800028e:	2800      	cmp	r0, #0
 8000290:	dc01      	bgt.n	8000296 <__aeabi_dcmpgt+0xe>
 8000292:	2000      	movs	r0, #0
 8000294:	bd10      	pop	{r4, pc}
 8000296:	2001      	movs	r0, #1
 8000298:	bd10      	pop	{r4, pc}
 800029a:	46c0      	nop			; (mov r8, r8)

0800029c <__aeabi_dcmpge>:
 800029c:	b510      	push	{r4, lr}
 800029e:	f000 ffd1 	bl	8001244 <__gedf2>
 80002a2:	2800      	cmp	r0, #0
 80002a4:	da01      	bge.n	80002aa <__aeabi_dcmpge+0xe>
 80002a6:	2000      	movs	r0, #0
 80002a8:	bd10      	pop	{r4, pc}
 80002aa:	2001      	movs	r0, #1
 80002ac:	bd10      	pop	{r4, pc}
 80002ae:	46c0      	nop			; (mov r8, r8)

080002b0 <__aeabi_cfrcmple>:
 80002b0:	4684      	mov	ip, r0
 80002b2:	0008      	movs	r0, r1
 80002b4:	4661      	mov	r1, ip
 80002b6:	e7ff      	b.n	80002b8 <__aeabi_cfcmpeq>

080002b8 <__aeabi_cfcmpeq>:
 80002b8:	b51f      	push	{r0, r1, r2, r3, r4, lr}
 80002ba:	f000 f8bd 	bl	8000438 <__lesf2>
 80002be:	2800      	cmp	r0, #0
 80002c0:	d401      	bmi.n	80002c6 <__aeabi_cfcmpeq+0xe>
 80002c2:	2100      	movs	r1, #0
 80002c4:	42c8      	cmn	r0, r1
 80002c6:	bd1f      	pop	{r0, r1, r2, r3, r4, pc}

080002c8 <__aeabi_fcmpeq>:
 80002c8:	b510      	push	{r4, lr}
 80002ca:	f000 f849 	bl	8000360 <__eqsf2>
 80002ce:	4240      	negs	r0, r0
 80002d0:	3001      	adds	r0, #1
 80002d2:	bd10      	pop	{r4, pc}

080002d4 <__aeabi_fcmplt>:
 80002d4:	b510      	push	{r4, lr}
 80002d6:	f000 f8af 	bl	8000438 <__lesf2>
 80002da:	2800      	cmp	r0, #0
 80002dc:	db01      	blt.n	80002e2 <__aeabi_fcmplt+0xe>
 80002de:	2000      	movs	r0, #0
 80002e0:	bd10      	pop	{r4, pc}
 80002e2:	2001      	movs	r0, #1
 80002e4:	bd10      	pop	{r4, pc}
 80002e6:	46c0      	nop			; (mov r8, r8)

080002e8 <__aeabi_fcmple>:
 80002e8:	b510      	push	{r4, lr}
 80002ea:	f000 f8a5 	bl	8000438 <__lesf2>
 80002ee:	2800      	cmp	r0, #0
 80002f0:	dd01      	ble.n	80002f6 <__aeabi_fcmple+0xe>
 80002f2:	2000      	movs	r0, #0
 80002f4:	bd10      	pop	{r4, pc}
 80002f6:	2001      	movs	r0, #1
 80002f8:	bd10      	pop	{r4, pc}
 80002fa:	46c0      	nop			; (mov r8, r8)

080002fc <__aeabi_fcmpgt>:
 80002fc:	b510      	push	{r4, lr}
 80002fe:	f000 f855 	bl	80003ac <__gesf2>
 8000302:	2800      	cmp	r0, #0
 8000304:	dc01      	bgt.n	800030a <__aeabi_fcmpgt+0xe>
 8000306:	2000      	movs	r0, #0
 8000308:	bd10      	pop	{r4, pc}
 800030a:	2001      	movs	r0, #1
 800030c:	bd10      	pop	{r4, pc}
 800030e:	46c0      	nop			; (mov r8, r8)

08000310 <__aeabi_fcmpge>:
 8000310:	b510      	push	{r4, lr}
 8000312:	f000 f84b 	bl	80003ac <__gesf2>
 8000316:	2800      	cmp	r0, #0
 8000318:	da01      	bge.n	800031e <__aeabi_fcmpge+0xe>
 800031a:	2000      	movs	r0, #0
 800031c:	bd10      	pop	{r4, pc}
 800031e:	2001      	movs	r0, #1
 8000320:	bd10      	pop	{r4, pc}
 8000322:	46c0      	nop			; (mov r8, r8)

08000324 <__aeabi_d2uiz>:
 8000324:	b570      	push	{r4, r5, r6, lr}
 8000326:	2200      	movs	r2, #0
 8000328:	4b0c      	ldr	r3, [pc, #48]	; (800035c <__aeabi_d2uiz+0x38>)
 800032a:	0004      	movs	r4, r0
 800032c:	000d      	movs	r5, r1
 800032e:	f7ff ffb5 	bl	800029c <__aeabi_dcmpge>
 8000332:	2800      	cmp	r0, #0
 8000334:	d104      	bne.n	8000340 <__aeabi_d2uiz+0x1c>
 8000336:	0020      	movs	r0, r4
 8000338:	0029      	movs	r1, r5
 800033a:	f001 fe69 	bl	8002010 <__aeabi_d2iz>
 800033e:	bd70      	pop	{r4, r5, r6, pc}
 8000340:	4b06      	ldr	r3, [pc, #24]	; (800035c <__aeabi_d2uiz+0x38>)
 8000342:	2200      	movs	r2, #0
 8000344:	0020      	movs	r0, r4
 8000346:	0029      	movs	r1, r5
 8000348:	f001 fab2 	bl	80018b0 <__aeabi_dsub>
 800034c:	f001 fe60 	bl	8002010 <__aeabi_d2iz>
 8000350:	2380      	movs	r3, #128	; 0x80
 8000352:	061b      	lsls	r3, r3, #24
 8000354:	469c      	mov	ip, r3
 8000356:	4460      	add	r0, ip
 8000358:	e7f1      	b.n	800033e <__aeabi_d2uiz+0x1a>
 800035a:	46c0      	nop			; (mov r8, r8)
 800035c:	41e00000 	.word	0x41e00000

08000360 <__eqsf2>:
 8000360:	b570      	push	{r4, r5, r6, lr}
 8000362:	0042      	lsls	r2, r0, #1
 8000364:	0245      	lsls	r5, r0, #9
 8000366:	024e      	lsls	r6, r1, #9
 8000368:	004c      	lsls	r4, r1, #1
 800036a:	0fc3      	lsrs	r3, r0, #31
 800036c:	0a6d      	lsrs	r5, r5, #9
 800036e:	2001      	movs	r0, #1
 8000370:	0e12      	lsrs	r2, r2, #24
 8000372:	0a76      	lsrs	r6, r6, #9
 8000374:	0e24      	lsrs	r4, r4, #24
 8000376:	0fc9      	lsrs	r1, r1, #31
 8000378:	2aff      	cmp	r2, #255	; 0xff
 800037a:	d006      	beq.n	800038a <__eqsf2+0x2a>
 800037c:	2cff      	cmp	r4, #255	; 0xff
 800037e:	d003      	beq.n	8000388 <__eqsf2+0x28>
 8000380:	42a2      	cmp	r2, r4
 8000382:	d101      	bne.n	8000388 <__eqsf2+0x28>
 8000384:	42b5      	cmp	r5, r6
 8000386:	d006      	beq.n	8000396 <__eqsf2+0x36>
 8000388:	bd70      	pop	{r4, r5, r6, pc}
 800038a:	2d00      	cmp	r5, #0
 800038c:	d1fc      	bne.n	8000388 <__eqsf2+0x28>
 800038e:	2cff      	cmp	r4, #255	; 0xff
 8000390:	d1fa      	bne.n	8000388 <__eqsf2+0x28>
 8000392:	2e00      	cmp	r6, #0
 8000394:	d1f8      	bne.n	8000388 <__eqsf2+0x28>
 8000396:	428b      	cmp	r3, r1
 8000398:	d006      	beq.n	80003a8 <__eqsf2+0x48>
 800039a:	2001      	movs	r0, #1
 800039c:	2a00      	cmp	r2, #0
 800039e:	d1f3      	bne.n	8000388 <__eqsf2+0x28>
 80003a0:	0028      	movs	r0, r5
 80003a2:	1e43      	subs	r3, r0, #1
 80003a4:	4198      	sbcs	r0, r3
 80003a6:	e7ef      	b.n	8000388 <__eqsf2+0x28>
 80003a8:	2000      	movs	r0, #0
 80003aa:	e7ed      	b.n	8000388 <__eqsf2+0x28>

080003ac <__gesf2>:
 80003ac:	b570      	push	{r4, r5, r6, lr}
 80003ae:	0042      	lsls	r2, r0, #1
 80003b0:	0245      	lsls	r5, r0, #9
 80003b2:	024e      	lsls	r6, r1, #9
 80003b4:	004c      	lsls	r4, r1, #1
 80003b6:	0fc3      	lsrs	r3, r0, #31
 80003b8:	0a6d      	lsrs	r5, r5, #9
 80003ba:	0e12      	lsrs	r2, r2, #24
 80003bc:	0a76      	lsrs	r6, r6, #9
 80003be:	0e24      	lsrs	r4, r4, #24
 80003c0:	0fc8      	lsrs	r0, r1, #31
 80003c2:	2aff      	cmp	r2, #255	; 0xff
 80003c4:	d01b      	beq.n	80003fe <__gesf2+0x52>
 80003c6:	2cff      	cmp	r4, #255	; 0xff
 80003c8:	d00e      	beq.n	80003e8 <__gesf2+0x3c>
 80003ca:	2a00      	cmp	r2, #0
 80003cc:	d11b      	bne.n	8000406 <__gesf2+0x5a>
 80003ce:	2c00      	cmp	r4, #0
 80003d0:	d101      	bne.n	80003d6 <__gesf2+0x2a>
 80003d2:	2e00      	cmp	r6, #0
 80003d4:	d01c      	beq.n	8000410 <__gesf2+0x64>
 80003d6:	2d00      	cmp	r5, #0
 80003d8:	d00c      	beq.n	80003f4 <__gesf2+0x48>
 80003da:	4283      	cmp	r3, r0
 80003dc:	d01c      	beq.n	8000418 <__gesf2+0x6c>
 80003de:	2102      	movs	r1, #2
 80003e0:	1e58      	subs	r0, r3, #1
 80003e2:	4008      	ands	r0, r1
 80003e4:	3801      	subs	r0, #1
 80003e6:	bd70      	pop	{r4, r5, r6, pc}
 80003e8:	2e00      	cmp	r6, #0
 80003ea:	d122      	bne.n	8000432 <__gesf2+0x86>
 80003ec:	2a00      	cmp	r2, #0
 80003ee:	d1f4      	bne.n	80003da <__gesf2+0x2e>
 80003f0:	2d00      	cmp	r5, #0
 80003f2:	d1f2      	bne.n	80003da <__gesf2+0x2e>
 80003f4:	2800      	cmp	r0, #0
 80003f6:	d1f6      	bne.n	80003e6 <__gesf2+0x3a>
 80003f8:	2001      	movs	r0, #1
 80003fa:	4240      	negs	r0, r0
 80003fc:	e7f3      	b.n	80003e6 <__gesf2+0x3a>
 80003fe:	2d00      	cmp	r5, #0
 8000400:	d117      	bne.n	8000432 <__gesf2+0x86>
 8000402:	2cff      	cmp	r4, #255	; 0xff
 8000404:	d0f0      	beq.n	80003e8 <__gesf2+0x3c>
 8000406:	2c00      	cmp	r4, #0
 8000408:	d1e7      	bne.n	80003da <__gesf2+0x2e>
 800040a:	2e00      	cmp	r6, #0
 800040c:	d1e5      	bne.n	80003da <__gesf2+0x2e>
 800040e:	e7e6      	b.n	80003de <__gesf2+0x32>
 8000410:	2000      	movs	r0, #0
 8000412:	2d00      	cmp	r5, #0
 8000414:	d0e7      	beq.n	80003e6 <__gesf2+0x3a>
 8000416:	e7e2      	b.n	80003de <__gesf2+0x32>
 8000418:	42a2      	cmp	r2, r4
 800041a:	dc05      	bgt.n	8000428 <__gesf2+0x7c>
 800041c:	dbea      	blt.n	80003f4 <__gesf2+0x48>
 800041e:	42b5      	cmp	r5, r6
 8000420:	d802      	bhi.n	8000428 <__gesf2+0x7c>
 8000422:	d3e7      	bcc.n	80003f4 <__gesf2+0x48>
 8000424:	2000      	movs	r0, #0
 8000426:	e7de      	b.n	80003e6 <__gesf2+0x3a>
 8000428:	4243      	negs	r3, r0
 800042a:	4158      	adcs	r0, r3
 800042c:	0040      	lsls	r0, r0, #1
 800042e:	3801      	subs	r0, #1
 8000430:	e7d9      	b.n	80003e6 <__gesf2+0x3a>
 8000432:	2002      	movs	r0, #2
 8000434:	4240      	negs	r0, r0
 8000436:	e7d6      	b.n	80003e6 <__gesf2+0x3a>

08000438 <__lesf2>:
 8000438:	b570      	push	{r4, r5, r6, lr}
 800043a:	0042      	lsls	r2, r0, #1
 800043c:	0245      	lsls	r5, r0, #9
 800043e:	024e      	lsls	r6, r1, #9
 8000440:	004c      	lsls	r4, r1, #1
 8000442:	0fc3      	lsrs	r3, r0, #31
 8000444:	0a6d      	lsrs	r5, r5, #9
 8000446:	0e12      	lsrs	r2, r2, #24
 8000448:	0a76      	lsrs	r6, r6, #9
 800044a:	0e24      	lsrs	r4, r4, #24
 800044c:	0fc8      	lsrs	r0, r1, #31
 800044e:	2aff      	cmp	r2, #255	; 0xff
 8000450:	d00b      	beq.n	800046a <__lesf2+0x32>
 8000452:	2cff      	cmp	r4, #255	; 0xff
 8000454:	d00d      	beq.n	8000472 <__lesf2+0x3a>
 8000456:	2a00      	cmp	r2, #0
 8000458:	d11f      	bne.n	800049a <__lesf2+0x62>
 800045a:	2c00      	cmp	r4, #0
 800045c:	d116      	bne.n	800048c <__lesf2+0x54>
 800045e:	2e00      	cmp	r6, #0
 8000460:	d114      	bne.n	800048c <__lesf2+0x54>
 8000462:	2000      	movs	r0, #0
 8000464:	2d00      	cmp	r5, #0
 8000466:	d010      	beq.n	800048a <__lesf2+0x52>
 8000468:	e009      	b.n	800047e <__lesf2+0x46>
 800046a:	2d00      	cmp	r5, #0
 800046c:	d10c      	bne.n	8000488 <__lesf2+0x50>
 800046e:	2cff      	cmp	r4, #255	; 0xff
 8000470:	d113      	bne.n	800049a <__lesf2+0x62>
 8000472:	2e00      	cmp	r6, #0
 8000474:	d108      	bne.n	8000488 <__lesf2+0x50>
 8000476:	2a00      	cmp	r2, #0
 8000478:	d008      	beq.n	800048c <__lesf2+0x54>
 800047a:	4283      	cmp	r3, r0
 800047c:	d012      	beq.n	80004a4 <__lesf2+0x6c>
 800047e:	2102      	movs	r1, #2
 8000480:	1e58      	subs	r0, r3, #1
 8000482:	4008      	ands	r0, r1
 8000484:	3801      	subs	r0, #1
 8000486:	e000      	b.n	800048a <__lesf2+0x52>
 8000488:	2002      	movs	r0, #2
 800048a:	bd70      	pop	{r4, r5, r6, pc}
 800048c:	2d00      	cmp	r5, #0
 800048e:	d1f4      	bne.n	800047a <__lesf2+0x42>
 8000490:	2800      	cmp	r0, #0
 8000492:	d1fa      	bne.n	800048a <__lesf2+0x52>
 8000494:	2001      	movs	r0, #1
 8000496:	4240      	negs	r0, r0
 8000498:	e7f7      	b.n	800048a <__lesf2+0x52>
 800049a:	2c00      	cmp	r4, #0
 800049c:	d1ed      	bne.n	800047a <__lesf2+0x42>
 800049e:	2e00      	cmp	r6, #0
 80004a0:	d1eb      	bne.n	800047a <__lesf2+0x42>
 80004a2:	e7ec      	b.n	800047e <__lesf2+0x46>
 80004a4:	42a2      	cmp	r2, r4
 80004a6:	dc05      	bgt.n	80004b4 <__lesf2+0x7c>
 80004a8:	dbf2      	blt.n	8000490 <__lesf2+0x58>
 80004aa:	42b5      	cmp	r5, r6
 80004ac:	d802      	bhi.n	80004b4 <__lesf2+0x7c>
 80004ae:	d3ef      	bcc.n	8000490 <__lesf2+0x58>
 80004b0:	2000      	movs	r0, #0
 80004b2:	e7ea      	b.n	800048a <__lesf2+0x52>
 80004b4:	4243      	negs	r3, r0
 80004b6:	4158      	adcs	r0, r3
 80004b8:	0040      	lsls	r0, r0, #1
 80004ba:	3801      	subs	r0, #1
 80004bc:	e7e5      	b.n	800048a <__lesf2+0x52>
 80004be:	46c0      	nop			; (mov r8, r8)

080004c0 <__aeabi_i2f>:
 80004c0:	b5f8      	push	{r3, r4, r5, r6, r7, lr}
 80004c2:	2800      	cmp	r0, #0
 80004c4:	d013      	beq.n	80004ee <__aeabi_i2f+0x2e>
 80004c6:	17c3      	asrs	r3, r0, #31
 80004c8:	18c6      	adds	r6, r0, r3
 80004ca:	405e      	eors	r6, r3
 80004cc:	0fc4      	lsrs	r4, r0, #31
 80004ce:	0030      	movs	r0, r6
 80004d0:	f001 fe2a 	bl	8002128 <__clzsi2>
 80004d4:	239e      	movs	r3, #158	; 0x9e
 80004d6:	0005      	movs	r5, r0
 80004d8:	1a1b      	subs	r3, r3, r0
 80004da:	2b96      	cmp	r3, #150	; 0x96
 80004dc:	dc0f      	bgt.n	80004fe <__aeabi_i2f+0x3e>
 80004de:	2808      	cmp	r0, #8
 80004e0:	dd01      	ble.n	80004e6 <__aeabi_i2f+0x26>
 80004e2:	3d08      	subs	r5, #8
 80004e4:	40ae      	lsls	r6, r5
 80004e6:	0276      	lsls	r6, r6, #9
 80004e8:	0a76      	lsrs	r6, r6, #9
 80004ea:	b2d8      	uxtb	r0, r3
 80004ec:	e002      	b.n	80004f4 <__aeabi_i2f+0x34>
 80004ee:	2400      	movs	r4, #0
 80004f0:	2000      	movs	r0, #0
 80004f2:	2600      	movs	r6, #0
 80004f4:	05c0      	lsls	r0, r0, #23
 80004f6:	4330      	orrs	r0, r6
 80004f8:	07e4      	lsls	r4, r4, #31
 80004fa:	4320      	orrs	r0, r4
 80004fc:	bdf8      	pop	{r3, r4, r5, r6, r7, pc}
 80004fe:	2b99      	cmp	r3, #153	; 0x99
 8000500:	dd0c      	ble.n	800051c <__aeabi_i2f+0x5c>
 8000502:	2205      	movs	r2, #5
 8000504:	0031      	movs	r1, r6
 8000506:	1a12      	subs	r2, r2, r0
 8000508:	40d1      	lsrs	r1, r2
 800050a:	000a      	movs	r2, r1
 800050c:	0001      	movs	r1, r0
 800050e:	0030      	movs	r0, r6
 8000510:	311b      	adds	r1, #27
 8000512:	4088      	lsls	r0, r1
 8000514:	1e41      	subs	r1, r0, #1
 8000516:	4188      	sbcs	r0, r1
 8000518:	4302      	orrs	r2, r0
 800051a:	0016      	movs	r6, r2
 800051c:	2d05      	cmp	r5, #5
 800051e:	dc12      	bgt.n	8000546 <__aeabi_i2f+0x86>
 8000520:	0031      	movs	r1, r6
 8000522:	4f0d      	ldr	r7, [pc, #52]	; (8000558 <__aeabi_i2f+0x98>)
 8000524:	4039      	ands	r1, r7
 8000526:	0772      	lsls	r2, r6, #29
 8000528:	d009      	beq.n	800053e <__aeabi_i2f+0x7e>
 800052a:	200f      	movs	r0, #15
 800052c:	4030      	ands	r0, r6
 800052e:	2804      	cmp	r0, #4
 8000530:	d005      	beq.n	800053e <__aeabi_i2f+0x7e>
 8000532:	3104      	adds	r1, #4
 8000534:	014a      	lsls	r2, r1, #5
 8000536:	d502      	bpl.n	800053e <__aeabi_i2f+0x7e>
 8000538:	239f      	movs	r3, #159	; 0x9f
 800053a:	4039      	ands	r1, r7
 800053c:	1b5b      	subs	r3, r3, r5
 800053e:	0189      	lsls	r1, r1, #6
 8000540:	0a4e      	lsrs	r6, r1, #9
 8000542:	b2d8      	uxtb	r0, r3
 8000544:	e7d6      	b.n	80004f4 <__aeabi_i2f+0x34>
 8000546:	1f6a      	subs	r2, r5, #5
 8000548:	4096      	lsls	r6, r2
 800054a:	0031      	movs	r1, r6
 800054c:	4f02      	ldr	r7, [pc, #8]	; (8000558 <__aeabi_i2f+0x98>)
 800054e:	4039      	ands	r1, r7
 8000550:	0772      	lsls	r2, r6, #29
 8000552:	d0f4      	beq.n	800053e <__aeabi_i2f+0x7e>
 8000554:	e7e9      	b.n	800052a <__aeabi_i2f+0x6a>
 8000556:	46c0      	nop			; (mov r8, r8)
 8000558:	fbffffff 	.word	0xfbffffff

0800055c <__aeabi_dadd>:
 800055c:	b5f0      	push	{r4, r5, r6, r7, lr}
 800055e:	464f      	mov	r7, r9
 8000560:	4646      	mov	r6, r8
 8000562:	46d6      	mov	lr, sl
 8000564:	000d      	movs	r5, r1
 8000566:	0004      	movs	r4, r0
 8000568:	b5c0      	push	{r6, r7, lr}
 800056a:	001f      	movs	r7, r3
 800056c:	0011      	movs	r1, r2
 800056e:	0328      	lsls	r0, r5, #12
 8000570:	0f62      	lsrs	r2, r4, #29
 8000572:	0a40      	lsrs	r0, r0, #9
 8000574:	4310      	orrs	r0, r2
 8000576:	007a      	lsls	r2, r7, #1
 8000578:	0d52      	lsrs	r2, r2, #21
 800057a:	00e3      	lsls	r3, r4, #3
 800057c:	033c      	lsls	r4, r7, #12
 800057e:	4691      	mov	r9, r2
 8000580:	0a64      	lsrs	r4, r4, #9
 8000582:	0ffa      	lsrs	r2, r7, #31
 8000584:	0f4f      	lsrs	r7, r1, #29
 8000586:	006e      	lsls	r6, r5, #1
 8000588:	4327      	orrs	r7, r4
 800058a:	4692      	mov	sl, r2
 800058c:	46b8      	mov	r8, r7
 800058e:	0d76      	lsrs	r6, r6, #21
 8000590:	0fed      	lsrs	r5, r5, #31
 8000592:	00c9      	lsls	r1, r1, #3
 8000594:	4295      	cmp	r5, r2
 8000596:	d100      	bne.n	800059a <__aeabi_dadd+0x3e>
 8000598:	e099      	b.n	80006ce <__aeabi_dadd+0x172>
 800059a:	464c      	mov	r4, r9
 800059c:	1b34      	subs	r4, r6, r4
 800059e:	46a4      	mov	ip, r4
 80005a0:	2c00      	cmp	r4, #0
 80005a2:	dc00      	bgt.n	80005a6 <__aeabi_dadd+0x4a>
 80005a4:	e07c      	b.n	80006a0 <__aeabi_dadd+0x144>
 80005a6:	464a      	mov	r2, r9
 80005a8:	2a00      	cmp	r2, #0
 80005aa:	d100      	bne.n	80005ae <__aeabi_dadd+0x52>
 80005ac:	e0b8      	b.n	8000720 <__aeabi_dadd+0x1c4>
 80005ae:	4ac5      	ldr	r2, [pc, #788]	; (80008c4 <__aeabi_dadd+0x368>)
 80005b0:	4296      	cmp	r6, r2
 80005b2:	d100      	bne.n	80005b6 <__aeabi_dadd+0x5a>
 80005b4:	e11c      	b.n	80007f0 <__aeabi_dadd+0x294>
 80005b6:	2280      	movs	r2, #128	; 0x80
 80005b8:	003c      	movs	r4, r7
 80005ba:	0412      	lsls	r2, r2, #16
 80005bc:	4314      	orrs	r4, r2
 80005be:	46a0      	mov	r8, r4
 80005c0:	4662      	mov	r2, ip
 80005c2:	2a38      	cmp	r2, #56	; 0x38
 80005c4:	dd00      	ble.n	80005c8 <__aeabi_dadd+0x6c>
 80005c6:	e161      	b.n	800088c <__aeabi_dadd+0x330>
 80005c8:	2a1f      	cmp	r2, #31
 80005ca:	dd00      	ble.n	80005ce <__aeabi_dadd+0x72>
 80005cc:	e1cc      	b.n	8000968 <__aeabi_dadd+0x40c>
 80005ce:	4664      	mov	r4, ip
 80005d0:	2220      	movs	r2, #32
 80005d2:	1b12      	subs	r2, r2, r4
 80005d4:	4644      	mov	r4, r8
 80005d6:	4094      	lsls	r4, r2
 80005d8:	000f      	movs	r7, r1
 80005da:	46a1      	mov	r9, r4
 80005dc:	4664      	mov	r4, ip
 80005de:	4091      	lsls	r1, r2
 80005e0:	40e7      	lsrs	r7, r4
 80005e2:	464c      	mov	r4, r9
 80005e4:	1e4a      	subs	r2, r1, #1
 80005e6:	4191      	sbcs	r1, r2
 80005e8:	433c      	orrs	r4, r7
 80005ea:	4642      	mov	r2, r8
 80005ec:	4321      	orrs	r1, r4
 80005ee:	4664      	mov	r4, ip
 80005f0:	40e2      	lsrs	r2, r4
 80005f2:	1a80      	subs	r0, r0, r2
 80005f4:	1a5c      	subs	r4, r3, r1
 80005f6:	42a3      	cmp	r3, r4
 80005f8:	419b      	sbcs	r3, r3
 80005fa:	425f      	negs	r7, r3
 80005fc:	1bc7      	subs	r7, r0, r7
 80005fe:	023b      	lsls	r3, r7, #8
 8000600:	d400      	bmi.n	8000604 <__aeabi_dadd+0xa8>
 8000602:	e0d0      	b.n	80007a6 <__aeabi_dadd+0x24a>
 8000604:	027f      	lsls	r7, r7, #9
 8000606:	0a7f      	lsrs	r7, r7, #9
 8000608:	2f00      	cmp	r7, #0
 800060a:	d100      	bne.n	800060e <__aeabi_dadd+0xb2>
 800060c:	e0ff      	b.n	800080e <__aeabi_dadd+0x2b2>
 800060e:	0038      	movs	r0, r7
 8000610:	f001 fd8a 	bl	8002128 <__clzsi2>
 8000614:	0001      	movs	r1, r0
 8000616:	3908      	subs	r1, #8
 8000618:	2320      	movs	r3, #32
 800061a:	0022      	movs	r2, r4
 800061c:	1a5b      	subs	r3, r3, r1
 800061e:	408f      	lsls	r7, r1
 8000620:	40da      	lsrs	r2, r3
 8000622:	408c      	lsls	r4, r1
 8000624:	4317      	orrs	r7, r2
 8000626:	42b1      	cmp	r1, r6
 8000628:	da00      	bge.n	800062c <__aeabi_dadd+0xd0>
 800062a:	e0ff      	b.n	800082c <__aeabi_dadd+0x2d0>
 800062c:	1b89      	subs	r1, r1, r6
 800062e:	1c4b      	adds	r3, r1, #1
 8000630:	2b1f      	cmp	r3, #31
 8000632:	dd00      	ble.n	8000636 <__aeabi_dadd+0xda>
 8000634:	e0a8      	b.n	8000788 <__aeabi_dadd+0x22c>
 8000636:	2220      	movs	r2, #32
 8000638:	0039      	movs	r1, r7
 800063a:	1ad2      	subs	r2, r2, r3
 800063c:	0020      	movs	r0, r4
 800063e:	4094      	lsls	r4, r2
 8000640:	4091      	lsls	r1, r2
 8000642:	40d8      	lsrs	r0, r3
 8000644:	1e62      	subs	r2, r4, #1
 8000646:	4194      	sbcs	r4, r2
 8000648:	40df      	lsrs	r7, r3
 800064a:	2600      	movs	r6, #0
 800064c:	4301      	orrs	r1, r0
 800064e:	430c      	orrs	r4, r1
 8000650:	0763      	lsls	r3, r4, #29
 8000652:	d009      	beq.n	8000668 <__aeabi_dadd+0x10c>
 8000654:	230f      	movs	r3, #15
 8000656:	4023      	ands	r3, r4
 8000658:	2b04      	cmp	r3, #4
 800065a:	d005      	beq.n	8000668 <__aeabi_dadd+0x10c>
 800065c:	1d23      	adds	r3, r4, #4
 800065e:	42a3      	cmp	r3, r4
 8000660:	41a4      	sbcs	r4, r4
 8000662:	4264      	negs	r4, r4
 8000664:	193f      	adds	r7, r7, r4
 8000666:	001c      	movs	r4, r3
 8000668:	023b      	lsls	r3, r7, #8
 800066a:	d400      	bmi.n	800066e <__aeabi_dadd+0x112>
 800066c:	e09e      	b.n	80007ac <__aeabi_dadd+0x250>
 800066e:	4b95      	ldr	r3, [pc, #596]	; (80008c4 <__aeabi_dadd+0x368>)
 8000670:	3601      	adds	r6, #1
 8000672:	429e      	cmp	r6, r3
 8000674:	d100      	bne.n	8000678 <__aeabi_dadd+0x11c>
 8000676:	e0b7      	b.n	80007e8 <__aeabi_dadd+0x28c>
 8000678:	4a93      	ldr	r2, [pc, #588]	; (80008c8 <__aeabi_dadd+0x36c>)
 800067a:	08e4      	lsrs	r4, r4, #3
 800067c:	4017      	ands	r7, r2
 800067e:	077b      	lsls	r3, r7, #29
 8000680:	0571      	lsls	r1, r6, #21
 8000682:	027f      	lsls	r7, r7, #9
 8000684:	4323      	orrs	r3, r4
 8000686:	0b3f      	lsrs	r7, r7, #12
 8000688:	0d4a      	lsrs	r2, r1, #21
 800068a:	0512      	lsls	r2, r2, #20
 800068c:	433a      	orrs	r2, r7
 800068e:	07ed      	lsls	r5, r5, #31
 8000690:	432a      	orrs	r2, r5
 8000692:	0018      	movs	r0, r3
 8000694:	0011      	movs	r1, r2
 8000696:	bce0      	pop	{r5, r6, r7}
 8000698:	46ba      	mov	sl, r7
 800069a:	46b1      	mov	r9, r6
 800069c:	46a8      	mov	r8, r5
 800069e:	bdf0      	pop	{r4, r5, r6, r7, pc}
 80006a0:	2c00      	cmp	r4, #0
 80006a2:	d04b      	beq.n	800073c <__aeabi_dadd+0x1e0>
 80006a4:	464c      	mov	r4, r9
 80006a6:	1ba4      	subs	r4, r4, r6
 80006a8:	46a4      	mov	ip, r4
 80006aa:	2e00      	cmp	r6, #0
 80006ac:	d000      	beq.n	80006b0 <__aeabi_dadd+0x154>
 80006ae:	e123      	b.n	80008f8 <__aeabi_dadd+0x39c>
 80006b0:	0004      	movs	r4, r0
 80006b2:	431c      	orrs	r4, r3
 80006b4:	d100      	bne.n	80006b8 <__aeabi_dadd+0x15c>
 80006b6:	e1af      	b.n	8000a18 <__aeabi_dadd+0x4bc>
 80006b8:	4662      	mov	r2, ip
 80006ba:	1e54      	subs	r4, r2, #1
 80006bc:	2a01      	cmp	r2, #1
 80006be:	d100      	bne.n	80006c2 <__aeabi_dadd+0x166>
 80006c0:	e215      	b.n	8000aee <__aeabi_dadd+0x592>
 80006c2:	4d80      	ldr	r5, [pc, #512]	; (80008c4 <__aeabi_dadd+0x368>)
 80006c4:	45ac      	cmp	ip, r5
 80006c6:	d100      	bne.n	80006ca <__aeabi_dadd+0x16e>
 80006c8:	e1c8      	b.n	8000a5c <__aeabi_dadd+0x500>
 80006ca:	46a4      	mov	ip, r4
 80006cc:	e11b      	b.n	8000906 <__aeabi_dadd+0x3aa>
 80006ce:	464a      	mov	r2, r9
 80006d0:	1ab2      	subs	r2, r6, r2
 80006d2:	4694      	mov	ip, r2
 80006d4:	2a00      	cmp	r2, #0
 80006d6:	dc00      	bgt.n	80006da <__aeabi_dadd+0x17e>
 80006d8:	e0ac      	b.n	8000834 <__aeabi_dadd+0x2d8>
 80006da:	464a      	mov	r2, r9
 80006dc:	2a00      	cmp	r2, #0
 80006de:	d043      	beq.n	8000768 <__aeabi_dadd+0x20c>
 80006e0:	4a78      	ldr	r2, [pc, #480]	; (80008c4 <__aeabi_dadd+0x368>)
 80006e2:	4296      	cmp	r6, r2
 80006e4:	d100      	bne.n	80006e8 <__aeabi_dadd+0x18c>
 80006e6:	e1af      	b.n	8000a48 <__aeabi_dadd+0x4ec>
 80006e8:	2280      	movs	r2, #128	; 0x80
 80006ea:	003c      	movs	r4, r7
 80006ec:	0412      	lsls	r2, r2, #16
 80006ee:	4314      	orrs	r4, r2
 80006f0:	46a0      	mov	r8, r4
 80006f2:	4662      	mov	r2, ip
 80006f4:	2a38      	cmp	r2, #56	; 0x38
 80006f6:	dc67      	bgt.n	80007c8 <__aeabi_dadd+0x26c>
 80006f8:	2a1f      	cmp	r2, #31
 80006fa:	dc00      	bgt.n	80006fe <__aeabi_dadd+0x1a2>
 80006fc:	e15f      	b.n	80009be <__aeabi_dadd+0x462>
 80006fe:	4647      	mov	r7, r8
 8000700:	3a20      	subs	r2, #32
 8000702:	40d7      	lsrs	r7, r2
 8000704:	4662      	mov	r2, ip
 8000706:	2a20      	cmp	r2, #32
 8000708:	d005      	beq.n	8000716 <__aeabi_dadd+0x1ba>
 800070a:	4664      	mov	r4, ip
 800070c:	2240      	movs	r2, #64	; 0x40
 800070e:	1b12      	subs	r2, r2, r4
 8000710:	4644      	mov	r4, r8
 8000712:	4094      	lsls	r4, r2
 8000714:	4321      	orrs	r1, r4
 8000716:	1e4a      	subs	r2, r1, #1
 8000718:	4191      	sbcs	r1, r2
 800071a:	000c      	movs	r4, r1
 800071c:	433c      	orrs	r4, r7
 800071e:	e057      	b.n	80007d0 <__aeabi_dadd+0x274>
 8000720:	003a      	movs	r2, r7
 8000722:	430a      	orrs	r2, r1
 8000724:	d100      	bne.n	8000728 <__aeabi_dadd+0x1cc>
 8000726:	e105      	b.n	8000934 <__aeabi_dadd+0x3d8>
 8000728:	0022      	movs	r2, r4
 800072a:	3a01      	subs	r2, #1
 800072c:	2c01      	cmp	r4, #1
 800072e:	d100      	bne.n	8000732 <__aeabi_dadd+0x1d6>
 8000730:	e182      	b.n	8000a38 <__aeabi_dadd+0x4dc>
 8000732:	4c64      	ldr	r4, [pc, #400]	; (80008c4 <__aeabi_dadd+0x368>)
 8000734:	45a4      	cmp	ip, r4
 8000736:	d05b      	beq.n	80007f0 <__aeabi_dadd+0x294>
 8000738:	4694      	mov	ip, r2
 800073a:	e741      	b.n	80005c0 <__aeabi_dadd+0x64>
 800073c:	4c63      	ldr	r4, [pc, #396]	; (80008cc <__aeabi_dadd+0x370>)
 800073e:	1c77      	adds	r7, r6, #1
 8000740:	4227      	tst	r7, r4
 8000742:	d000      	beq.n	8000746 <__aeabi_dadd+0x1ea>
 8000744:	e0c4      	b.n	80008d0 <__aeabi_dadd+0x374>
 8000746:	0004      	movs	r4, r0
 8000748:	431c      	orrs	r4, r3
 800074a:	2e00      	cmp	r6, #0
 800074c:	d000      	beq.n	8000750 <__aeabi_dadd+0x1f4>
 800074e:	e169      	b.n	8000a24 <__aeabi_dadd+0x4c8>
 8000750:	2c00      	cmp	r4, #0
 8000752:	d100      	bne.n	8000756 <__aeabi_dadd+0x1fa>
 8000754:	e1bf      	b.n	8000ad6 <__aeabi_dadd+0x57a>
 8000756:	4644      	mov	r4, r8
 8000758:	430c      	orrs	r4, r1
 800075a:	d000      	beq.n	800075e <__aeabi_dadd+0x202>
 800075c:	e1d0      	b.n	8000b00 <__aeabi_dadd+0x5a4>
 800075e:	0742      	lsls	r2, r0, #29
 8000760:	08db      	lsrs	r3, r3, #3
 8000762:	4313      	orrs	r3, r2
 8000764:	08c0      	lsrs	r0, r0, #3
 8000766:	e029      	b.n	80007bc <__aeabi_dadd+0x260>
 8000768:	003a      	movs	r2, r7
 800076a:	430a      	orrs	r2, r1
 800076c:	d100      	bne.n	8000770 <__aeabi_dadd+0x214>
 800076e:	e170      	b.n	8000a52 <__aeabi_dadd+0x4f6>
 8000770:	4662      	mov	r2, ip
 8000772:	4664      	mov	r4, ip
 8000774:	3a01      	subs	r2, #1
 8000776:	2c01      	cmp	r4, #1
 8000778:	d100      	bne.n	800077c <__aeabi_dadd+0x220>
 800077a:	e0e0      	b.n	800093e <__aeabi_dadd+0x3e2>
 800077c:	4c51      	ldr	r4, [pc, #324]	; (80008c4 <__aeabi_dadd+0x368>)
 800077e:	45a4      	cmp	ip, r4
 8000780:	d100      	bne.n	8000784 <__aeabi_dadd+0x228>
 8000782:	e161      	b.n	8000a48 <__aeabi_dadd+0x4ec>
 8000784:	4694      	mov	ip, r2
 8000786:	e7b4      	b.n	80006f2 <__aeabi_dadd+0x196>
 8000788:	003a      	movs	r2, r7
 800078a:	391f      	subs	r1, #31
 800078c:	40ca      	lsrs	r2, r1
 800078e:	0011      	movs	r1, r2
 8000790:	2b20      	cmp	r3, #32
 8000792:	d003      	beq.n	800079c <__aeabi_dadd+0x240>
 8000794:	2240      	movs	r2, #64	; 0x40
 8000796:	1ad3      	subs	r3, r2, r3
 8000798:	409f      	lsls	r7, r3
 800079a:	433c      	orrs	r4, r7
 800079c:	1e63      	subs	r3, r4, #1
 800079e:	419c      	sbcs	r4, r3
 80007a0:	2700      	movs	r7, #0
 80007a2:	2600      	movs	r6, #0
 80007a4:	430c      	orrs	r4, r1
 80007a6:	0763      	lsls	r3, r4, #29
 80007a8:	d000      	beq.n	80007ac <__aeabi_dadd+0x250>
 80007aa:	e753      	b.n	8000654 <__aeabi_dadd+0xf8>
 80007ac:	46b4      	mov	ip, r6
 80007ae:	08e4      	lsrs	r4, r4, #3
 80007b0:	077b      	lsls	r3, r7, #29
 80007b2:	4323      	orrs	r3, r4
 80007b4:	08f8      	lsrs	r0, r7, #3
 80007b6:	4a43      	ldr	r2, [pc, #268]	; (80008c4 <__aeabi_dadd+0x368>)
 80007b8:	4594      	cmp	ip, r2
 80007ba:	d01d      	beq.n	80007f8 <__aeabi_dadd+0x29c>
 80007bc:	4662      	mov	r2, ip
 80007be:	0307      	lsls	r7, r0, #12
 80007c0:	0552      	lsls	r2, r2, #21
 80007c2:	0b3f      	lsrs	r7, r7, #12
 80007c4:	0d52      	lsrs	r2, r2, #21
 80007c6:	e760      	b.n	800068a <__aeabi_dadd+0x12e>
 80007c8:	4644      	mov	r4, r8
 80007ca:	430c      	orrs	r4, r1
 80007cc:	1e62      	subs	r2, r4, #1
 80007ce:	4194      	sbcs	r4, r2
 80007d0:	18e4      	adds	r4, r4, r3
 80007d2:	429c      	cmp	r4, r3
 80007d4:	419b      	sbcs	r3, r3
 80007d6:	425f      	negs	r7, r3
 80007d8:	183f      	adds	r7, r7, r0
 80007da:	023b      	lsls	r3, r7, #8
 80007dc:	d5e3      	bpl.n	80007a6 <__aeabi_dadd+0x24a>
 80007de:	4b39      	ldr	r3, [pc, #228]	; (80008c4 <__aeabi_dadd+0x368>)
 80007e0:	3601      	adds	r6, #1
 80007e2:	429e      	cmp	r6, r3
 80007e4:	d000      	beq.n	80007e8 <__aeabi_dadd+0x28c>
 80007e6:	e0b5      	b.n	8000954 <__aeabi_dadd+0x3f8>
 80007e8:	0032      	movs	r2, r6
 80007ea:	2700      	movs	r7, #0
 80007ec:	2300      	movs	r3, #0
 80007ee:	e74c      	b.n	800068a <__aeabi_dadd+0x12e>
 80007f0:	0742      	lsls	r2, r0, #29
 80007f2:	08db      	lsrs	r3, r3, #3
 80007f4:	4313      	orrs	r3, r2
 80007f6:	08c0      	lsrs	r0, r0, #3
 80007f8:	001a      	movs	r2, r3
 80007fa:	4302      	orrs	r2, r0
 80007fc:	d100      	bne.n	8000800 <__aeabi_dadd+0x2a4>
 80007fe:	e1e1      	b.n	8000bc4 <__aeabi_dadd+0x668>
 8000800:	2780      	movs	r7, #128	; 0x80
 8000802:	033f      	lsls	r7, r7, #12
 8000804:	4307      	orrs	r7, r0
 8000806:	033f      	lsls	r7, r7, #12
 8000808:	4a2e      	ldr	r2, [pc, #184]	; (80008c4 <__aeabi_dadd+0x368>)
 800080a:	0b3f      	lsrs	r7, r7, #12
 800080c:	e73d      	b.n	800068a <__aeabi_dadd+0x12e>
 800080e:	0020      	movs	r0, r4
 8000810:	f001 fc8a 	bl	8002128 <__clzsi2>
 8000814:	0001      	movs	r1, r0
 8000816:	3118      	adds	r1, #24
 8000818:	291f      	cmp	r1, #31
 800081a:	dc00      	bgt.n	800081e <__aeabi_dadd+0x2c2>
 800081c:	e6fc      	b.n	8000618 <__aeabi_dadd+0xbc>
 800081e:	3808      	subs	r0, #8
 8000820:	4084      	lsls	r4, r0
 8000822:	0027      	movs	r7, r4
 8000824:	2400      	movs	r4, #0
 8000826:	42b1      	cmp	r1, r6
 8000828:	db00      	blt.n	800082c <__aeabi_dadd+0x2d0>
 800082a:	e6ff      	b.n	800062c <__aeabi_dadd+0xd0>
 800082c:	4a26      	ldr	r2, [pc, #152]	; (80008c8 <__aeabi_dadd+0x36c>)
 800082e:	1a76      	subs	r6, r6, r1
 8000830:	4017      	ands	r7, r2
 8000832:	e70d      	b.n	8000650 <__aeabi_dadd+0xf4>
 8000834:	2a00      	cmp	r2, #0
 8000836:	d02f      	beq.n	8000898 <__aeabi_dadd+0x33c>
 8000838:	464a      	mov	r2, r9
 800083a:	1b92      	subs	r2, r2, r6
 800083c:	4694      	mov	ip, r2
 800083e:	2e00      	cmp	r6, #0
 8000840:	d100      	bne.n	8000844 <__aeabi_dadd+0x2e8>
 8000842:	e0ad      	b.n	80009a0 <__aeabi_dadd+0x444>
 8000844:	4a1f      	ldr	r2, [pc, #124]	; (80008c4 <__aeabi_dadd+0x368>)
 8000846:	4591      	cmp	r9, r2
 8000848:	d100      	bne.n	800084c <__aeabi_dadd+0x2f0>
 800084a:	e10f      	b.n	8000a6c <__aeabi_dadd+0x510>
 800084c:	2280      	movs	r2, #128	; 0x80
 800084e:	0412      	lsls	r2, r2, #16
 8000850:	4310      	orrs	r0, r2
 8000852:	4662      	mov	r2, ip
 8000854:	2a38      	cmp	r2, #56	; 0x38
 8000856:	dd00      	ble.n	800085a <__aeabi_dadd+0x2fe>
 8000858:	e10f      	b.n	8000a7a <__aeabi_dadd+0x51e>
 800085a:	2a1f      	cmp	r2, #31
 800085c:	dd00      	ble.n	8000860 <__aeabi_dadd+0x304>
 800085e:	e180      	b.n	8000b62 <__aeabi_dadd+0x606>
 8000860:	4664      	mov	r4, ip
 8000862:	2220      	movs	r2, #32
 8000864:	001e      	movs	r6, r3
 8000866:	1b12      	subs	r2, r2, r4
 8000868:	4667      	mov	r7, ip
 800086a:	0004      	movs	r4, r0
 800086c:	4093      	lsls	r3, r2
 800086e:	4094      	lsls	r4, r2
 8000870:	40fe      	lsrs	r6, r7
 8000872:	1e5a      	subs	r2, r3, #1
 8000874:	4193      	sbcs	r3, r2
 8000876:	40f8      	lsrs	r0, r7
 8000878:	4334      	orrs	r4, r6
 800087a:	431c      	orrs	r4, r3
 800087c:	4480      	add	r8, r0
 800087e:	1864      	adds	r4, r4, r1
 8000880:	428c      	cmp	r4, r1
 8000882:	41bf      	sbcs	r7, r7
 8000884:	427f      	negs	r7, r7
 8000886:	464e      	mov	r6, r9
 8000888:	4447      	add	r7, r8
 800088a:	e7a6      	b.n	80007da <__aeabi_dadd+0x27e>
 800088c:	4642      	mov	r2, r8
 800088e:	430a      	orrs	r2, r1
 8000890:	0011      	movs	r1, r2
 8000892:	1e4a      	subs	r2, r1, #1
 8000894:	4191      	sbcs	r1, r2
 8000896:	e6ad      	b.n	80005f4 <__aeabi_dadd+0x98>
 8000898:	4c0c      	ldr	r4, [pc, #48]	; (80008cc <__aeabi_dadd+0x370>)
 800089a:	1c72      	adds	r2, r6, #1
 800089c:	4222      	tst	r2, r4
 800089e:	d000      	beq.n	80008a2 <__aeabi_dadd+0x346>
 80008a0:	e0a1      	b.n	80009e6 <__aeabi_dadd+0x48a>
 80008a2:	0002      	movs	r2, r0
 80008a4:	431a      	orrs	r2, r3
 80008a6:	2e00      	cmp	r6, #0
 80008a8:	d000      	beq.n	80008ac <__aeabi_dadd+0x350>
 80008aa:	e0fa      	b.n	8000aa2 <__aeabi_dadd+0x546>
 80008ac:	2a00      	cmp	r2, #0
 80008ae:	d100      	bne.n	80008b2 <__aeabi_dadd+0x356>
 80008b0:	e145      	b.n	8000b3e <__aeabi_dadd+0x5e2>
 80008b2:	003a      	movs	r2, r7
 80008b4:	430a      	orrs	r2, r1
 80008b6:	d000      	beq.n	80008ba <__aeabi_dadd+0x35e>
 80008b8:	e146      	b.n	8000b48 <__aeabi_dadd+0x5ec>
 80008ba:	0742      	lsls	r2, r0, #29
 80008bc:	08db      	lsrs	r3, r3, #3
 80008be:	4313      	orrs	r3, r2
 80008c0:	08c0      	lsrs	r0, r0, #3
 80008c2:	e77b      	b.n	80007bc <__aeabi_dadd+0x260>
 80008c4:	000007ff 	.word	0x000007ff
 80008c8:	ff7fffff 	.word	0xff7fffff
 80008cc:	000007fe 	.word	0x000007fe
 80008d0:	4647      	mov	r7, r8
 80008d2:	1a5c      	subs	r4, r3, r1
 80008d4:	1bc2      	subs	r2, r0, r7
 80008d6:	42a3      	cmp	r3, r4
 80008d8:	41bf      	sbcs	r7, r7
 80008da:	427f      	negs	r7, r7
 80008dc:	46b9      	mov	r9, r7
 80008de:	0017      	movs	r7, r2
 80008e0:	464a      	mov	r2, r9
 80008e2:	1abf      	subs	r7, r7, r2
 80008e4:	023a      	lsls	r2, r7, #8
 80008e6:	d500      	bpl.n	80008ea <__aeabi_dadd+0x38e>
 80008e8:	e08d      	b.n	8000a06 <__aeabi_dadd+0x4aa>
 80008ea:	0023      	movs	r3, r4
 80008ec:	433b      	orrs	r3, r7
 80008ee:	d000      	beq.n	80008f2 <__aeabi_dadd+0x396>
 80008f0:	e68a      	b.n	8000608 <__aeabi_dadd+0xac>
 80008f2:	2000      	movs	r0, #0
 80008f4:	2500      	movs	r5, #0
 80008f6:	e761      	b.n	80007bc <__aeabi_dadd+0x260>
 80008f8:	4cb4      	ldr	r4, [pc, #720]	; (8000bcc <__aeabi_dadd+0x670>)
 80008fa:	45a1      	cmp	r9, r4
 80008fc:	d100      	bne.n	8000900 <__aeabi_dadd+0x3a4>
 80008fe:	e0ad      	b.n	8000a5c <__aeabi_dadd+0x500>
 8000900:	2480      	movs	r4, #128	; 0x80
 8000902:	0424      	lsls	r4, r4, #16
 8000904:	4320      	orrs	r0, r4
 8000906:	4664      	mov	r4, ip
 8000908:	2c38      	cmp	r4, #56	; 0x38
 800090a:	dc3d      	bgt.n	8000988 <__aeabi_dadd+0x42c>
 800090c:	4662      	mov	r2, ip
 800090e:	2c1f      	cmp	r4, #31
 8000910:	dd00      	ble.n	8000914 <__aeabi_dadd+0x3b8>
 8000912:	e0b7      	b.n	8000a84 <__aeabi_dadd+0x528>
 8000914:	2520      	movs	r5, #32
 8000916:	001e      	movs	r6, r3
 8000918:	1b2d      	subs	r5, r5, r4
 800091a:	0004      	movs	r4, r0
 800091c:	40ab      	lsls	r3, r5
 800091e:	40ac      	lsls	r4, r5
 8000920:	40d6      	lsrs	r6, r2
 8000922:	40d0      	lsrs	r0, r2
 8000924:	4642      	mov	r2, r8
 8000926:	1e5d      	subs	r5, r3, #1
 8000928:	41ab      	sbcs	r3, r5
 800092a:	4334      	orrs	r4, r6
 800092c:	1a12      	subs	r2, r2, r0
 800092e:	4690      	mov	r8, r2
 8000930:	4323      	orrs	r3, r4
 8000932:	e02c      	b.n	800098e <__aeabi_dadd+0x432>
 8000934:	0742      	lsls	r2, r0, #29
 8000936:	08db      	lsrs	r3, r3, #3
 8000938:	4313      	orrs	r3, r2
 800093a:	08c0      	lsrs	r0, r0, #3
 800093c:	e73b      	b.n	80007b6 <__aeabi_dadd+0x25a>
 800093e:	185c      	adds	r4, r3, r1
 8000940:	429c      	cmp	r4, r3
 8000942:	419b      	sbcs	r3, r3
 8000944:	4440      	add	r0, r8
 8000946:	425b      	negs	r3, r3
 8000948:	18c7      	adds	r7, r0, r3
 800094a:	2601      	movs	r6, #1
 800094c:	023b      	lsls	r3, r7, #8
 800094e:	d400      	bmi.n	8000952 <__aeabi_dadd+0x3f6>
 8000950:	e729      	b.n	80007a6 <__aeabi_dadd+0x24a>
 8000952:	2602      	movs	r6, #2
 8000954:	4a9e      	ldr	r2, [pc, #632]	; (8000bd0 <__aeabi_dadd+0x674>)
 8000956:	0863      	lsrs	r3, r4, #1
 8000958:	4017      	ands	r7, r2
 800095a:	2201      	movs	r2, #1
 800095c:	4014      	ands	r4, r2
 800095e:	431c      	orrs	r4, r3
 8000960:	07fb      	lsls	r3, r7, #31
 8000962:	431c      	orrs	r4, r3
 8000964:	087f      	lsrs	r7, r7, #1
 8000966:	e673      	b.n	8000650 <__aeabi_dadd+0xf4>
 8000968:	4644      	mov	r4, r8
 800096a:	3a20      	subs	r2, #32
 800096c:	40d4      	lsrs	r4, r2
 800096e:	4662      	mov	r2, ip
 8000970:	2a20      	cmp	r2, #32
 8000972:	d005      	beq.n	8000980 <__aeabi_dadd+0x424>
 8000974:	4667      	mov	r7, ip
 8000976:	2240      	movs	r2, #64	; 0x40
 8000978:	1bd2      	subs	r2, r2, r7
 800097a:	4647      	mov	r7, r8
 800097c:	4097      	lsls	r7, r2
 800097e:	4339      	orrs	r1, r7
 8000980:	1e4a      	subs	r2, r1, #1
 8000982:	4191      	sbcs	r1, r2
 8000984:	4321      	orrs	r1, r4
 8000986:	e635      	b.n	80005f4 <__aeabi_dadd+0x98>
 8000988:	4303      	orrs	r3, r0
 800098a:	1e58      	subs	r0, r3, #1
 800098c:	4183      	sbcs	r3, r0
 800098e:	1acc      	subs	r4, r1, r3
 8000990:	42a1      	cmp	r1, r4
 8000992:	41bf      	sbcs	r7, r7
 8000994:	4643      	mov	r3, r8
 8000996:	427f      	negs	r7, r7
 8000998:	4655      	mov	r5, sl
 800099a:	464e      	mov	r6, r9
 800099c:	1bdf      	subs	r7, r3, r7
 800099e:	e62e      	b.n	80005fe <__aeabi_dadd+0xa2>
 80009a0:	0002      	movs	r2, r0
 80009a2:	431a      	orrs	r2, r3
 80009a4:	d100      	bne.n	80009a8 <__aeabi_dadd+0x44c>
 80009a6:	e0bd      	b.n	8000b24 <__aeabi_dadd+0x5c8>
 80009a8:	4662      	mov	r2, ip
 80009aa:	4664      	mov	r4, ip
 80009ac:	3a01      	subs	r2, #1
 80009ae:	2c01      	cmp	r4, #1
 80009b0:	d100      	bne.n	80009b4 <__aeabi_dadd+0x458>
 80009b2:	e0e5      	b.n	8000b80 <__aeabi_dadd+0x624>
 80009b4:	4c85      	ldr	r4, [pc, #532]	; (8000bcc <__aeabi_dadd+0x670>)
 80009b6:	45a4      	cmp	ip, r4
 80009b8:	d058      	beq.n	8000a6c <__aeabi_dadd+0x510>
 80009ba:	4694      	mov	ip, r2
 80009bc:	e749      	b.n	8000852 <__aeabi_dadd+0x2f6>
 80009be:	4664      	mov	r4, ip
 80009c0:	2220      	movs	r2, #32
 80009c2:	1b12      	subs	r2, r2, r4
 80009c4:	4644      	mov	r4, r8
 80009c6:	4094      	lsls	r4, r2
 80009c8:	000f      	movs	r7, r1
 80009ca:	46a1      	mov	r9, r4
 80009cc:	4664      	mov	r4, ip
 80009ce:	4091      	lsls	r1, r2
 80009d0:	40e7      	lsrs	r7, r4
 80009d2:	464c      	mov	r4, r9
 80009d4:	1e4a      	subs	r2, r1, #1
 80009d6:	4191      	sbcs	r1, r2
 80009d8:	433c      	orrs	r4, r7
 80009da:	4642      	mov	r2, r8
 80009dc:	430c      	orrs	r4, r1
 80009de:	4661      	mov	r1, ip
 80009e0:	40ca      	lsrs	r2, r1
 80009e2:	1880      	adds	r0, r0, r2
 80009e4:	e6f4      	b.n	80007d0 <__aeabi_dadd+0x274>
 80009e6:	4c79      	ldr	r4, [pc, #484]	; (8000bcc <__aeabi_dadd+0x670>)
 80009e8:	42a2      	cmp	r2, r4
 80009ea:	d100      	bne.n	80009ee <__aeabi_dadd+0x492>
 80009ec:	e6fd      	b.n	80007ea <__aeabi_dadd+0x28e>
 80009ee:	1859      	adds	r1, r3, r1
 80009f0:	4299      	cmp	r1, r3
 80009f2:	419b      	sbcs	r3, r3
 80009f4:	4440      	add	r0, r8
 80009f6:	425f      	negs	r7, r3
 80009f8:	19c7      	adds	r7, r0, r7
 80009fa:	07fc      	lsls	r4, r7, #31
 80009fc:	0849      	lsrs	r1, r1, #1
 80009fe:	0016      	movs	r6, r2
 8000a00:	430c      	orrs	r4, r1
 8000a02:	087f      	lsrs	r7, r7, #1
 8000a04:	e6cf      	b.n	80007a6 <__aeabi_dadd+0x24a>
 8000a06:	1acc      	subs	r4, r1, r3
 8000a08:	42a1      	cmp	r1, r4
 8000a0a:	41bf      	sbcs	r7, r7
 8000a0c:	4643      	mov	r3, r8
 8000a0e:	427f      	negs	r7, r7
 8000a10:	1a18      	subs	r0, r3, r0
 8000a12:	4655      	mov	r5, sl
 8000a14:	1bc7      	subs	r7, r0, r7
 8000a16:	e5f7      	b.n	8000608 <__aeabi_dadd+0xac>
 8000a18:	08c9      	lsrs	r1, r1, #3
 8000a1a:	077b      	lsls	r3, r7, #29
 8000a1c:	4655      	mov	r5, sl
 8000a1e:	430b      	orrs	r3, r1
 8000a20:	08f8      	lsrs	r0, r7, #3
 8000a22:	e6c8      	b.n	80007b6 <__aeabi_dadd+0x25a>
 8000a24:	2c00      	cmp	r4, #0
 8000a26:	d000      	beq.n	8000a2a <__aeabi_dadd+0x4ce>
 8000a28:	e081      	b.n	8000b2e <__aeabi_dadd+0x5d2>
 8000a2a:	4643      	mov	r3, r8
 8000a2c:	430b      	orrs	r3, r1
 8000a2e:	d115      	bne.n	8000a5c <__aeabi_dadd+0x500>
 8000a30:	2080      	movs	r0, #128	; 0x80
 8000a32:	2500      	movs	r5, #0
 8000a34:	0300      	lsls	r0, r0, #12
 8000a36:	e6e3      	b.n	8000800 <__aeabi_dadd+0x2a4>
 8000a38:	1a5c      	subs	r4, r3, r1
 8000a3a:	42a3      	cmp	r3, r4
 8000a3c:	419b      	sbcs	r3, r3
 8000a3e:	1bc7      	subs	r7, r0, r7
 8000a40:	425b      	negs	r3, r3
 8000a42:	2601      	movs	r6, #1
 8000a44:	1aff      	subs	r7, r7, r3
 8000a46:	e5da      	b.n	80005fe <__aeabi_dadd+0xa2>
 8000a48:	0742      	lsls	r2, r0, #29
 8000a4a:	08db      	lsrs	r3, r3, #3
 8000a4c:	4313      	orrs	r3, r2
 8000a4e:	08c0      	lsrs	r0, r0, #3
 8000a50:	e6d2      	b.n	80007f8 <__aeabi_dadd+0x29c>
 8000a52:	0742      	lsls	r2, r0, #29
 8000a54:	08db      	lsrs	r3, r3, #3
 8000a56:	4313      	orrs	r3, r2
 8000a58:	08c0      	lsrs	r0, r0, #3
 8000a5a:	e6ac      	b.n	80007b6 <__aeabi_dadd+0x25a>
 8000a5c:	4643      	mov	r3, r8
 8000a5e:	4642      	mov	r2, r8
 8000a60:	08c9      	lsrs	r1, r1, #3
 8000a62:	075b      	lsls	r3, r3, #29
 8000a64:	4655      	mov	r5, sl
 8000a66:	430b      	orrs	r3, r1
 8000a68:	08d0      	lsrs	r0, r2, #3
 8000a6a:	e6c5      	b.n	80007f8 <__aeabi_dadd+0x29c>
 8000a6c:	4643      	mov	r3, r8
 8000a6e:	4642      	mov	r2, r8
 8000a70:	075b      	lsls	r3, r3, #29
 8000a72:	08c9      	lsrs	r1, r1, #3
 8000a74:	430b      	orrs	r3, r1
 8000a76:	08d0      	lsrs	r0, r2, #3
 8000a78:	e6be      	b.n	80007f8 <__aeabi_dadd+0x29c>
 8000a7a:	4303      	orrs	r3, r0
 8000a7c:	001c      	movs	r4, r3
 8000a7e:	1e63      	subs	r3, r4, #1
 8000a80:	419c      	sbcs	r4, r3
 8000a82:	e6fc      	b.n	800087e <__aeabi_dadd+0x322>
 8000a84:	0002      	movs	r2, r0
 8000a86:	3c20      	subs	r4, #32
 8000a88:	40e2      	lsrs	r2, r4
 8000a8a:	0014      	movs	r4, r2
 8000a8c:	4662      	mov	r2, ip
 8000a8e:	2a20      	cmp	r2, #32
 8000a90:	d003      	beq.n	8000a9a <__aeabi_dadd+0x53e>
 8000a92:	2540      	movs	r5, #64	; 0x40
 8000a94:	1aad      	subs	r5, r5, r2
 8000a96:	40a8      	lsls	r0, r5
 8000a98:	4303      	orrs	r3, r0
 8000a9a:	1e58      	subs	r0, r3, #1
 8000a9c:	4183      	sbcs	r3, r0
 8000a9e:	4323      	orrs	r3, r4
 8000aa0:	e775      	b.n	800098e <__aeabi_dadd+0x432>
 8000aa2:	2a00      	cmp	r2, #0
 8000aa4:	d0e2      	beq.n	8000a6c <__aeabi_dadd+0x510>
 8000aa6:	003a      	movs	r2, r7
 8000aa8:	430a      	orrs	r2, r1
 8000aaa:	d0cd      	beq.n	8000a48 <__aeabi_dadd+0x4ec>
 8000aac:	0742      	lsls	r2, r0, #29
 8000aae:	08db      	lsrs	r3, r3, #3
 8000ab0:	4313      	orrs	r3, r2
 8000ab2:	2280      	movs	r2, #128	; 0x80
 8000ab4:	08c0      	lsrs	r0, r0, #3
 8000ab6:	0312      	lsls	r2, r2, #12
 8000ab8:	4210      	tst	r0, r2
 8000aba:	d006      	beq.n	8000aca <__aeabi_dadd+0x56e>
 8000abc:	08fc      	lsrs	r4, r7, #3
 8000abe:	4214      	tst	r4, r2
 8000ac0:	d103      	bne.n	8000aca <__aeabi_dadd+0x56e>
 8000ac2:	0020      	movs	r0, r4
 8000ac4:	08cb      	lsrs	r3, r1, #3
 8000ac6:	077a      	lsls	r2, r7, #29
 8000ac8:	4313      	orrs	r3, r2
 8000aca:	0f5a      	lsrs	r2, r3, #29
 8000acc:	00db      	lsls	r3, r3, #3
 8000ace:	0752      	lsls	r2, r2, #29
 8000ad0:	08db      	lsrs	r3, r3, #3
 8000ad2:	4313      	orrs	r3, r2
 8000ad4:	e690      	b.n	80007f8 <__aeabi_dadd+0x29c>
 8000ad6:	4643      	mov	r3, r8
 8000ad8:	430b      	orrs	r3, r1
 8000ada:	d100      	bne.n	8000ade <__aeabi_dadd+0x582>
 8000adc:	e709      	b.n	80008f2 <__aeabi_dadd+0x396>
 8000ade:	4643      	mov	r3, r8
 8000ae0:	4642      	mov	r2, r8
 8000ae2:	08c9      	lsrs	r1, r1, #3
 8000ae4:	075b      	lsls	r3, r3, #29
 8000ae6:	4655      	mov	r5, sl
 8000ae8:	430b      	orrs	r3, r1
 8000aea:	08d0      	lsrs	r0, r2, #3
 8000aec:	e666      	b.n	80007bc <__aeabi_dadd+0x260>
 8000aee:	1acc      	subs	r4, r1, r3
 8000af0:	42a1      	cmp	r1, r4
 8000af2:	4189      	sbcs	r1, r1
 8000af4:	1a3f      	subs	r7, r7, r0
 8000af6:	4249      	negs	r1, r1
 8000af8:	4655      	mov	r5, sl
 8000afa:	2601      	movs	r6, #1
 8000afc:	1a7f      	subs	r7, r7, r1
 8000afe:	e57e      	b.n	80005fe <__aeabi_dadd+0xa2>
 8000b00:	4642      	mov	r2, r8
 8000b02:	1a5c      	subs	r4, r3, r1
 8000b04:	1a87      	subs	r7, r0, r2
 8000b06:	42a3      	cmp	r3, r4
 8000b08:	4192      	sbcs	r2, r2
 8000b0a:	4252      	negs	r2, r2
 8000b0c:	1abf      	subs	r7, r7, r2
 8000b0e:	023a      	lsls	r2, r7, #8
 8000b10:	d53d      	bpl.n	8000b8e <__aeabi_dadd+0x632>
 8000b12:	1acc      	subs	r4, r1, r3
 8000b14:	42a1      	cmp	r1, r4
 8000b16:	4189      	sbcs	r1, r1
 8000b18:	4643      	mov	r3, r8
 8000b1a:	4249      	negs	r1, r1
 8000b1c:	1a1f      	subs	r7, r3, r0
 8000b1e:	4655      	mov	r5, sl
 8000b20:	1a7f      	subs	r7, r7, r1
 8000b22:	e595      	b.n	8000650 <__aeabi_dadd+0xf4>
 8000b24:	077b      	lsls	r3, r7, #29
 8000b26:	08c9      	lsrs	r1, r1, #3
 8000b28:	430b      	orrs	r3, r1
 8000b2a:	08f8      	lsrs	r0, r7, #3
 8000b2c:	e643      	b.n	80007b6 <__aeabi_dadd+0x25a>
 8000b2e:	4644      	mov	r4, r8
 8000b30:	08db      	lsrs	r3, r3, #3
 8000b32:	430c      	orrs	r4, r1
 8000b34:	d130      	bne.n	8000b98 <__aeabi_dadd+0x63c>
 8000b36:	0742      	lsls	r2, r0, #29
 8000b38:	4313      	orrs	r3, r2
 8000b3a:	08c0      	lsrs	r0, r0, #3
 8000b3c:	e65c      	b.n	80007f8 <__aeabi_dadd+0x29c>
 8000b3e:	077b      	lsls	r3, r7, #29
 8000b40:	08c9      	lsrs	r1, r1, #3
 8000b42:	430b      	orrs	r3, r1
 8000b44:	08f8      	lsrs	r0, r7, #3
 8000b46:	e639      	b.n	80007bc <__aeabi_dadd+0x260>
 8000b48:	185c      	adds	r4, r3, r1
 8000b4a:	429c      	cmp	r4, r3
 8000b4c:	419b      	sbcs	r3, r3
 8000b4e:	4440      	add	r0, r8
 8000b50:	425b      	negs	r3, r3
 8000b52:	18c7      	adds	r7, r0, r3
 8000b54:	023b      	lsls	r3, r7, #8
 8000b56:	d400      	bmi.n	8000b5a <__aeabi_dadd+0x5fe>
 8000b58:	e625      	b.n	80007a6 <__aeabi_dadd+0x24a>
 8000b5a:	4b1d      	ldr	r3, [pc, #116]	; (8000bd0 <__aeabi_dadd+0x674>)
 8000b5c:	2601      	movs	r6, #1
 8000b5e:	401f      	ands	r7, r3
 8000b60:	e621      	b.n	80007a6 <__aeabi_dadd+0x24a>
 8000b62:	0004      	movs	r4, r0
 8000b64:	3a20      	subs	r2, #32
 8000b66:	40d4      	lsrs	r4, r2
 8000b68:	4662      	mov	r2, ip
 8000b6a:	2a20      	cmp	r2, #32
 8000b6c:	d004      	beq.n	8000b78 <__aeabi_dadd+0x61c>
 8000b6e:	2240      	movs	r2, #64	; 0x40
 8000b70:	4666      	mov	r6, ip
 8000b72:	1b92      	subs	r2, r2, r6
 8000b74:	4090      	lsls	r0, r2
 8000b76:	4303      	orrs	r3, r0
 8000b78:	1e5a      	subs	r2, r3, #1
 8000b7a:	4193      	sbcs	r3, r2
 8000b7c:	431c      	orrs	r4, r3
 8000b7e:	e67e      	b.n	800087e <__aeabi_dadd+0x322>
 8000b80:	185c      	adds	r4, r3, r1
 8000b82:	428c      	cmp	r4, r1
 8000b84:	4189      	sbcs	r1, r1
 8000b86:	4440      	add	r0, r8
 8000b88:	4249      	negs	r1, r1
 8000b8a:	1847      	adds	r7, r0, r1
 8000b8c:	e6dd      	b.n	800094a <__aeabi_dadd+0x3ee>
 8000b8e:	0023      	movs	r3, r4
 8000b90:	433b      	orrs	r3, r7
 8000b92:	d100      	bne.n	8000b96 <__aeabi_dadd+0x63a>
 8000b94:	e6ad      	b.n	80008f2 <__aeabi_dadd+0x396>
 8000b96:	e606      	b.n	80007a6 <__aeabi_dadd+0x24a>
 8000b98:	0744      	lsls	r4, r0, #29
 8000b9a:	4323      	orrs	r3, r4
 8000b9c:	2480      	movs	r4, #128	; 0x80
 8000b9e:	08c0      	lsrs	r0, r0, #3
 8000ba0:	0324      	lsls	r4, r4, #12
 8000ba2:	4220      	tst	r0, r4
 8000ba4:	d008      	beq.n	8000bb8 <__aeabi_dadd+0x65c>
 8000ba6:	4642      	mov	r2, r8
 8000ba8:	08d6      	lsrs	r6, r2, #3
 8000baa:	4226      	tst	r6, r4
 8000bac:	d104      	bne.n	8000bb8 <__aeabi_dadd+0x65c>
 8000bae:	4655      	mov	r5, sl
 8000bb0:	0030      	movs	r0, r6
 8000bb2:	08cb      	lsrs	r3, r1, #3
 8000bb4:	0751      	lsls	r1, r2, #29
 8000bb6:	430b      	orrs	r3, r1
 8000bb8:	0f5a      	lsrs	r2, r3, #29
 8000bba:	00db      	lsls	r3, r3, #3
 8000bbc:	08db      	lsrs	r3, r3, #3
 8000bbe:	0752      	lsls	r2, r2, #29
 8000bc0:	4313      	orrs	r3, r2
 8000bc2:	e619      	b.n	80007f8 <__aeabi_dadd+0x29c>
 8000bc4:	2300      	movs	r3, #0
 8000bc6:	4a01      	ldr	r2, [pc, #4]	; (8000bcc <__aeabi_dadd+0x670>)
 8000bc8:	001f      	movs	r7, r3
 8000bca:	e55e      	b.n	800068a <__aeabi_dadd+0x12e>
 8000bcc:	000007ff 	.word	0x000007ff
 8000bd0:	ff7fffff 	.word	0xff7fffff

08000bd4 <__aeabi_ddiv>:
 8000bd4:	b5f0      	push	{r4, r5, r6, r7, lr}
 8000bd6:	4657      	mov	r7, sl
 8000bd8:	464e      	mov	r6, r9
 8000bda:	4645      	mov	r5, r8
 8000bdc:	46de      	mov	lr, fp
 8000bde:	b5e0      	push	{r5, r6, r7, lr}
 8000be0:	4681      	mov	r9, r0
 8000be2:	0005      	movs	r5, r0
 8000be4:	030c      	lsls	r4, r1, #12
 8000be6:	0048      	lsls	r0, r1, #1
 8000be8:	4692      	mov	sl, r2
 8000bea:	001f      	movs	r7, r3
 8000bec:	b085      	sub	sp, #20
 8000bee:	0b24      	lsrs	r4, r4, #12
 8000bf0:	0d40      	lsrs	r0, r0, #21
 8000bf2:	0fce      	lsrs	r6, r1, #31
 8000bf4:	2800      	cmp	r0, #0
 8000bf6:	d100      	bne.n	8000bfa <__aeabi_ddiv+0x26>
 8000bf8:	e156      	b.n	8000ea8 <__aeabi_ddiv+0x2d4>
 8000bfa:	4bd4      	ldr	r3, [pc, #848]	; (8000f4c <__aeabi_ddiv+0x378>)
 8000bfc:	4298      	cmp	r0, r3
 8000bfe:	d100      	bne.n	8000c02 <__aeabi_ddiv+0x2e>
 8000c00:	e172      	b.n	8000ee8 <__aeabi_ddiv+0x314>
 8000c02:	0f6b      	lsrs	r3, r5, #29
 8000c04:	00e4      	lsls	r4, r4, #3
 8000c06:	431c      	orrs	r4, r3
 8000c08:	2380      	movs	r3, #128	; 0x80
 8000c0a:	041b      	lsls	r3, r3, #16
 8000c0c:	4323      	orrs	r3, r4
 8000c0e:	4698      	mov	r8, r3
 8000c10:	4bcf      	ldr	r3, [pc, #828]	; (8000f50 <__aeabi_ddiv+0x37c>)
 8000c12:	00ed      	lsls	r5, r5, #3
 8000c14:	469b      	mov	fp, r3
 8000c16:	2300      	movs	r3, #0
 8000c18:	4699      	mov	r9, r3
 8000c1a:	4483      	add	fp, r0
 8000c1c:	9300      	str	r3, [sp, #0]
 8000c1e:	033c      	lsls	r4, r7, #12
 8000c20:	007b      	lsls	r3, r7, #1
 8000c22:	4650      	mov	r0, sl
 8000c24:	0b24      	lsrs	r4, r4, #12
 8000c26:	0d5b      	lsrs	r3, r3, #21
 8000c28:	0fff      	lsrs	r7, r7, #31
 8000c2a:	2b00      	cmp	r3, #0
 8000c2c:	d100      	bne.n	8000c30 <__aeabi_ddiv+0x5c>
 8000c2e:	e11f      	b.n	8000e70 <__aeabi_ddiv+0x29c>
 8000c30:	4ac6      	ldr	r2, [pc, #792]	; (8000f4c <__aeabi_ddiv+0x378>)
 8000c32:	4293      	cmp	r3, r2
 8000c34:	d100      	bne.n	8000c38 <__aeabi_ddiv+0x64>
 8000c36:	e162      	b.n	8000efe <__aeabi_ddiv+0x32a>
 8000c38:	49c5      	ldr	r1, [pc, #788]	; (8000f50 <__aeabi_ddiv+0x37c>)
 8000c3a:	0f42      	lsrs	r2, r0, #29
 8000c3c:	468c      	mov	ip, r1
 8000c3e:	00e4      	lsls	r4, r4, #3
 8000c40:	4659      	mov	r1, fp
 8000c42:	4314      	orrs	r4, r2
 8000c44:	2280      	movs	r2, #128	; 0x80
 8000c46:	4463      	add	r3, ip
 8000c48:	0412      	lsls	r2, r2, #16
 8000c4a:	1acb      	subs	r3, r1, r3
 8000c4c:	4314      	orrs	r4, r2
 8000c4e:	469b      	mov	fp, r3
 8000c50:	00c2      	lsls	r2, r0, #3
 8000c52:	2000      	movs	r0, #0
 8000c54:	0033      	movs	r3, r6
 8000c56:	407b      	eors	r3, r7
 8000c58:	469a      	mov	sl, r3
 8000c5a:	464b      	mov	r3, r9
 8000c5c:	2b0f      	cmp	r3, #15
 8000c5e:	d827      	bhi.n	8000cb0 <__aeabi_ddiv+0xdc>
 8000c60:	49bc      	ldr	r1, [pc, #752]	; (8000f54 <__aeabi_ddiv+0x380>)
 8000c62:	009b      	lsls	r3, r3, #2
 8000c64:	58cb      	ldr	r3, [r1, r3]
 8000c66:	469f      	mov	pc, r3
 8000c68:	46b2      	mov	sl, r6
 8000c6a:	9b00      	ldr	r3, [sp, #0]
 8000c6c:	2b02      	cmp	r3, #2
 8000c6e:	d016      	beq.n	8000c9e <__aeabi_ddiv+0xca>
 8000c70:	2b03      	cmp	r3, #3
 8000c72:	d100      	bne.n	8000c76 <__aeabi_ddiv+0xa2>
 8000c74:	e28e      	b.n	8001194 <__aeabi_ddiv+0x5c0>
 8000c76:	2b01      	cmp	r3, #1
 8000c78:	d000      	beq.n	8000c7c <__aeabi_ddiv+0xa8>
 8000c7a:	e0d9      	b.n	8000e30 <__aeabi_ddiv+0x25c>
 8000c7c:	2300      	movs	r3, #0
 8000c7e:	2400      	movs	r4, #0
 8000c80:	2500      	movs	r5, #0
 8000c82:	4652      	mov	r2, sl
 8000c84:	051b      	lsls	r3, r3, #20
 8000c86:	4323      	orrs	r3, r4
 8000c88:	07d2      	lsls	r2, r2, #31
 8000c8a:	4313      	orrs	r3, r2
 8000c8c:	0028      	movs	r0, r5
 8000c8e:	0019      	movs	r1, r3
 8000c90:	b005      	add	sp, #20
 8000c92:	bcf0      	pop	{r4, r5, r6, r7}
 8000c94:	46bb      	mov	fp, r7
 8000c96:	46b2      	mov	sl, r6
 8000c98:	46a9      	mov	r9, r5
 8000c9a:	46a0      	mov	r8, r4
 8000c9c:	bdf0      	pop	{r4, r5, r6, r7, pc}
 8000c9e:	2400      	movs	r4, #0
 8000ca0:	2500      	movs	r5, #0
 8000ca2:	4baa      	ldr	r3, [pc, #680]	; (8000f4c <__aeabi_ddiv+0x378>)
 8000ca4:	e7ed      	b.n	8000c82 <__aeabi_ddiv+0xae>
 8000ca6:	46ba      	mov	sl, r7
 8000ca8:	46a0      	mov	r8, r4
 8000caa:	0015      	movs	r5, r2
 8000cac:	9000      	str	r0, [sp, #0]
 8000cae:	e7dc      	b.n	8000c6a <__aeabi_ddiv+0x96>
 8000cb0:	4544      	cmp	r4, r8
 8000cb2:	d200      	bcs.n	8000cb6 <__aeabi_ddiv+0xe2>
 8000cb4:	e1c7      	b.n	8001046 <__aeabi_ddiv+0x472>
 8000cb6:	d100      	bne.n	8000cba <__aeabi_ddiv+0xe6>
 8000cb8:	e1c2      	b.n	8001040 <__aeabi_ddiv+0x46c>
 8000cba:	2301      	movs	r3, #1
 8000cbc:	425b      	negs	r3, r3
 8000cbe:	469c      	mov	ip, r3
 8000cc0:	002e      	movs	r6, r5
 8000cc2:	4640      	mov	r0, r8
 8000cc4:	2500      	movs	r5, #0
 8000cc6:	44e3      	add	fp, ip
 8000cc8:	0223      	lsls	r3, r4, #8
 8000cca:	0e14      	lsrs	r4, r2, #24
 8000ccc:	431c      	orrs	r4, r3
 8000cce:	0c1b      	lsrs	r3, r3, #16
 8000cd0:	4699      	mov	r9, r3
 8000cd2:	0423      	lsls	r3, r4, #16
 8000cd4:	0c1f      	lsrs	r7, r3, #16
 8000cd6:	0212      	lsls	r2, r2, #8
 8000cd8:	4649      	mov	r1, r9
 8000cda:	9200      	str	r2, [sp, #0]
 8000cdc:	9701      	str	r7, [sp, #4]
 8000cde:	f7ff faa3 	bl	8000228 <__aeabi_uidivmod>
 8000ce2:	0002      	movs	r2, r0
 8000ce4:	437a      	muls	r2, r7
 8000ce6:	040b      	lsls	r3, r1, #16
 8000ce8:	0c31      	lsrs	r1, r6, #16
 8000cea:	4680      	mov	r8, r0
 8000cec:	4319      	orrs	r1, r3
 8000cee:	428a      	cmp	r2, r1
 8000cf0:	d907      	bls.n	8000d02 <__aeabi_ddiv+0x12e>
 8000cf2:	2301      	movs	r3, #1
 8000cf4:	425b      	negs	r3, r3
 8000cf6:	469c      	mov	ip, r3
 8000cf8:	1909      	adds	r1, r1, r4
 8000cfa:	44e0      	add	r8, ip
 8000cfc:	428c      	cmp	r4, r1
 8000cfe:	d800      	bhi.n	8000d02 <__aeabi_ddiv+0x12e>
 8000d00:	e207      	b.n	8001112 <__aeabi_ddiv+0x53e>
 8000d02:	1a88      	subs	r0, r1, r2
 8000d04:	4649      	mov	r1, r9
 8000d06:	f7ff fa8f 	bl	8000228 <__aeabi_uidivmod>
 8000d0a:	0409      	lsls	r1, r1, #16
 8000d0c:	468c      	mov	ip, r1
 8000d0e:	0431      	lsls	r1, r6, #16
 8000d10:	4666      	mov	r6, ip
 8000d12:	9a01      	ldr	r2, [sp, #4]
 8000d14:	0c09      	lsrs	r1, r1, #16
 8000d16:	4342      	muls	r2, r0
 8000d18:	0003      	movs	r3, r0
 8000d1a:	4331      	orrs	r1, r6
 8000d1c:	428a      	cmp	r2, r1
 8000d1e:	d904      	bls.n	8000d2a <__aeabi_ddiv+0x156>
 8000d20:	1909      	adds	r1, r1, r4
 8000d22:	3b01      	subs	r3, #1
 8000d24:	428c      	cmp	r4, r1
 8000d26:	d800      	bhi.n	8000d2a <__aeabi_ddiv+0x156>
 8000d28:	e1ed      	b.n	8001106 <__aeabi_ddiv+0x532>
 8000d2a:	1a88      	subs	r0, r1, r2
 8000d2c:	4642      	mov	r2, r8
 8000d2e:	0412      	lsls	r2, r2, #16
 8000d30:	431a      	orrs	r2, r3
 8000d32:	4690      	mov	r8, r2
 8000d34:	4641      	mov	r1, r8
 8000d36:	9b00      	ldr	r3, [sp, #0]
 8000d38:	040e      	lsls	r6, r1, #16
 8000d3a:	0c1b      	lsrs	r3, r3, #16
 8000d3c:	001f      	movs	r7, r3
 8000d3e:	9302      	str	r3, [sp, #8]
 8000d40:	9b00      	ldr	r3, [sp, #0]
 8000d42:	0c36      	lsrs	r6, r6, #16
 8000d44:	041b      	lsls	r3, r3, #16
 8000d46:	0c19      	lsrs	r1, r3, #16
 8000d48:	000b      	movs	r3, r1
 8000d4a:	4373      	muls	r3, r6
 8000d4c:	0c12      	lsrs	r2, r2, #16
 8000d4e:	437e      	muls	r6, r7
 8000d50:	9103      	str	r1, [sp, #12]
 8000d52:	4351      	muls	r1, r2
 8000d54:	437a      	muls	r2, r7
 8000d56:	0c1f      	lsrs	r7, r3, #16
 8000d58:	46bc      	mov	ip, r7
 8000d5a:	1876      	adds	r6, r6, r1
 8000d5c:	4466      	add	r6, ip
 8000d5e:	42b1      	cmp	r1, r6
 8000d60:	d903      	bls.n	8000d6a <__aeabi_ddiv+0x196>
 8000d62:	2180      	movs	r1, #128	; 0x80
 8000d64:	0249      	lsls	r1, r1, #9
 8000d66:	468c      	mov	ip, r1
 8000d68:	4462      	add	r2, ip
 8000d6a:	0c31      	lsrs	r1, r6, #16
 8000d6c:	188a      	adds	r2, r1, r2
 8000d6e:	0431      	lsls	r1, r6, #16
 8000d70:	041e      	lsls	r6, r3, #16
 8000d72:	0c36      	lsrs	r6, r6, #16
 8000d74:	198e      	adds	r6, r1, r6
 8000d76:	4290      	cmp	r0, r2
 8000d78:	d302      	bcc.n	8000d80 <__aeabi_ddiv+0x1ac>
 8000d7a:	d112      	bne.n	8000da2 <__aeabi_ddiv+0x1ce>
 8000d7c:	42b5      	cmp	r5, r6
 8000d7e:	d210      	bcs.n	8000da2 <__aeabi_ddiv+0x1ce>
 8000d80:	4643      	mov	r3, r8
 8000d82:	1e59      	subs	r1, r3, #1
 8000d84:	9b00      	ldr	r3, [sp, #0]
 8000d86:	469c      	mov	ip, r3
 8000d88:	4465      	add	r5, ip
 8000d8a:	001f      	movs	r7, r3
 8000d8c:	429d      	cmp	r5, r3
 8000d8e:	419b      	sbcs	r3, r3
 8000d90:	425b      	negs	r3, r3
 8000d92:	191b      	adds	r3, r3, r4
 8000d94:	18c0      	adds	r0, r0, r3
 8000d96:	4284      	cmp	r4, r0
 8000d98:	d200      	bcs.n	8000d9c <__aeabi_ddiv+0x1c8>
 8000d9a:	e1a0      	b.n	80010de <__aeabi_ddiv+0x50a>
 8000d9c:	d100      	bne.n	8000da0 <__aeabi_ddiv+0x1cc>
 8000d9e:	e19b      	b.n	80010d8 <__aeabi_ddiv+0x504>
 8000da0:	4688      	mov	r8, r1
 8000da2:	1bae      	subs	r6, r5, r6
 8000da4:	42b5      	cmp	r5, r6
 8000da6:	41ad      	sbcs	r5, r5
 8000da8:	1a80      	subs	r0, r0, r2
 8000daa:	426d      	negs	r5, r5
 8000dac:	1b40      	subs	r0, r0, r5
 8000dae:	4284      	cmp	r4, r0
 8000db0:	d100      	bne.n	8000db4 <__aeabi_ddiv+0x1e0>
 8000db2:	e1d5      	b.n	8001160 <__aeabi_ddiv+0x58c>
 8000db4:	4649      	mov	r1, r9
 8000db6:	f7ff fa37 	bl	8000228 <__aeabi_uidivmod>
 8000dba:	9a01      	ldr	r2, [sp, #4]
 8000dbc:	040b      	lsls	r3, r1, #16
 8000dbe:	4342      	muls	r2, r0
 8000dc0:	0c31      	lsrs	r1, r6, #16
 8000dc2:	0005      	movs	r5, r0
 8000dc4:	4319      	orrs	r1, r3
 8000dc6:	428a      	cmp	r2, r1
 8000dc8:	d900      	bls.n	8000dcc <__aeabi_ddiv+0x1f8>
 8000dca:	e16c      	b.n	80010a6 <__aeabi_ddiv+0x4d2>
 8000dcc:	1a88      	subs	r0, r1, r2
 8000dce:	4649      	mov	r1, r9
 8000dd0:	f7ff fa2a 	bl	8000228 <__aeabi_uidivmod>
 8000dd4:	9a01      	ldr	r2, [sp, #4]
 8000dd6:	0436      	lsls	r6, r6, #16
 8000dd8:	4342      	muls	r2, r0
 8000dda:	0409      	lsls	r1, r1, #16
 8000ddc:	0c36      	lsrs	r6, r6, #16
 8000dde:	0003      	movs	r3, r0
 8000de0:	430e      	orrs	r6, r1
 8000de2:	42b2      	cmp	r2, r6
 8000de4:	d900      	bls.n	8000de8 <__aeabi_ddiv+0x214>
 8000de6:	e153      	b.n	8001090 <__aeabi_ddiv+0x4bc>
 8000de8:	9803      	ldr	r0, [sp, #12]
 8000dea:	1ab6      	subs	r6, r6, r2
 8000dec:	0002      	movs	r2, r0
 8000dee:	042d      	lsls	r5, r5, #16
 8000df0:	431d      	orrs	r5, r3
 8000df2:	9f02      	ldr	r7, [sp, #8]
 8000df4:	042b      	lsls	r3, r5, #16
 8000df6:	0c1b      	lsrs	r3, r3, #16
 8000df8:	435a      	muls	r2, r3
 8000dfa:	437b      	muls	r3, r7
 8000dfc:	469c      	mov	ip, r3
 8000dfe:	0c29      	lsrs	r1, r5, #16
 8000e00:	4348      	muls	r0, r1
 8000e02:	0c13      	lsrs	r3, r2, #16
 8000e04:	4484      	add	ip, r0
 8000e06:	4463      	add	r3, ip
 8000e08:	4379      	muls	r1, r7
 8000e0a:	4298      	cmp	r0, r3
 8000e0c:	d903      	bls.n	8000e16 <__aeabi_ddiv+0x242>
 8000e0e:	2080      	movs	r0, #128	; 0x80
 8000e10:	0240      	lsls	r0, r0, #9
 8000e12:	4684      	mov	ip, r0
 8000e14:	4461      	add	r1, ip
 8000e16:	0c18      	lsrs	r0, r3, #16
 8000e18:	0412      	lsls	r2, r2, #16
 8000e1a:	041b      	lsls	r3, r3, #16
 8000e1c:	0c12      	lsrs	r2, r2, #16
 8000e1e:	1841      	adds	r1, r0, r1
 8000e20:	189b      	adds	r3, r3, r2
 8000e22:	428e      	cmp	r6, r1
 8000e24:	d200      	bcs.n	8000e28 <__aeabi_ddiv+0x254>
 8000e26:	e0ff      	b.n	8001028 <__aeabi_ddiv+0x454>
 8000e28:	d100      	bne.n	8000e2c <__aeabi_ddiv+0x258>
 8000e2a:	e0fa      	b.n	8001022 <__aeabi_ddiv+0x44e>
 8000e2c:	2301      	movs	r3, #1
 8000e2e:	431d      	orrs	r5, r3
 8000e30:	4a49      	ldr	r2, [pc, #292]	; (8000f58 <__aeabi_ddiv+0x384>)
 8000e32:	445a      	add	r2, fp
 8000e34:	2a00      	cmp	r2, #0
 8000e36:	dc00      	bgt.n	8000e3a <__aeabi_ddiv+0x266>
 8000e38:	e0aa      	b.n	8000f90 <__aeabi_ddiv+0x3bc>
 8000e3a:	076b      	lsls	r3, r5, #29
 8000e3c:	d000      	beq.n	8000e40 <__aeabi_ddiv+0x26c>
 8000e3e:	e13d      	b.n	80010bc <__aeabi_ddiv+0x4e8>
 8000e40:	08ed      	lsrs	r5, r5, #3
 8000e42:	4643      	mov	r3, r8
 8000e44:	01db      	lsls	r3, r3, #7
 8000e46:	d506      	bpl.n	8000e56 <__aeabi_ddiv+0x282>
 8000e48:	4642      	mov	r2, r8
 8000e4a:	4b44      	ldr	r3, [pc, #272]	; (8000f5c <__aeabi_ddiv+0x388>)
 8000e4c:	401a      	ands	r2, r3
 8000e4e:	4690      	mov	r8, r2
 8000e50:	2280      	movs	r2, #128	; 0x80
 8000e52:	00d2      	lsls	r2, r2, #3
 8000e54:	445a      	add	r2, fp
 8000e56:	4b42      	ldr	r3, [pc, #264]	; (8000f60 <__aeabi_ddiv+0x38c>)
 8000e58:	429a      	cmp	r2, r3
 8000e5a:	dd00      	ble.n	8000e5e <__aeabi_ddiv+0x28a>
 8000e5c:	e71f      	b.n	8000c9e <__aeabi_ddiv+0xca>
 8000e5e:	4643      	mov	r3, r8
 8000e60:	075b      	lsls	r3, r3, #29
 8000e62:	431d      	orrs	r5, r3
 8000e64:	4643      	mov	r3, r8
 8000e66:	0552      	lsls	r2, r2, #21
 8000e68:	025c      	lsls	r4, r3, #9
 8000e6a:	0b24      	lsrs	r4, r4, #12
 8000e6c:	0d53      	lsrs	r3, r2, #21
 8000e6e:	e708      	b.n	8000c82 <__aeabi_ddiv+0xae>
 8000e70:	4652      	mov	r2, sl
 8000e72:	4322      	orrs	r2, r4
 8000e74:	d100      	bne.n	8000e78 <__aeabi_ddiv+0x2a4>
 8000e76:	e07b      	b.n	8000f70 <__aeabi_ddiv+0x39c>
 8000e78:	2c00      	cmp	r4, #0
 8000e7a:	d100      	bne.n	8000e7e <__aeabi_ddiv+0x2aa>
 8000e7c:	e0fa      	b.n	8001074 <__aeabi_ddiv+0x4a0>
 8000e7e:	0020      	movs	r0, r4
 8000e80:	f001 f952 	bl	8002128 <__clzsi2>
 8000e84:	0002      	movs	r2, r0
 8000e86:	3a0b      	subs	r2, #11
 8000e88:	231d      	movs	r3, #29
 8000e8a:	0001      	movs	r1, r0
 8000e8c:	1a9b      	subs	r3, r3, r2
 8000e8e:	4652      	mov	r2, sl
 8000e90:	3908      	subs	r1, #8
 8000e92:	40da      	lsrs	r2, r3
 8000e94:	408c      	lsls	r4, r1
 8000e96:	4314      	orrs	r4, r2
 8000e98:	4652      	mov	r2, sl
 8000e9a:	408a      	lsls	r2, r1
 8000e9c:	4b31      	ldr	r3, [pc, #196]	; (8000f64 <__aeabi_ddiv+0x390>)
 8000e9e:	4458      	add	r0, fp
 8000ea0:	469b      	mov	fp, r3
 8000ea2:	4483      	add	fp, r0
 8000ea4:	2000      	movs	r0, #0
 8000ea6:	e6d5      	b.n	8000c54 <__aeabi_ddiv+0x80>
 8000ea8:	464b      	mov	r3, r9
 8000eaa:	4323      	orrs	r3, r4
 8000eac:	4698      	mov	r8, r3
 8000eae:	d044      	beq.n	8000f3a <__aeabi_ddiv+0x366>
 8000eb0:	2c00      	cmp	r4, #0
 8000eb2:	d100      	bne.n	8000eb6 <__aeabi_ddiv+0x2e2>
 8000eb4:	e0ce      	b.n	8001054 <__aeabi_ddiv+0x480>
 8000eb6:	0020      	movs	r0, r4
 8000eb8:	f001 f936 	bl	8002128 <__clzsi2>
 8000ebc:	0001      	movs	r1, r0
 8000ebe:	0002      	movs	r2, r0
 8000ec0:	390b      	subs	r1, #11
 8000ec2:	231d      	movs	r3, #29
 8000ec4:	1a5b      	subs	r3, r3, r1
 8000ec6:	4649      	mov	r1, r9
 8000ec8:	0010      	movs	r0, r2
 8000eca:	40d9      	lsrs	r1, r3
 8000ecc:	3808      	subs	r0, #8
 8000ece:	4084      	lsls	r4, r0
 8000ed0:	000b      	movs	r3, r1
 8000ed2:	464d      	mov	r5, r9
 8000ed4:	4323      	orrs	r3, r4
 8000ed6:	4698      	mov	r8, r3
 8000ed8:	4085      	lsls	r5, r0
 8000eda:	4823      	ldr	r0, [pc, #140]	; (8000f68 <__aeabi_ddiv+0x394>)
 8000edc:	1a83      	subs	r3, r0, r2
 8000ede:	469b      	mov	fp, r3
 8000ee0:	2300      	movs	r3, #0
 8000ee2:	4699      	mov	r9, r3
 8000ee4:	9300      	str	r3, [sp, #0]
 8000ee6:	e69a      	b.n	8000c1e <__aeabi_ddiv+0x4a>
 8000ee8:	464b      	mov	r3, r9
 8000eea:	4323      	orrs	r3, r4
 8000eec:	4698      	mov	r8, r3
 8000eee:	d11d      	bne.n	8000f2c <__aeabi_ddiv+0x358>
 8000ef0:	2308      	movs	r3, #8
 8000ef2:	4699      	mov	r9, r3
 8000ef4:	3b06      	subs	r3, #6
 8000ef6:	2500      	movs	r5, #0
 8000ef8:	4683      	mov	fp, r0
 8000efa:	9300      	str	r3, [sp, #0]
 8000efc:	e68f      	b.n	8000c1e <__aeabi_ddiv+0x4a>
 8000efe:	4652      	mov	r2, sl
 8000f00:	4322      	orrs	r2, r4
 8000f02:	d109      	bne.n	8000f18 <__aeabi_ddiv+0x344>
 8000f04:	2302      	movs	r3, #2
 8000f06:	4649      	mov	r1, r9
 8000f08:	4319      	orrs	r1, r3
 8000f0a:	4b18      	ldr	r3, [pc, #96]	; (8000f6c <__aeabi_ddiv+0x398>)
 8000f0c:	4689      	mov	r9, r1
 8000f0e:	469c      	mov	ip, r3
 8000f10:	2400      	movs	r4, #0
 8000f12:	2002      	movs	r0, #2
 8000f14:	44e3      	add	fp, ip
 8000f16:	e69d      	b.n	8000c54 <__aeabi_ddiv+0x80>
 8000f18:	2303      	movs	r3, #3
 8000f1a:	464a      	mov	r2, r9
 8000f1c:	431a      	orrs	r2, r3
 8000f1e:	4b13      	ldr	r3, [pc, #76]	; (8000f6c <__aeabi_ddiv+0x398>)
 8000f20:	4691      	mov	r9, r2
 8000f22:	469c      	mov	ip, r3
 8000f24:	4652      	mov	r2, sl
 8000f26:	2003      	movs	r0, #3
 8000f28:	44e3      	add	fp, ip
 8000f2a:	e693      	b.n	8000c54 <__aeabi_ddiv+0x80>
 8000f2c:	230c      	movs	r3, #12
 8000f2e:	4699      	mov	r9, r3
 8000f30:	3b09      	subs	r3, #9
 8000f32:	46a0      	mov	r8, r4
 8000f34:	4683      	mov	fp, r0
 8000f36:	9300      	str	r3, [sp, #0]
 8000f38:	e671      	b.n	8000c1e <__aeabi_ddiv+0x4a>
 8000f3a:	2304      	movs	r3, #4
 8000f3c:	4699      	mov	r9, r3
 8000f3e:	2300      	movs	r3, #0
 8000f40:	469b      	mov	fp, r3
 8000f42:	3301      	adds	r3, #1
 8000f44:	2500      	movs	r5, #0
 8000f46:	9300      	str	r3, [sp, #0]
 8000f48:	e669      	b.n	8000c1e <__aeabi_ddiv+0x4a>
 8000f4a:	46c0      	nop			; (mov r8, r8)
 8000f4c:	000007ff 	.word	0x000007ff
 8000f50:	fffffc01 	.word	0xfffffc01
<<<<<<< HEAD
 8000f54:	08007ba0 	.word	0x08007ba0
=======
 8000f54:	08007a80 	.word	0x08007a80
>>>>>>> 7d7ca595f0febf8d38881680e06789eb0f92c049
 8000f58:	000003ff 	.word	0x000003ff
 8000f5c:	feffffff 	.word	0xfeffffff
 8000f60:	000007fe 	.word	0x000007fe
 8000f64:	000003f3 	.word	0x000003f3
 8000f68:	fffffc0d 	.word	0xfffffc0d
 8000f6c:	fffff801 	.word	0xfffff801
 8000f70:	4649      	mov	r1, r9
 8000f72:	2301      	movs	r3, #1
 8000f74:	4319      	orrs	r1, r3
 8000f76:	4689      	mov	r9, r1
 8000f78:	2400      	movs	r4, #0
 8000f7a:	2001      	movs	r0, #1
 8000f7c:	e66a      	b.n	8000c54 <__aeabi_ddiv+0x80>
 8000f7e:	2300      	movs	r3, #0
 8000f80:	2480      	movs	r4, #128	; 0x80
 8000f82:	469a      	mov	sl, r3
 8000f84:	2500      	movs	r5, #0
 8000f86:	4b8a      	ldr	r3, [pc, #552]	; (80011b0 <__aeabi_ddiv+0x5dc>)
 8000f88:	0324      	lsls	r4, r4, #12
 8000f8a:	e67a      	b.n	8000c82 <__aeabi_ddiv+0xae>
 8000f8c:	2501      	movs	r5, #1
 8000f8e:	426d      	negs	r5, r5
 8000f90:	2301      	movs	r3, #1
 8000f92:	1a9b      	subs	r3, r3, r2
 8000f94:	2b38      	cmp	r3, #56	; 0x38
 8000f96:	dd00      	ble.n	8000f9a <__aeabi_ddiv+0x3c6>
 8000f98:	e670      	b.n	8000c7c <__aeabi_ddiv+0xa8>
 8000f9a:	2b1f      	cmp	r3, #31
 8000f9c:	dc00      	bgt.n	8000fa0 <__aeabi_ddiv+0x3cc>
 8000f9e:	e0bf      	b.n	8001120 <__aeabi_ddiv+0x54c>
 8000fa0:	211f      	movs	r1, #31
 8000fa2:	4249      	negs	r1, r1
 8000fa4:	1a8a      	subs	r2, r1, r2
 8000fa6:	4641      	mov	r1, r8
 8000fa8:	40d1      	lsrs	r1, r2
 8000faa:	000a      	movs	r2, r1
 8000fac:	2b20      	cmp	r3, #32
 8000fae:	d004      	beq.n	8000fba <__aeabi_ddiv+0x3e6>
 8000fb0:	4641      	mov	r1, r8
 8000fb2:	4b80      	ldr	r3, [pc, #512]	; (80011b4 <__aeabi_ddiv+0x5e0>)
 8000fb4:	445b      	add	r3, fp
 8000fb6:	4099      	lsls	r1, r3
 8000fb8:	430d      	orrs	r5, r1
 8000fba:	1e6b      	subs	r3, r5, #1
 8000fbc:	419d      	sbcs	r5, r3
 8000fbe:	2307      	movs	r3, #7
 8000fc0:	432a      	orrs	r2, r5
 8000fc2:	001d      	movs	r5, r3
 8000fc4:	2400      	movs	r4, #0
 8000fc6:	4015      	ands	r5, r2
 8000fc8:	4213      	tst	r3, r2
 8000fca:	d100      	bne.n	8000fce <__aeabi_ddiv+0x3fa>
 8000fcc:	e0d4      	b.n	8001178 <__aeabi_ddiv+0x5a4>
 8000fce:	210f      	movs	r1, #15
 8000fd0:	2300      	movs	r3, #0
 8000fd2:	4011      	ands	r1, r2
 8000fd4:	2904      	cmp	r1, #4
 8000fd6:	d100      	bne.n	8000fda <__aeabi_ddiv+0x406>
 8000fd8:	e0cb      	b.n	8001172 <__aeabi_ddiv+0x59e>
 8000fda:	1d11      	adds	r1, r2, #4
 8000fdc:	4291      	cmp	r1, r2
 8000fde:	4192      	sbcs	r2, r2
 8000fe0:	4252      	negs	r2, r2
 8000fe2:	189b      	adds	r3, r3, r2
 8000fe4:	000a      	movs	r2, r1
 8000fe6:	0219      	lsls	r1, r3, #8
 8000fe8:	d400      	bmi.n	8000fec <__aeabi_ddiv+0x418>
 8000fea:	e0c2      	b.n	8001172 <__aeabi_ddiv+0x59e>
 8000fec:	2301      	movs	r3, #1
 8000fee:	2400      	movs	r4, #0
 8000ff0:	2500      	movs	r5, #0
 8000ff2:	e646      	b.n	8000c82 <__aeabi_ddiv+0xae>
 8000ff4:	2380      	movs	r3, #128	; 0x80
 8000ff6:	4641      	mov	r1, r8
 8000ff8:	031b      	lsls	r3, r3, #12
 8000ffa:	4219      	tst	r1, r3
 8000ffc:	d008      	beq.n	8001010 <__aeabi_ddiv+0x43c>
 8000ffe:	421c      	tst	r4, r3
 8001000:	d106      	bne.n	8001010 <__aeabi_ddiv+0x43c>
 8001002:	431c      	orrs	r4, r3
 8001004:	0324      	lsls	r4, r4, #12
 8001006:	46ba      	mov	sl, r7
 8001008:	0015      	movs	r5, r2
 800100a:	4b69      	ldr	r3, [pc, #420]	; (80011b0 <__aeabi_ddiv+0x5dc>)
 800100c:	0b24      	lsrs	r4, r4, #12
 800100e:	e638      	b.n	8000c82 <__aeabi_ddiv+0xae>
 8001010:	2480      	movs	r4, #128	; 0x80
 8001012:	4643      	mov	r3, r8
 8001014:	0324      	lsls	r4, r4, #12
 8001016:	431c      	orrs	r4, r3
 8001018:	0324      	lsls	r4, r4, #12
 800101a:	46b2      	mov	sl, r6
 800101c:	4b64      	ldr	r3, [pc, #400]	; (80011b0 <__aeabi_ddiv+0x5dc>)
 800101e:	0b24      	lsrs	r4, r4, #12
 8001020:	e62f      	b.n	8000c82 <__aeabi_ddiv+0xae>
 8001022:	2b00      	cmp	r3, #0
 8001024:	d100      	bne.n	8001028 <__aeabi_ddiv+0x454>
 8001026:	e703      	b.n	8000e30 <__aeabi_ddiv+0x25c>
 8001028:	19a6      	adds	r6, r4, r6
 800102a:	1e68      	subs	r0, r5, #1
 800102c:	42a6      	cmp	r6, r4
 800102e:	d200      	bcs.n	8001032 <__aeabi_ddiv+0x45e>
 8001030:	e08d      	b.n	800114e <__aeabi_ddiv+0x57a>
 8001032:	428e      	cmp	r6, r1
 8001034:	d200      	bcs.n	8001038 <__aeabi_ddiv+0x464>
 8001036:	e0a3      	b.n	8001180 <__aeabi_ddiv+0x5ac>
 8001038:	d100      	bne.n	800103c <__aeabi_ddiv+0x468>
 800103a:	e0b3      	b.n	80011a4 <__aeabi_ddiv+0x5d0>
 800103c:	0005      	movs	r5, r0
 800103e:	e6f5      	b.n	8000e2c <__aeabi_ddiv+0x258>
 8001040:	42aa      	cmp	r2, r5
 8001042:	d900      	bls.n	8001046 <__aeabi_ddiv+0x472>
 8001044:	e639      	b.n	8000cba <__aeabi_ddiv+0xe6>
 8001046:	4643      	mov	r3, r8
 8001048:	07de      	lsls	r6, r3, #31
 800104a:	0858      	lsrs	r0, r3, #1
 800104c:	086b      	lsrs	r3, r5, #1
 800104e:	431e      	orrs	r6, r3
 8001050:	07ed      	lsls	r5, r5, #31
 8001052:	e639      	b.n	8000cc8 <__aeabi_ddiv+0xf4>
 8001054:	4648      	mov	r0, r9
 8001056:	f001 f867 	bl	8002128 <__clzsi2>
 800105a:	0001      	movs	r1, r0
 800105c:	0002      	movs	r2, r0
 800105e:	3115      	adds	r1, #21
 8001060:	3220      	adds	r2, #32
 8001062:	291c      	cmp	r1, #28
 8001064:	dc00      	bgt.n	8001068 <__aeabi_ddiv+0x494>
 8001066:	e72c      	b.n	8000ec2 <__aeabi_ddiv+0x2ee>
 8001068:	464b      	mov	r3, r9
 800106a:	3808      	subs	r0, #8
 800106c:	4083      	lsls	r3, r0
 800106e:	2500      	movs	r5, #0
 8001070:	4698      	mov	r8, r3
 8001072:	e732      	b.n	8000eda <__aeabi_ddiv+0x306>
 8001074:	f001 f858 	bl	8002128 <__clzsi2>
 8001078:	0003      	movs	r3, r0
 800107a:	001a      	movs	r2, r3
 800107c:	3215      	adds	r2, #21
 800107e:	3020      	adds	r0, #32
 8001080:	2a1c      	cmp	r2, #28
 8001082:	dc00      	bgt.n	8001086 <__aeabi_ddiv+0x4b2>
 8001084:	e700      	b.n	8000e88 <__aeabi_ddiv+0x2b4>
 8001086:	4654      	mov	r4, sl
 8001088:	3b08      	subs	r3, #8
 800108a:	2200      	movs	r2, #0
 800108c:	409c      	lsls	r4, r3
 800108e:	e705      	b.n	8000e9c <__aeabi_ddiv+0x2c8>
 8001090:	1936      	adds	r6, r6, r4
 8001092:	3b01      	subs	r3, #1
 8001094:	42b4      	cmp	r4, r6
 8001096:	d900      	bls.n	800109a <__aeabi_ddiv+0x4c6>
 8001098:	e6a6      	b.n	8000de8 <__aeabi_ddiv+0x214>
 800109a:	42b2      	cmp	r2, r6
 800109c:	d800      	bhi.n	80010a0 <__aeabi_ddiv+0x4cc>
 800109e:	e6a3      	b.n	8000de8 <__aeabi_ddiv+0x214>
 80010a0:	1e83      	subs	r3, r0, #2
 80010a2:	1936      	adds	r6, r6, r4
 80010a4:	e6a0      	b.n	8000de8 <__aeabi_ddiv+0x214>
 80010a6:	1909      	adds	r1, r1, r4
 80010a8:	3d01      	subs	r5, #1
 80010aa:	428c      	cmp	r4, r1
 80010ac:	d900      	bls.n	80010b0 <__aeabi_ddiv+0x4dc>
 80010ae:	e68d      	b.n	8000dcc <__aeabi_ddiv+0x1f8>
 80010b0:	428a      	cmp	r2, r1
 80010b2:	d800      	bhi.n	80010b6 <__aeabi_ddiv+0x4e2>
 80010b4:	e68a      	b.n	8000dcc <__aeabi_ddiv+0x1f8>
 80010b6:	1e85      	subs	r5, r0, #2
 80010b8:	1909      	adds	r1, r1, r4
 80010ba:	e687      	b.n	8000dcc <__aeabi_ddiv+0x1f8>
 80010bc:	230f      	movs	r3, #15
 80010be:	402b      	ands	r3, r5
 80010c0:	2b04      	cmp	r3, #4
 80010c2:	d100      	bne.n	80010c6 <__aeabi_ddiv+0x4f2>
 80010c4:	e6bc      	b.n	8000e40 <__aeabi_ddiv+0x26c>
 80010c6:	2305      	movs	r3, #5
 80010c8:	425b      	negs	r3, r3
 80010ca:	42ab      	cmp	r3, r5
 80010cc:	419b      	sbcs	r3, r3
 80010ce:	3504      	adds	r5, #4
 80010d0:	425b      	negs	r3, r3
 80010d2:	08ed      	lsrs	r5, r5, #3
 80010d4:	4498      	add	r8, r3
 80010d6:	e6b4      	b.n	8000e42 <__aeabi_ddiv+0x26e>
 80010d8:	42af      	cmp	r7, r5
 80010da:	d900      	bls.n	80010de <__aeabi_ddiv+0x50a>
 80010dc:	e660      	b.n	8000da0 <__aeabi_ddiv+0x1cc>
 80010de:	4282      	cmp	r2, r0
 80010e0:	d804      	bhi.n	80010ec <__aeabi_ddiv+0x518>
 80010e2:	d000      	beq.n	80010e6 <__aeabi_ddiv+0x512>
 80010e4:	e65c      	b.n	8000da0 <__aeabi_ddiv+0x1cc>
 80010e6:	42ae      	cmp	r6, r5
 80010e8:	d800      	bhi.n	80010ec <__aeabi_ddiv+0x518>
 80010ea:	e659      	b.n	8000da0 <__aeabi_ddiv+0x1cc>
 80010ec:	2302      	movs	r3, #2
 80010ee:	425b      	negs	r3, r3
 80010f0:	469c      	mov	ip, r3
 80010f2:	9b00      	ldr	r3, [sp, #0]
 80010f4:	44e0      	add	r8, ip
 80010f6:	469c      	mov	ip, r3
 80010f8:	4465      	add	r5, ip
 80010fa:	429d      	cmp	r5, r3
 80010fc:	419b      	sbcs	r3, r3
 80010fe:	425b      	negs	r3, r3
 8001100:	191b      	adds	r3, r3, r4
 8001102:	18c0      	adds	r0, r0, r3
 8001104:	e64d      	b.n	8000da2 <__aeabi_ddiv+0x1ce>
 8001106:	428a      	cmp	r2, r1
 8001108:	d800      	bhi.n	800110c <__aeabi_ddiv+0x538>
 800110a:	e60e      	b.n	8000d2a <__aeabi_ddiv+0x156>
 800110c:	1e83      	subs	r3, r0, #2
 800110e:	1909      	adds	r1, r1, r4
 8001110:	e60b      	b.n	8000d2a <__aeabi_ddiv+0x156>
 8001112:	428a      	cmp	r2, r1
 8001114:	d800      	bhi.n	8001118 <__aeabi_ddiv+0x544>
 8001116:	e5f4      	b.n	8000d02 <__aeabi_ddiv+0x12e>
 8001118:	1e83      	subs	r3, r0, #2
 800111a:	4698      	mov	r8, r3
 800111c:	1909      	adds	r1, r1, r4
 800111e:	e5f0      	b.n	8000d02 <__aeabi_ddiv+0x12e>
 8001120:	4925      	ldr	r1, [pc, #148]	; (80011b8 <__aeabi_ddiv+0x5e4>)
 8001122:	0028      	movs	r0, r5
 8001124:	4459      	add	r1, fp
 8001126:	408d      	lsls	r5, r1
 8001128:	4642      	mov	r2, r8
 800112a:	408a      	lsls	r2, r1
 800112c:	1e69      	subs	r1, r5, #1
 800112e:	418d      	sbcs	r5, r1
 8001130:	4641      	mov	r1, r8
 8001132:	40d8      	lsrs	r0, r3
 8001134:	40d9      	lsrs	r1, r3
 8001136:	4302      	orrs	r2, r0
 8001138:	432a      	orrs	r2, r5
 800113a:	000b      	movs	r3, r1
 800113c:	0751      	lsls	r1, r2, #29
 800113e:	d100      	bne.n	8001142 <__aeabi_ddiv+0x56e>
 8001140:	e751      	b.n	8000fe6 <__aeabi_ddiv+0x412>
 8001142:	210f      	movs	r1, #15
 8001144:	4011      	ands	r1, r2
 8001146:	2904      	cmp	r1, #4
 8001148:	d000      	beq.n	800114c <__aeabi_ddiv+0x578>
 800114a:	e746      	b.n	8000fda <__aeabi_ddiv+0x406>
 800114c:	e74b      	b.n	8000fe6 <__aeabi_ddiv+0x412>
 800114e:	0005      	movs	r5, r0
 8001150:	428e      	cmp	r6, r1
 8001152:	d000      	beq.n	8001156 <__aeabi_ddiv+0x582>
 8001154:	e66a      	b.n	8000e2c <__aeabi_ddiv+0x258>
 8001156:	9a00      	ldr	r2, [sp, #0]
 8001158:	4293      	cmp	r3, r2
 800115a:	d000      	beq.n	800115e <__aeabi_ddiv+0x58a>
 800115c:	e666      	b.n	8000e2c <__aeabi_ddiv+0x258>
 800115e:	e667      	b.n	8000e30 <__aeabi_ddiv+0x25c>
 8001160:	4a16      	ldr	r2, [pc, #88]	; (80011bc <__aeabi_ddiv+0x5e8>)
 8001162:	445a      	add	r2, fp
 8001164:	2a00      	cmp	r2, #0
 8001166:	dc00      	bgt.n	800116a <__aeabi_ddiv+0x596>
 8001168:	e710      	b.n	8000f8c <__aeabi_ddiv+0x3b8>
 800116a:	2301      	movs	r3, #1
 800116c:	2500      	movs	r5, #0
 800116e:	4498      	add	r8, r3
 8001170:	e667      	b.n	8000e42 <__aeabi_ddiv+0x26e>
 8001172:	075d      	lsls	r5, r3, #29
 8001174:	025b      	lsls	r3, r3, #9
 8001176:	0b1c      	lsrs	r4, r3, #12
 8001178:	08d2      	lsrs	r2, r2, #3
 800117a:	2300      	movs	r3, #0
 800117c:	4315      	orrs	r5, r2
 800117e:	e580      	b.n	8000c82 <__aeabi_ddiv+0xae>
 8001180:	9800      	ldr	r0, [sp, #0]
 8001182:	3d02      	subs	r5, #2
 8001184:	0042      	lsls	r2, r0, #1
 8001186:	4282      	cmp	r2, r0
 8001188:	41bf      	sbcs	r7, r7
 800118a:	427f      	negs	r7, r7
 800118c:	193c      	adds	r4, r7, r4
 800118e:	1936      	adds	r6, r6, r4
 8001190:	9200      	str	r2, [sp, #0]
 8001192:	e7dd      	b.n	8001150 <__aeabi_ddiv+0x57c>
 8001194:	2480      	movs	r4, #128	; 0x80
 8001196:	4643      	mov	r3, r8
 8001198:	0324      	lsls	r4, r4, #12
 800119a:	431c      	orrs	r4, r3
 800119c:	0324      	lsls	r4, r4, #12
 800119e:	4b04      	ldr	r3, [pc, #16]	; (80011b0 <__aeabi_ddiv+0x5dc>)
 80011a0:	0b24      	lsrs	r4, r4, #12
 80011a2:	e56e      	b.n	8000c82 <__aeabi_ddiv+0xae>
 80011a4:	9a00      	ldr	r2, [sp, #0]
 80011a6:	429a      	cmp	r2, r3
 80011a8:	d3ea      	bcc.n	8001180 <__aeabi_ddiv+0x5ac>
 80011aa:	0005      	movs	r5, r0
 80011ac:	e7d3      	b.n	8001156 <__aeabi_ddiv+0x582>
 80011ae:	46c0      	nop			; (mov r8, r8)
 80011b0:	000007ff 	.word	0x000007ff
 80011b4:	0000043e 	.word	0x0000043e
 80011b8:	0000041e 	.word	0x0000041e
 80011bc:	000003ff 	.word	0x000003ff

080011c0 <__eqdf2>:
 80011c0:	b5f0      	push	{r4, r5, r6, r7, lr}
 80011c2:	464e      	mov	r6, r9
 80011c4:	4645      	mov	r5, r8
 80011c6:	46de      	mov	lr, fp
 80011c8:	4657      	mov	r7, sl
 80011ca:	4690      	mov	r8, r2
 80011cc:	b5e0      	push	{r5, r6, r7, lr}
 80011ce:	0017      	movs	r7, r2
 80011d0:	031a      	lsls	r2, r3, #12
 80011d2:	0b12      	lsrs	r2, r2, #12
 80011d4:	0005      	movs	r5, r0
 80011d6:	4684      	mov	ip, r0
 80011d8:	4819      	ldr	r0, [pc, #100]	; (8001240 <__eqdf2+0x80>)
 80011da:	030e      	lsls	r6, r1, #12
 80011dc:	004c      	lsls	r4, r1, #1
 80011de:	4691      	mov	r9, r2
 80011e0:	005a      	lsls	r2, r3, #1
 80011e2:	0fdb      	lsrs	r3, r3, #31
 80011e4:	469b      	mov	fp, r3
 80011e6:	0b36      	lsrs	r6, r6, #12
 80011e8:	0d64      	lsrs	r4, r4, #21
 80011ea:	0fc9      	lsrs	r1, r1, #31
 80011ec:	0d52      	lsrs	r2, r2, #21
 80011ee:	4284      	cmp	r4, r0
 80011f0:	d019      	beq.n	8001226 <__eqdf2+0x66>
 80011f2:	4282      	cmp	r2, r0
 80011f4:	d010      	beq.n	8001218 <__eqdf2+0x58>
 80011f6:	2001      	movs	r0, #1
 80011f8:	4294      	cmp	r4, r2
 80011fa:	d10e      	bne.n	800121a <__eqdf2+0x5a>
 80011fc:	454e      	cmp	r6, r9
 80011fe:	d10c      	bne.n	800121a <__eqdf2+0x5a>
 8001200:	2001      	movs	r0, #1
 8001202:	45c4      	cmp	ip, r8
 8001204:	d109      	bne.n	800121a <__eqdf2+0x5a>
 8001206:	4559      	cmp	r1, fp
 8001208:	d017      	beq.n	800123a <__eqdf2+0x7a>
 800120a:	2c00      	cmp	r4, #0
 800120c:	d105      	bne.n	800121a <__eqdf2+0x5a>
 800120e:	0030      	movs	r0, r6
 8001210:	4328      	orrs	r0, r5
 8001212:	1e43      	subs	r3, r0, #1
 8001214:	4198      	sbcs	r0, r3
 8001216:	e000      	b.n	800121a <__eqdf2+0x5a>
 8001218:	2001      	movs	r0, #1
 800121a:	bcf0      	pop	{r4, r5, r6, r7}
 800121c:	46bb      	mov	fp, r7
 800121e:	46b2      	mov	sl, r6
 8001220:	46a9      	mov	r9, r5
 8001222:	46a0      	mov	r8, r4
 8001224:	bdf0      	pop	{r4, r5, r6, r7, pc}
 8001226:	0033      	movs	r3, r6
 8001228:	2001      	movs	r0, #1
 800122a:	432b      	orrs	r3, r5
 800122c:	d1f5      	bne.n	800121a <__eqdf2+0x5a>
 800122e:	42a2      	cmp	r2, r4
 8001230:	d1f3      	bne.n	800121a <__eqdf2+0x5a>
 8001232:	464b      	mov	r3, r9
 8001234:	433b      	orrs	r3, r7
 8001236:	d1f0      	bne.n	800121a <__eqdf2+0x5a>
 8001238:	e7e2      	b.n	8001200 <__eqdf2+0x40>
 800123a:	2000      	movs	r0, #0
 800123c:	e7ed      	b.n	800121a <__eqdf2+0x5a>
 800123e:	46c0      	nop			; (mov r8, r8)
 8001240:	000007ff 	.word	0x000007ff

08001244 <__gedf2>:
 8001244:	b5f0      	push	{r4, r5, r6, r7, lr}
 8001246:	4647      	mov	r7, r8
 8001248:	46ce      	mov	lr, r9
 800124a:	0004      	movs	r4, r0
 800124c:	0018      	movs	r0, r3
 800124e:	0016      	movs	r6, r2
 8001250:	031b      	lsls	r3, r3, #12
 8001252:	0b1b      	lsrs	r3, r3, #12
 8001254:	4d2d      	ldr	r5, [pc, #180]	; (800130c <__gedf2+0xc8>)
 8001256:	004a      	lsls	r2, r1, #1
 8001258:	4699      	mov	r9, r3
 800125a:	b580      	push	{r7, lr}
 800125c:	0043      	lsls	r3, r0, #1
 800125e:	030f      	lsls	r7, r1, #12
 8001260:	46a4      	mov	ip, r4
 8001262:	46b0      	mov	r8, r6
 8001264:	0b3f      	lsrs	r7, r7, #12
 8001266:	0d52      	lsrs	r2, r2, #21
 8001268:	0fc9      	lsrs	r1, r1, #31
 800126a:	0d5b      	lsrs	r3, r3, #21
 800126c:	0fc0      	lsrs	r0, r0, #31
 800126e:	42aa      	cmp	r2, r5
 8001270:	d021      	beq.n	80012b6 <__gedf2+0x72>
 8001272:	42ab      	cmp	r3, r5
 8001274:	d013      	beq.n	800129e <__gedf2+0x5a>
 8001276:	2a00      	cmp	r2, #0
 8001278:	d122      	bne.n	80012c0 <__gedf2+0x7c>
 800127a:	433c      	orrs	r4, r7
 800127c:	2b00      	cmp	r3, #0
 800127e:	d102      	bne.n	8001286 <__gedf2+0x42>
 8001280:	464d      	mov	r5, r9
 8001282:	432e      	orrs	r6, r5
 8001284:	d022      	beq.n	80012cc <__gedf2+0x88>
 8001286:	2c00      	cmp	r4, #0
 8001288:	d010      	beq.n	80012ac <__gedf2+0x68>
 800128a:	4281      	cmp	r1, r0
 800128c:	d022      	beq.n	80012d4 <__gedf2+0x90>
 800128e:	2002      	movs	r0, #2
 8001290:	3901      	subs	r1, #1
 8001292:	4008      	ands	r0, r1
 8001294:	3801      	subs	r0, #1
 8001296:	bcc0      	pop	{r6, r7}
 8001298:	46b9      	mov	r9, r7
 800129a:	46b0      	mov	r8, r6
 800129c:	bdf0      	pop	{r4, r5, r6, r7, pc}
 800129e:	464d      	mov	r5, r9
 80012a0:	432e      	orrs	r6, r5
 80012a2:	d129      	bne.n	80012f8 <__gedf2+0xb4>
 80012a4:	2a00      	cmp	r2, #0
 80012a6:	d1f0      	bne.n	800128a <__gedf2+0x46>
 80012a8:	433c      	orrs	r4, r7
 80012aa:	d1ee      	bne.n	800128a <__gedf2+0x46>
 80012ac:	2800      	cmp	r0, #0
 80012ae:	d1f2      	bne.n	8001296 <__gedf2+0x52>
 80012b0:	2001      	movs	r0, #1
 80012b2:	4240      	negs	r0, r0
 80012b4:	e7ef      	b.n	8001296 <__gedf2+0x52>
 80012b6:	003d      	movs	r5, r7
 80012b8:	4325      	orrs	r5, r4
 80012ba:	d11d      	bne.n	80012f8 <__gedf2+0xb4>
 80012bc:	4293      	cmp	r3, r2
 80012be:	d0ee      	beq.n	800129e <__gedf2+0x5a>
 80012c0:	2b00      	cmp	r3, #0
 80012c2:	d1e2      	bne.n	800128a <__gedf2+0x46>
 80012c4:	464c      	mov	r4, r9
 80012c6:	4326      	orrs	r6, r4
 80012c8:	d1df      	bne.n	800128a <__gedf2+0x46>
 80012ca:	e7e0      	b.n	800128e <__gedf2+0x4a>
 80012cc:	2000      	movs	r0, #0
 80012ce:	2c00      	cmp	r4, #0
 80012d0:	d0e1      	beq.n	8001296 <__gedf2+0x52>
 80012d2:	e7dc      	b.n	800128e <__gedf2+0x4a>
 80012d4:	429a      	cmp	r2, r3
 80012d6:	dc0a      	bgt.n	80012ee <__gedf2+0xaa>
 80012d8:	dbe8      	blt.n	80012ac <__gedf2+0x68>
 80012da:	454f      	cmp	r7, r9
 80012dc:	d8d7      	bhi.n	800128e <__gedf2+0x4a>
 80012de:	d00e      	beq.n	80012fe <__gedf2+0xba>
 80012e0:	2000      	movs	r0, #0
 80012e2:	454f      	cmp	r7, r9
 80012e4:	d2d7      	bcs.n	8001296 <__gedf2+0x52>
 80012e6:	2900      	cmp	r1, #0
 80012e8:	d0e2      	beq.n	80012b0 <__gedf2+0x6c>
 80012ea:	0008      	movs	r0, r1
 80012ec:	e7d3      	b.n	8001296 <__gedf2+0x52>
 80012ee:	4243      	negs	r3, r0
 80012f0:	4158      	adcs	r0, r3
 80012f2:	0040      	lsls	r0, r0, #1
 80012f4:	3801      	subs	r0, #1
 80012f6:	e7ce      	b.n	8001296 <__gedf2+0x52>
 80012f8:	2002      	movs	r0, #2
 80012fa:	4240      	negs	r0, r0
 80012fc:	e7cb      	b.n	8001296 <__gedf2+0x52>
 80012fe:	45c4      	cmp	ip, r8
 8001300:	d8c5      	bhi.n	800128e <__gedf2+0x4a>
 8001302:	2000      	movs	r0, #0
 8001304:	45c4      	cmp	ip, r8
 8001306:	d2c6      	bcs.n	8001296 <__gedf2+0x52>
 8001308:	e7ed      	b.n	80012e6 <__gedf2+0xa2>
 800130a:	46c0      	nop			; (mov r8, r8)
 800130c:	000007ff 	.word	0x000007ff

08001310 <__ledf2>:
 8001310:	b5f0      	push	{r4, r5, r6, r7, lr}
 8001312:	4647      	mov	r7, r8
 8001314:	46ce      	mov	lr, r9
 8001316:	0004      	movs	r4, r0
 8001318:	0018      	movs	r0, r3
 800131a:	0016      	movs	r6, r2
 800131c:	031b      	lsls	r3, r3, #12
 800131e:	0b1b      	lsrs	r3, r3, #12
 8001320:	4d2c      	ldr	r5, [pc, #176]	; (80013d4 <__ledf2+0xc4>)
 8001322:	004a      	lsls	r2, r1, #1
 8001324:	4699      	mov	r9, r3
 8001326:	b580      	push	{r7, lr}
 8001328:	0043      	lsls	r3, r0, #1
 800132a:	030f      	lsls	r7, r1, #12
 800132c:	46a4      	mov	ip, r4
 800132e:	46b0      	mov	r8, r6
 8001330:	0b3f      	lsrs	r7, r7, #12
 8001332:	0d52      	lsrs	r2, r2, #21
 8001334:	0fc9      	lsrs	r1, r1, #31
 8001336:	0d5b      	lsrs	r3, r3, #21
 8001338:	0fc0      	lsrs	r0, r0, #31
 800133a:	42aa      	cmp	r2, r5
 800133c:	d00d      	beq.n	800135a <__ledf2+0x4a>
 800133e:	42ab      	cmp	r3, r5
 8001340:	d010      	beq.n	8001364 <__ledf2+0x54>
 8001342:	2a00      	cmp	r2, #0
 8001344:	d127      	bne.n	8001396 <__ledf2+0x86>
 8001346:	433c      	orrs	r4, r7
 8001348:	2b00      	cmp	r3, #0
 800134a:	d111      	bne.n	8001370 <__ledf2+0x60>
 800134c:	464d      	mov	r5, r9
 800134e:	432e      	orrs	r6, r5
 8001350:	d10e      	bne.n	8001370 <__ledf2+0x60>
 8001352:	2000      	movs	r0, #0
 8001354:	2c00      	cmp	r4, #0
 8001356:	d015      	beq.n	8001384 <__ledf2+0x74>
 8001358:	e00e      	b.n	8001378 <__ledf2+0x68>
 800135a:	003d      	movs	r5, r7
 800135c:	4325      	orrs	r5, r4
 800135e:	d110      	bne.n	8001382 <__ledf2+0x72>
 8001360:	4293      	cmp	r3, r2
 8001362:	d118      	bne.n	8001396 <__ledf2+0x86>
 8001364:	464d      	mov	r5, r9
 8001366:	432e      	orrs	r6, r5
 8001368:	d10b      	bne.n	8001382 <__ledf2+0x72>
 800136a:	2a00      	cmp	r2, #0
 800136c:	d102      	bne.n	8001374 <__ledf2+0x64>
 800136e:	433c      	orrs	r4, r7
 8001370:	2c00      	cmp	r4, #0
 8001372:	d00b      	beq.n	800138c <__ledf2+0x7c>
 8001374:	4281      	cmp	r1, r0
 8001376:	d014      	beq.n	80013a2 <__ledf2+0x92>
 8001378:	2002      	movs	r0, #2
 800137a:	3901      	subs	r1, #1
 800137c:	4008      	ands	r0, r1
 800137e:	3801      	subs	r0, #1
 8001380:	e000      	b.n	8001384 <__ledf2+0x74>
 8001382:	2002      	movs	r0, #2
 8001384:	bcc0      	pop	{r6, r7}
 8001386:	46b9      	mov	r9, r7
 8001388:	46b0      	mov	r8, r6
 800138a:	bdf0      	pop	{r4, r5, r6, r7, pc}
 800138c:	2800      	cmp	r0, #0
 800138e:	d1f9      	bne.n	8001384 <__ledf2+0x74>
 8001390:	2001      	movs	r0, #1
 8001392:	4240      	negs	r0, r0
 8001394:	e7f6      	b.n	8001384 <__ledf2+0x74>
 8001396:	2b00      	cmp	r3, #0
 8001398:	d1ec      	bne.n	8001374 <__ledf2+0x64>
 800139a:	464c      	mov	r4, r9
 800139c:	4326      	orrs	r6, r4
 800139e:	d1e9      	bne.n	8001374 <__ledf2+0x64>
 80013a0:	e7ea      	b.n	8001378 <__ledf2+0x68>
 80013a2:	429a      	cmp	r2, r3
 80013a4:	dd04      	ble.n	80013b0 <__ledf2+0xa0>
 80013a6:	4243      	negs	r3, r0
 80013a8:	4158      	adcs	r0, r3
 80013aa:	0040      	lsls	r0, r0, #1
 80013ac:	3801      	subs	r0, #1
 80013ae:	e7e9      	b.n	8001384 <__ledf2+0x74>
 80013b0:	429a      	cmp	r2, r3
 80013b2:	dbeb      	blt.n	800138c <__ledf2+0x7c>
 80013b4:	454f      	cmp	r7, r9
 80013b6:	d8df      	bhi.n	8001378 <__ledf2+0x68>
 80013b8:	d006      	beq.n	80013c8 <__ledf2+0xb8>
 80013ba:	2000      	movs	r0, #0
 80013bc:	454f      	cmp	r7, r9
 80013be:	d2e1      	bcs.n	8001384 <__ledf2+0x74>
 80013c0:	2900      	cmp	r1, #0
 80013c2:	d0e5      	beq.n	8001390 <__ledf2+0x80>
 80013c4:	0008      	movs	r0, r1
 80013c6:	e7dd      	b.n	8001384 <__ledf2+0x74>
 80013c8:	45c4      	cmp	ip, r8
 80013ca:	d8d5      	bhi.n	8001378 <__ledf2+0x68>
 80013cc:	2000      	movs	r0, #0
 80013ce:	45c4      	cmp	ip, r8
 80013d0:	d2d8      	bcs.n	8001384 <__ledf2+0x74>
 80013d2:	e7f5      	b.n	80013c0 <__ledf2+0xb0>
 80013d4:	000007ff 	.word	0x000007ff

080013d8 <__aeabi_dmul>:
 80013d8:	b5f0      	push	{r4, r5, r6, r7, lr}
 80013da:	4657      	mov	r7, sl
 80013dc:	464e      	mov	r6, r9
 80013de:	4645      	mov	r5, r8
 80013e0:	46de      	mov	lr, fp
 80013e2:	b5e0      	push	{r5, r6, r7, lr}
 80013e4:	4698      	mov	r8, r3
 80013e6:	030c      	lsls	r4, r1, #12
 80013e8:	004b      	lsls	r3, r1, #1
 80013ea:	0006      	movs	r6, r0
 80013ec:	4692      	mov	sl, r2
 80013ee:	b087      	sub	sp, #28
 80013f0:	0b24      	lsrs	r4, r4, #12
 80013f2:	0d5b      	lsrs	r3, r3, #21
 80013f4:	0fcf      	lsrs	r7, r1, #31
 80013f6:	2b00      	cmp	r3, #0
 80013f8:	d100      	bne.n	80013fc <__aeabi_dmul+0x24>
 80013fa:	e15c      	b.n	80016b6 <__aeabi_dmul+0x2de>
 80013fc:	4ad9      	ldr	r2, [pc, #868]	; (8001764 <__aeabi_dmul+0x38c>)
 80013fe:	4293      	cmp	r3, r2
 8001400:	d100      	bne.n	8001404 <__aeabi_dmul+0x2c>
 8001402:	e175      	b.n	80016f0 <__aeabi_dmul+0x318>
 8001404:	0f42      	lsrs	r2, r0, #29
 8001406:	00e4      	lsls	r4, r4, #3
 8001408:	4314      	orrs	r4, r2
 800140a:	2280      	movs	r2, #128	; 0x80
 800140c:	0412      	lsls	r2, r2, #16
 800140e:	4314      	orrs	r4, r2
 8001410:	4ad5      	ldr	r2, [pc, #852]	; (8001768 <__aeabi_dmul+0x390>)
 8001412:	00c5      	lsls	r5, r0, #3
 8001414:	4694      	mov	ip, r2
 8001416:	4463      	add	r3, ip
 8001418:	9300      	str	r3, [sp, #0]
 800141a:	2300      	movs	r3, #0
 800141c:	4699      	mov	r9, r3
 800141e:	469b      	mov	fp, r3
 8001420:	4643      	mov	r3, r8
 8001422:	4642      	mov	r2, r8
 8001424:	031e      	lsls	r6, r3, #12
 8001426:	0fd2      	lsrs	r2, r2, #31
 8001428:	005b      	lsls	r3, r3, #1
 800142a:	4650      	mov	r0, sl
 800142c:	4690      	mov	r8, r2
 800142e:	0b36      	lsrs	r6, r6, #12
 8001430:	0d5b      	lsrs	r3, r3, #21
 8001432:	d100      	bne.n	8001436 <__aeabi_dmul+0x5e>
 8001434:	e120      	b.n	8001678 <__aeabi_dmul+0x2a0>
 8001436:	4acb      	ldr	r2, [pc, #812]	; (8001764 <__aeabi_dmul+0x38c>)
 8001438:	4293      	cmp	r3, r2
 800143a:	d100      	bne.n	800143e <__aeabi_dmul+0x66>
 800143c:	e162      	b.n	8001704 <__aeabi_dmul+0x32c>
 800143e:	49ca      	ldr	r1, [pc, #808]	; (8001768 <__aeabi_dmul+0x390>)
 8001440:	0f42      	lsrs	r2, r0, #29
 8001442:	468c      	mov	ip, r1
 8001444:	9900      	ldr	r1, [sp, #0]
 8001446:	4463      	add	r3, ip
 8001448:	00f6      	lsls	r6, r6, #3
 800144a:	468c      	mov	ip, r1
 800144c:	4316      	orrs	r6, r2
 800144e:	2280      	movs	r2, #128	; 0x80
 8001450:	449c      	add	ip, r3
 8001452:	0412      	lsls	r2, r2, #16
 8001454:	4663      	mov	r3, ip
 8001456:	4316      	orrs	r6, r2
 8001458:	00c2      	lsls	r2, r0, #3
 800145a:	2000      	movs	r0, #0
 800145c:	9300      	str	r3, [sp, #0]
 800145e:	9900      	ldr	r1, [sp, #0]
 8001460:	4643      	mov	r3, r8
 8001462:	3101      	adds	r1, #1
 8001464:	468c      	mov	ip, r1
 8001466:	4649      	mov	r1, r9
 8001468:	407b      	eors	r3, r7
 800146a:	9301      	str	r3, [sp, #4]
 800146c:	290f      	cmp	r1, #15
 800146e:	d826      	bhi.n	80014be <__aeabi_dmul+0xe6>
 8001470:	4bbe      	ldr	r3, [pc, #760]	; (800176c <__aeabi_dmul+0x394>)
 8001472:	0089      	lsls	r1, r1, #2
 8001474:	5859      	ldr	r1, [r3, r1]
 8001476:	468f      	mov	pc, r1
 8001478:	4643      	mov	r3, r8
 800147a:	9301      	str	r3, [sp, #4]
 800147c:	0034      	movs	r4, r6
 800147e:	0015      	movs	r5, r2
 8001480:	4683      	mov	fp, r0
 8001482:	465b      	mov	r3, fp
 8001484:	2b02      	cmp	r3, #2
 8001486:	d016      	beq.n	80014b6 <__aeabi_dmul+0xde>
 8001488:	2b03      	cmp	r3, #3
 800148a:	d100      	bne.n	800148e <__aeabi_dmul+0xb6>
 800148c:	e203      	b.n	8001896 <__aeabi_dmul+0x4be>
 800148e:	2b01      	cmp	r3, #1
 8001490:	d000      	beq.n	8001494 <__aeabi_dmul+0xbc>
 8001492:	e0cd      	b.n	8001630 <__aeabi_dmul+0x258>
 8001494:	2200      	movs	r2, #0
 8001496:	2400      	movs	r4, #0
 8001498:	2500      	movs	r5, #0
 800149a:	9b01      	ldr	r3, [sp, #4]
 800149c:	0512      	lsls	r2, r2, #20
 800149e:	4322      	orrs	r2, r4
 80014a0:	07db      	lsls	r3, r3, #31
 80014a2:	431a      	orrs	r2, r3
 80014a4:	0028      	movs	r0, r5
 80014a6:	0011      	movs	r1, r2
 80014a8:	b007      	add	sp, #28
 80014aa:	bcf0      	pop	{r4, r5, r6, r7}
 80014ac:	46bb      	mov	fp, r7
 80014ae:	46b2      	mov	sl, r6
 80014b0:	46a9      	mov	r9, r5
 80014b2:	46a0      	mov	r8, r4
 80014b4:	bdf0      	pop	{r4, r5, r6, r7, pc}
 80014b6:	2400      	movs	r4, #0
 80014b8:	2500      	movs	r5, #0
 80014ba:	4aaa      	ldr	r2, [pc, #680]	; (8001764 <__aeabi_dmul+0x38c>)
 80014bc:	e7ed      	b.n	800149a <__aeabi_dmul+0xc2>
 80014be:	0c28      	lsrs	r0, r5, #16
 80014c0:	042d      	lsls	r5, r5, #16
 80014c2:	0c2d      	lsrs	r5, r5, #16
 80014c4:	002b      	movs	r3, r5
 80014c6:	0c11      	lsrs	r1, r2, #16
 80014c8:	0412      	lsls	r2, r2, #16
 80014ca:	0c12      	lsrs	r2, r2, #16
 80014cc:	4353      	muls	r3, r2
 80014ce:	4698      	mov	r8, r3
 80014d0:	0013      	movs	r3, r2
 80014d2:	002f      	movs	r7, r5
 80014d4:	4343      	muls	r3, r0
 80014d6:	4699      	mov	r9, r3
 80014d8:	434f      	muls	r7, r1
 80014da:	444f      	add	r7, r9
 80014dc:	46bb      	mov	fp, r7
 80014de:	4647      	mov	r7, r8
 80014e0:	000b      	movs	r3, r1
 80014e2:	0c3f      	lsrs	r7, r7, #16
 80014e4:	46ba      	mov	sl, r7
 80014e6:	4343      	muls	r3, r0
 80014e8:	44da      	add	sl, fp
 80014ea:	9302      	str	r3, [sp, #8]
 80014ec:	45d1      	cmp	r9, sl
 80014ee:	d904      	bls.n	80014fa <__aeabi_dmul+0x122>
 80014f0:	2780      	movs	r7, #128	; 0x80
 80014f2:	027f      	lsls	r7, r7, #9
 80014f4:	46b9      	mov	r9, r7
 80014f6:	444b      	add	r3, r9
 80014f8:	9302      	str	r3, [sp, #8]
 80014fa:	4653      	mov	r3, sl
 80014fc:	0c1b      	lsrs	r3, r3, #16
 80014fe:	469b      	mov	fp, r3
 8001500:	4653      	mov	r3, sl
 8001502:	041f      	lsls	r7, r3, #16
 8001504:	4643      	mov	r3, r8
 8001506:	041b      	lsls	r3, r3, #16
 8001508:	0c1b      	lsrs	r3, r3, #16
 800150a:	4698      	mov	r8, r3
 800150c:	003b      	movs	r3, r7
 800150e:	4443      	add	r3, r8
 8001510:	9304      	str	r3, [sp, #16]
 8001512:	0c33      	lsrs	r3, r6, #16
 8001514:	0436      	lsls	r6, r6, #16
 8001516:	0c36      	lsrs	r6, r6, #16
 8001518:	4698      	mov	r8, r3
 800151a:	0033      	movs	r3, r6
 800151c:	4343      	muls	r3, r0
 800151e:	4699      	mov	r9, r3
 8001520:	4643      	mov	r3, r8
 8001522:	4343      	muls	r3, r0
 8001524:	002f      	movs	r7, r5
 8001526:	469a      	mov	sl, r3
 8001528:	4643      	mov	r3, r8
 800152a:	4377      	muls	r7, r6
 800152c:	435d      	muls	r5, r3
 800152e:	0c38      	lsrs	r0, r7, #16
 8001530:	444d      	add	r5, r9
 8001532:	1945      	adds	r5, r0, r5
 8001534:	45a9      	cmp	r9, r5
 8001536:	d903      	bls.n	8001540 <__aeabi_dmul+0x168>
 8001538:	2380      	movs	r3, #128	; 0x80
 800153a:	025b      	lsls	r3, r3, #9
 800153c:	4699      	mov	r9, r3
 800153e:	44ca      	add	sl, r9
 8001540:	043f      	lsls	r7, r7, #16
 8001542:	0c28      	lsrs	r0, r5, #16
 8001544:	0c3f      	lsrs	r7, r7, #16
 8001546:	042d      	lsls	r5, r5, #16
 8001548:	19ed      	adds	r5, r5, r7
 800154a:	0c27      	lsrs	r7, r4, #16
 800154c:	0424      	lsls	r4, r4, #16
 800154e:	0c24      	lsrs	r4, r4, #16
 8001550:	0003      	movs	r3, r0
 8001552:	0020      	movs	r0, r4
 8001554:	4350      	muls	r0, r2
 8001556:	437a      	muls	r2, r7
 8001558:	4691      	mov	r9, r2
 800155a:	003a      	movs	r2, r7
 800155c:	4453      	add	r3, sl
 800155e:	9305      	str	r3, [sp, #20]
 8001560:	0c03      	lsrs	r3, r0, #16
 8001562:	469a      	mov	sl, r3
 8001564:	434a      	muls	r2, r1
 8001566:	4361      	muls	r1, r4
 8001568:	4449      	add	r1, r9
 800156a:	4451      	add	r1, sl
 800156c:	44ab      	add	fp, r5
 800156e:	4589      	cmp	r9, r1
 8001570:	d903      	bls.n	800157a <__aeabi_dmul+0x1a2>
 8001572:	2380      	movs	r3, #128	; 0x80
 8001574:	025b      	lsls	r3, r3, #9
 8001576:	4699      	mov	r9, r3
 8001578:	444a      	add	r2, r9
 800157a:	0400      	lsls	r0, r0, #16
 800157c:	0c0b      	lsrs	r3, r1, #16
 800157e:	0c00      	lsrs	r0, r0, #16
 8001580:	0409      	lsls	r1, r1, #16
 8001582:	1809      	adds	r1, r1, r0
 8001584:	0020      	movs	r0, r4
 8001586:	4699      	mov	r9, r3
 8001588:	4643      	mov	r3, r8
 800158a:	4370      	muls	r0, r6
 800158c:	435c      	muls	r4, r3
 800158e:	437e      	muls	r6, r7
 8001590:	435f      	muls	r7, r3
 8001592:	0c03      	lsrs	r3, r0, #16
 8001594:	4698      	mov	r8, r3
 8001596:	19a4      	adds	r4, r4, r6
 8001598:	4444      	add	r4, r8
 800159a:	444a      	add	r2, r9
 800159c:	9703      	str	r7, [sp, #12]
 800159e:	42a6      	cmp	r6, r4
 80015a0:	d904      	bls.n	80015ac <__aeabi_dmul+0x1d4>
 80015a2:	2380      	movs	r3, #128	; 0x80
 80015a4:	025b      	lsls	r3, r3, #9
 80015a6:	4698      	mov	r8, r3
 80015a8:	4447      	add	r7, r8
 80015aa:	9703      	str	r7, [sp, #12]
 80015ac:	0423      	lsls	r3, r4, #16
 80015ae:	9e02      	ldr	r6, [sp, #8]
 80015b0:	469a      	mov	sl, r3
 80015b2:	9b05      	ldr	r3, [sp, #20]
 80015b4:	445e      	add	r6, fp
 80015b6:	4698      	mov	r8, r3
 80015b8:	42ae      	cmp	r6, r5
 80015ba:	41ad      	sbcs	r5, r5
 80015bc:	1876      	adds	r6, r6, r1
 80015be:	428e      	cmp	r6, r1
 80015c0:	4189      	sbcs	r1, r1
 80015c2:	0400      	lsls	r0, r0, #16
 80015c4:	0c00      	lsrs	r0, r0, #16
 80015c6:	4450      	add	r0, sl
 80015c8:	4440      	add	r0, r8
 80015ca:	426d      	negs	r5, r5
 80015cc:	1947      	adds	r7, r0, r5
 80015ce:	46b8      	mov	r8, r7
 80015d0:	4693      	mov	fp, r2
 80015d2:	4249      	negs	r1, r1
 80015d4:	4689      	mov	r9, r1
 80015d6:	44c3      	add	fp, r8
 80015d8:	44d9      	add	r9, fp
 80015da:	4298      	cmp	r0, r3
 80015dc:	4180      	sbcs	r0, r0
 80015de:	45a8      	cmp	r8, r5
 80015e0:	41ad      	sbcs	r5, r5
 80015e2:	4593      	cmp	fp, r2
 80015e4:	4192      	sbcs	r2, r2
 80015e6:	4589      	cmp	r9, r1
 80015e8:	4189      	sbcs	r1, r1
 80015ea:	426d      	negs	r5, r5
 80015ec:	4240      	negs	r0, r0
 80015ee:	4328      	orrs	r0, r5
 80015f0:	0c24      	lsrs	r4, r4, #16
 80015f2:	4252      	negs	r2, r2
 80015f4:	4249      	negs	r1, r1
 80015f6:	430a      	orrs	r2, r1
 80015f8:	9b03      	ldr	r3, [sp, #12]
 80015fa:	1900      	adds	r0, r0, r4
 80015fc:	1880      	adds	r0, r0, r2
 80015fe:	18c7      	adds	r7, r0, r3
 8001600:	464b      	mov	r3, r9
 8001602:	0ddc      	lsrs	r4, r3, #23
 8001604:	9b04      	ldr	r3, [sp, #16]
 8001606:	0275      	lsls	r5, r6, #9
 8001608:	431d      	orrs	r5, r3
 800160a:	1e6a      	subs	r2, r5, #1
 800160c:	4195      	sbcs	r5, r2
 800160e:	464b      	mov	r3, r9
 8001610:	0df6      	lsrs	r6, r6, #23
 8001612:	027f      	lsls	r7, r7, #9
 8001614:	4335      	orrs	r5, r6
 8001616:	025a      	lsls	r2, r3, #9
 8001618:	433c      	orrs	r4, r7
 800161a:	4315      	orrs	r5, r2
 800161c:	01fb      	lsls	r3, r7, #7
 800161e:	d400      	bmi.n	8001622 <__aeabi_dmul+0x24a>
 8001620:	e11c      	b.n	800185c <__aeabi_dmul+0x484>
 8001622:	2101      	movs	r1, #1
 8001624:	086a      	lsrs	r2, r5, #1
 8001626:	400d      	ands	r5, r1
 8001628:	4315      	orrs	r5, r2
 800162a:	07e2      	lsls	r2, r4, #31
 800162c:	4315      	orrs	r5, r2
 800162e:	0864      	lsrs	r4, r4, #1
 8001630:	494f      	ldr	r1, [pc, #316]	; (8001770 <__aeabi_dmul+0x398>)
 8001632:	4461      	add	r1, ip
 8001634:	2900      	cmp	r1, #0
 8001636:	dc00      	bgt.n	800163a <__aeabi_dmul+0x262>
 8001638:	e0b0      	b.n	800179c <__aeabi_dmul+0x3c4>
 800163a:	076b      	lsls	r3, r5, #29
 800163c:	d009      	beq.n	8001652 <__aeabi_dmul+0x27a>
 800163e:	220f      	movs	r2, #15
 8001640:	402a      	ands	r2, r5
 8001642:	2a04      	cmp	r2, #4
 8001644:	d005      	beq.n	8001652 <__aeabi_dmul+0x27a>
 8001646:	1d2a      	adds	r2, r5, #4
 8001648:	42aa      	cmp	r2, r5
 800164a:	41ad      	sbcs	r5, r5
 800164c:	426d      	negs	r5, r5
 800164e:	1964      	adds	r4, r4, r5
 8001650:	0015      	movs	r5, r2
 8001652:	01e3      	lsls	r3, r4, #7
 8001654:	d504      	bpl.n	8001660 <__aeabi_dmul+0x288>
 8001656:	2180      	movs	r1, #128	; 0x80
 8001658:	4a46      	ldr	r2, [pc, #280]	; (8001774 <__aeabi_dmul+0x39c>)
 800165a:	00c9      	lsls	r1, r1, #3
 800165c:	4014      	ands	r4, r2
 800165e:	4461      	add	r1, ip
 8001660:	4a45      	ldr	r2, [pc, #276]	; (8001778 <__aeabi_dmul+0x3a0>)
 8001662:	4291      	cmp	r1, r2
 8001664:	dd00      	ble.n	8001668 <__aeabi_dmul+0x290>
 8001666:	e726      	b.n	80014b6 <__aeabi_dmul+0xde>
 8001668:	0762      	lsls	r2, r4, #29
 800166a:	08ed      	lsrs	r5, r5, #3
 800166c:	0264      	lsls	r4, r4, #9
 800166e:	0549      	lsls	r1, r1, #21
 8001670:	4315      	orrs	r5, r2
 8001672:	0b24      	lsrs	r4, r4, #12
 8001674:	0d4a      	lsrs	r2, r1, #21
 8001676:	e710      	b.n	800149a <__aeabi_dmul+0xc2>
 8001678:	4652      	mov	r2, sl
 800167a:	4332      	orrs	r2, r6
 800167c:	d100      	bne.n	8001680 <__aeabi_dmul+0x2a8>
 800167e:	e07f      	b.n	8001780 <__aeabi_dmul+0x3a8>
 8001680:	2e00      	cmp	r6, #0
 8001682:	d100      	bne.n	8001686 <__aeabi_dmul+0x2ae>
 8001684:	e0dc      	b.n	8001840 <__aeabi_dmul+0x468>
 8001686:	0030      	movs	r0, r6
 8001688:	f000 fd4e 	bl	8002128 <__clzsi2>
 800168c:	0002      	movs	r2, r0
 800168e:	3a0b      	subs	r2, #11
 8001690:	231d      	movs	r3, #29
 8001692:	0001      	movs	r1, r0
 8001694:	1a9b      	subs	r3, r3, r2
 8001696:	4652      	mov	r2, sl
 8001698:	3908      	subs	r1, #8
 800169a:	40da      	lsrs	r2, r3
 800169c:	408e      	lsls	r6, r1
 800169e:	4316      	orrs	r6, r2
 80016a0:	4652      	mov	r2, sl
 80016a2:	408a      	lsls	r2, r1
 80016a4:	9b00      	ldr	r3, [sp, #0]
 80016a6:	4935      	ldr	r1, [pc, #212]	; (800177c <__aeabi_dmul+0x3a4>)
 80016a8:	1a18      	subs	r0, r3, r0
 80016aa:	0003      	movs	r3, r0
 80016ac:	468c      	mov	ip, r1
 80016ae:	4463      	add	r3, ip
 80016b0:	2000      	movs	r0, #0
 80016b2:	9300      	str	r3, [sp, #0]
 80016b4:	e6d3      	b.n	800145e <__aeabi_dmul+0x86>
 80016b6:	0025      	movs	r5, r4
 80016b8:	4305      	orrs	r5, r0
 80016ba:	d04a      	beq.n	8001752 <__aeabi_dmul+0x37a>
 80016bc:	2c00      	cmp	r4, #0
 80016be:	d100      	bne.n	80016c2 <__aeabi_dmul+0x2ea>
 80016c0:	e0b0      	b.n	8001824 <__aeabi_dmul+0x44c>
 80016c2:	0020      	movs	r0, r4
 80016c4:	f000 fd30 	bl	8002128 <__clzsi2>
 80016c8:	0001      	movs	r1, r0
 80016ca:	0002      	movs	r2, r0
 80016cc:	390b      	subs	r1, #11
 80016ce:	231d      	movs	r3, #29
 80016d0:	0010      	movs	r0, r2
 80016d2:	1a5b      	subs	r3, r3, r1
 80016d4:	0031      	movs	r1, r6
 80016d6:	0035      	movs	r5, r6
 80016d8:	3808      	subs	r0, #8
 80016da:	4084      	lsls	r4, r0
 80016dc:	40d9      	lsrs	r1, r3
 80016de:	4085      	lsls	r5, r0
 80016e0:	430c      	orrs	r4, r1
 80016e2:	4826      	ldr	r0, [pc, #152]	; (800177c <__aeabi_dmul+0x3a4>)
 80016e4:	1a83      	subs	r3, r0, r2
 80016e6:	9300      	str	r3, [sp, #0]
 80016e8:	2300      	movs	r3, #0
 80016ea:	4699      	mov	r9, r3
 80016ec:	469b      	mov	fp, r3
 80016ee:	e697      	b.n	8001420 <__aeabi_dmul+0x48>
 80016f0:	0005      	movs	r5, r0
 80016f2:	4325      	orrs	r5, r4
 80016f4:	d126      	bne.n	8001744 <__aeabi_dmul+0x36c>
 80016f6:	2208      	movs	r2, #8
 80016f8:	9300      	str	r3, [sp, #0]
 80016fa:	2302      	movs	r3, #2
 80016fc:	2400      	movs	r4, #0
 80016fe:	4691      	mov	r9, r2
 8001700:	469b      	mov	fp, r3
 8001702:	e68d      	b.n	8001420 <__aeabi_dmul+0x48>
 8001704:	4652      	mov	r2, sl
 8001706:	9b00      	ldr	r3, [sp, #0]
 8001708:	4332      	orrs	r2, r6
 800170a:	d110      	bne.n	800172e <__aeabi_dmul+0x356>
 800170c:	4915      	ldr	r1, [pc, #84]	; (8001764 <__aeabi_dmul+0x38c>)
 800170e:	2600      	movs	r6, #0
 8001710:	468c      	mov	ip, r1
 8001712:	4463      	add	r3, ip
 8001714:	4649      	mov	r1, r9
 8001716:	9300      	str	r3, [sp, #0]
 8001718:	2302      	movs	r3, #2
 800171a:	4319      	orrs	r1, r3
 800171c:	4689      	mov	r9, r1
 800171e:	2002      	movs	r0, #2
 8001720:	e69d      	b.n	800145e <__aeabi_dmul+0x86>
 8001722:	465b      	mov	r3, fp
 8001724:	9701      	str	r7, [sp, #4]
 8001726:	2b02      	cmp	r3, #2
 8001728:	d000      	beq.n	800172c <__aeabi_dmul+0x354>
 800172a:	e6ad      	b.n	8001488 <__aeabi_dmul+0xb0>
 800172c:	e6c3      	b.n	80014b6 <__aeabi_dmul+0xde>
 800172e:	4a0d      	ldr	r2, [pc, #52]	; (8001764 <__aeabi_dmul+0x38c>)
 8001730:	2003      	movs	r0, #3
 8001732:	4694      	mov	ip, r2
 8001734:	4463      	add	r3, ip
 8001736:	464a      	mov	r2, r9
 8001738:	9300      	str	r3, [sp, #0]
 800173a:	2303      	movs	r3, #3
 800173c:	431a      	orrs	r2, r3
 800173e:	4691      	mov	r9, r2
 8001740:	4652      	mov	r2, sl
 8001742:	e68c      	b.n	800145e <__aeabi_dmul+0x86>
 8001744:	220c      	movs	r2, #12
 8001746:	9300      	str	r3, [sp, #0]
 8001748:	2303      	movs	r3, #3
 800174a:	0005      	movs	r5, r0
 800174c:	4691      	mov	r9, r2
 800174e:	469b      	mov	fp, r3
 8001750:	e666      	b.n	8001420 <__aeabi_dmul+0x48>
 8001752:	2304      	movs	r3, #4
 8001754:	4699      	mov	r9, r3
 8001756:	2300      	movs	r3, #0
 8001758:	9300      	str	r3, [sp, #0]
 800175a:	3301      	adds	r3, #1
 800175c:	2400      	movs	r4, #0
 800175e:	469b      	mov	fp, r3
 8001760:	e65e      	b.n	8001420 <__aeabi_dmul+0x48>
 8001762:	46c0      	nop			; (mov r8, r8)
 8001764:	000007ff 	.word	0x000007ff
 8001768:	fffffc01 	.word	0xfffffc01
<<<<<<< HEAD
 800176c:	08007be0 	.word	0x08007be0
=======
 800176c:	08007ac0 	.word	0x08007ac0
>>>>>>> 7d7ca595f0febf8d38881680e06789eb0f92c049
 8001770:	000003ff 	.word	0x000003ff
 8001774:	feffffff 	.word	0xfeffffff
 8001778:	000007fe 	.word	0x000007fe
 800177c:	fffffc0d 	.word	0xfffffc0d
 8001780:	4649      	mov	r1, r9
 8001782:	2301      	movs	r3, #1
 8001784:	4319      	orrs	r1, r3
 8001786:	4689      	mov	r9, r1
 8001788:	2600      	movs	r6, #0
 800178a:	2001      	movs	r0, #1
 800178c:	e667      	b.n	800145e <__aeabi_dmul+0x86>
 800178e:	2300      	movs	r3, #0
 8001790:	2480      	movs	r4, #128	; 0x80
 8001792:	2500      	movs	r5, #0
 8001794:	4a43      	ldr	r2, [pc, #268]	; (80018a4 <__aeabi_dmul+0x4cc>)
 8001796:	9301      	str	r3, [sp, #4]
 8001798:	0324      	lsls	r4, r4, #12
 800179a:	e67e      	b.n	800149a <__aeabi_dmul+0xc2>
 800179c:	2001      	movs	r0, #1
 800179e:	1a40      	subs	r0, r0, r1
 80017a0:	2838      	cmp	r0, #56	; 0x38
 80017a2:	dd00      	ble.n	80017a6 <__aeabi_dmul+0x3ce>
 80017a4:	e676      	b.n	8001494 <__aeabi_dmul+0xbc>
 80017a6:	281f      	cmp	r0, #31
 80017a8:	dd5b      	ble.n	8001862 <__aeabi_dmul+0x48a>
 80017aa:	221f      	movs	r2, #31
 80017ac:	0023      	movs	r3, r4
 80017ae:	4252      	negs	r2, r2
 80017b0:	1a51      	subs	r1, r2, r1
 80017b2:	40cb      	lsrs	r3, r1
 80017b4:	0019      	movs	r1, r3
 80017b6:	2820      	cmp	r0, #32
 80017b8:	d003      	beq.n	80017c2 <__aeabi_dmul+0x3ea>
 80017ba:	4a3b      	ldr	r2, [pc, #236]	; (80018a8 <__aeabi_dmul+0x4d0>)
 80017bc:	4462      	add	r2, ip
 80017be:	4094      	lsls	r4, r2
 80017c0:	4325      	orrs	r5, r4
 80017c2:	1e6a      	subs	r2, r5, #1
 80017c4:	4195      	sbcs	r5, r2
 80017c6:	002a      	movs	r2, r5
 80017c8:	430a      	orrs	r2, r1
 80017ca:	2107      	movs	r1, #7
 80017cc:	000d      	movs	r5, r1
 80017ce:	2400      	movs	r4, #0
 80017d0:	4015      	ands	r5, r2
 80017d2:	4211      	tst	r1, r2
 80017d4:	d05b      	beq.n	800188e <__aeabi_dmul+0x4b6>
 80017d6:	210f      	movs	r1, #15
 80017d8:	2400      	movs	r4, #0
 80017da:	4011      	ands	r1, r2
 80017dc:	2904      	cmp	r1, #4
 80017de:	d053      	beq.n	8001888 <__aeabi_dmul+0x4b0>
 80017e0:	1d11      	adds	r1, r2, #4
 80017e2:	4291      	cmp	r1, r2
 80017e4:	4192      	sbcs	r2, r2
 80017e6:	4252      	negs	r2, r2
 80017e8:	18a4      	adds	r4, r4, r2
 80017ea:	000a      	movs	r2, r1
 80017ec:	0223      	lsls	r3, r4, #8
 80017ee:	d54b      	bpl.n	8001888 <__aeabi_dmul+0x4b0>
 80017f0:	2201      	movs	r2, #1
 80017f2:	2400      	movs	r4, #0
 80017f4:	2500      	movs	r5, #0
 80017f6:	e650      	b.n	800149a <__aeabi_dmul+0xc2>
 80017f8:	2380      	movs	r3, #128	; 0x80
 80017fa:	031b      	lsls	r3, r3, #12
 80017fc:	421c      	tst	r4, r3
 80017fe:	d009      	beq.n	8001814 <__aeabi_dmul+0x43c>
 8001800:	421e      	tst	r6, r3
 8001802:	d107      	bne.n	8001814 <__aeabi_dmul+0x43c>
 8001804:	4333      	orrs	r3, r6
 8001806:	031c      	lsls	r4, r3, #12
 8001808:	4643      	mov	r3, r8
 800180a:	0015      	movs	r5, r2
 800180c:	0b24      	lsrs	r4, r4, #12
 800180e:	4a25      	ldr	r2, [pc, #148]	; (80018a4 <__aeabi_dmul+0x4cc>)
 8001810:	9301      	str	r3, [sp, #4]
 8001812:	e642      	b.n	800149a <__aeabi_dmul+0xc2>
 8001814:	2280      	movs	r2, #128	; 0x80
 8001816:	0312      	lsls	r2, r2, #12
 8001818:	4314      	orrs	r4, r2
 800181a:	0324      	lsls	r4, r4, #12
 800181c:	4a21      	ldr	r2, [pc, #132]	; (80018a4 <__aeabi_dmul+0x4cc>)
 800181e:	0b24      	lsrs	r4, r4, #12
 8001820:	9701      	str	r7, [sp, #4]
 8001822:	e63a      	b.n	800149a <__aeabi_dmul+0xc2>
 8001824:	f000 fc80 	bl	8002128 <__clzsi2>
 8001828:	0001      	movs	r1, r0
 800182a:	0002      	movs	r2, r0
 800182c:	3115      	adds	r1, #21
 800182e:	3220      	adds	r2, #32
 8001830:	291c      	cmp	r1, #28
 8001832:	dc00      	bgt.n	8001836 <__aeabi_dmul+0x45e>
 8001834:	e74b      	b.n	80016ce <__aeabi_dmul+0x2f6>
 8001836:	0034      	movs	r4, r6
 8001838:	3808      	subs	r0, #8
 800183a:	2500      	movs	r5, #0
 800183c:	4084      	lsls	r4, r0
 800183e:	e750      	b.n	80016e2 <__aeabi_dmul+0x30a>
 8001840:	f000 fc72 	bl	8002128 <__clzsi2>
 8001844:	0003      	movs	r3, r0
 8001846:	001a      	movs	r2, r3
 8001848:	3215      	adds	r2, #21
 800184a:	3020      	adds	r0, #32
 800184c:	2a1c      	cmp	r2, #28
 800184e:	dc00      	bgt.n	8001852 <__aeabi_dmul+0x47a>
 8001850:	e71e      	b.n	8001690 <__aeabi_dmul+0x2b8>
 8001852:	4656      	mov	r6, sl
 8001854:	3b08      	subs	r3, #8
 8001856:	2200      	movs	r2, #0
 8001858:	409e      	lsls	r6, r3
 800185a:	e723      	b.n	80016a4 <__aeabi_dmul+0x2cc>
 800185c:	9b00      	ldr	r3, [sp, #0]
 800185e:	469c      	mov	ip, r3
 8001860:	e6e6      	b.n	8001630 <__aeabi_dmul+0x258>
 8001862:	4912      	ldr	r1, [pc, #72]	; (80018ac <__aeabi_dmul+0x4d4>)
 8001864:	0022      	movs	r2, r4
 8001866:	4461      	add	r1, ip
 8001868:	002e      	movs	r6, r5
 800186a:	408d      	lsls	r5, r1
 800186c:	408a      	lsls	r2, r1
 800186e:	40c6      	lsrs	r6, r0
 8001870:	1e69      	subs	r1, r5, #1
 8001872:	418d      	sbcs	r5, r1
 8001874:	4332      	orrs	r2, r6
 8001876:	432a      	orrs	r2, r5
 8001878:	40c4      	lsrs	r4, r0
 800187a:	0753      	lsls	r3, r2, #29
 800187c:	d0b6      	beq.n	80017ec <__aeabi_dmul+0x414>
 800187e:	210f      	movs	r1, #15
 8001880:	4011      	ands	r1, r2
 8001882:	2904      	cmp	r1, #4
 8001884:	d1ac      	bne.n	80017e0 <__aeabi_dmul+0x408>
 8001886:	e7b1      	b.n	80017ec <__aeabi_dmul+0x414>
 8001888:	0765      	lsls	r5, r4, #29
 800188a:	0264      	lsls	r4, r4, #9
 800188c:	0b24      	lsrs	r4, r4, #12
 800188e:	08d2      	lsrs	r2, r2, #3
 8001890:	4315      	orrs	r5, r2
 8001892:	2200      	movs	r2, #0
 8001894:	e601      	b.n	800149a <__aeabi_dmul+0xc2>
 8001896:	2280      	movs	r2, #128	; 0x80
 8001898:	0312      	lsls	r2, r2, #12
 800189a:	4314      	orrs	r4, r2
 800189c:	0324      	lsls	r4, r4, #12
 800189e:	4a01      	ldr	r2, [pc, #4]	; (80018a4 <__aeabi_dmul+0x4cc>)
 80018a0:	0b24      	lsrs	r4, r4, #12
 80018a2:	e5fa      	b.n	800149a <__aeabi_dmul+0xc2>
 80018a4:	000007ff 	.word	0x000007ff
 80018a8:	0000043e 	.word	0x0000043e
 80018ac:	0000041e 	.word	0x0000041e

080018b0 <__aeabi_dsub>:
 80018b0:	b5f8      	push	{r3, r4, r5, r6, r7, lr}
 80018b2:	4657      	mov	r7, sl
 80018b4:	464e      	mov	r6, r9
 80018b6:	4645      	mov	r5, r8
 80018b8:	46de      	mov	lr, fp
 80018ba:	b5e0      	push	{r5, r6, r7, lr}
 80018bc:	001e      	movs	r6, r3
 80018be:	0017      	movs	r7, r2
 80018c0:	004a      	lsls	r2, r1, #1
 80018c2:	030b      	lsls	r3, r1, #12
 80018c4:	0d52      	lsrs	r2, r2, #21
 80018c6:	0a5b      	lsrs	r3, r3, #9
 80018c8:	4690      	mov	r8, r2
 80018ca:	0f42      	lsrs	r2, r0, #29
 80018cc:	431a      	orrs	r2, r3
 80018ce:	0fcd      	lsrs	r5, r1, #31
 80018d0:	4ccd      	ldr	r4, [pc, #820]	; (8001c08 <__aeabi_dsub+0x358>)
 80018d2:	0331      	lsls	r1, r6, #12
 80018d4:	00c3      	lsls	r3, r0, #3
 80018d6:	4694      	mov	ip, r2
 80018d8:	0070      	lsls	r0, r6, #1
 80018da:	0f7a      	lsrs	r2, r7, #29
 80018dc:	0a49      	lsrs	r1, r1, #9
 80018de:	00ff      	lsls	r7, r7, #3
 80018e0:	469a      	mov	sl, r3
 80018e2:	46b9      	mov	r9, r7
 80018e4:	0d40      	lsrs	r0, r0, #21
 80018e6:	0ff6      	lsrs	r6, r6, #31
 80018e8:	4311      	orrs	r1, r2
 80018ea:	42a0      	cmp	r0, r4
 80018ec:	d100      	bne.n	80018f0 <__aeabi_dsub+0x40>
 80018ee:	e0b1      	b.n	8001a54 <__aeabi_dsub+0x1a4>
 80018f0:	2201      	movs	r2, #1
 80018f2:	4056      	eors	r6, r2
 80018f4:	46b3      	mov	fp, r6
 80018f6:	42b5      	cmp	r5, r6
 80018f8:	d100      	bne.n	80018fc <__aeabi_dsub+0x4c>
 80018fa:	e088      	b.n	8001a0e <__aeabi_dsub+0x15e>
 80018fc:	4642      	mov	r2, r8
 80018fe:	1a12      	subs	r2, r2, r0
 8001900:	2a00      	cmp	r2, #0
 8001902:	dc00      	bgt.n	8001906 <__aeabi_dsub+0x56>
 8001904:	e0ae      	b.n	8001a64 <__aeabi_dsub+0x1b4>
 8001906:	2800      	cmp	r0, #0
 8001908:	d100      	bne.n	800190c <__aeabi_dsub+0x5c>
 800190a:	e0c1      	b.n	8001a90 <__aeabi_dsub+0x1e0>
 800190c:	48be      	ldr	r0, [pc, #760]	; (8001c08 <__aeabi_dsub+0x358>)
 800190e:	4580      	cmp	r8, r0
 8001910:	d100      	bne.n	8001914 <__aeabi_dsub+0x64>
 8001912:	e151      	b.n	8001bb8 <__aeabi_dsub+0x308>
 8001914:	2080      	movs	r0, #128	; 0x80
 8001916:	0400      	lsls	r0, r0, #16
 8001918:	4301      	orrs	r1, r0
 800191a:	2a38      	cmp	r2, #56	; 0x38
 800191c:	dd00      	ble.n	8001920 <__aeabi_dsub+0x70>
 800191e:	e17b      	b.n	8001c18 <__aeabi_dsub+0x368>
 8001920:	2a1f      	cmp	r2, #31
 8001922:	dd00      	ble.n	8001926 <__aeabi_dsub+0x76>
 8001924:	e1ee      	b.n	8001d04 <__aeabi_dsub+0x454>
 8001926:	2020      	movs	r0, #32
 8001928:	003e      	movs	r6, r7
 800192a:	1a80      	subs	r0, r0, r2
 800192c:	000c      	movs	r4, r1
 800192e:	40d6      	lsrs	r6, r2
 8001930:	40d1      	lsrs	r1, r2
 8001932:	4087      	lsls	r7, r0
 8001934:	4662      	mov	r2, ip
 8001936:	4084      	lsls	r4, r0
 8001938:	1a52      	subs	r2, r2, r1
 800193a:	1e78      	subs	r0, r7, #1
 800193c:	4187      	sbcs	r7, r0
 800193e:	4694      	mov	ip, r2
 8001940:	4334      	orrs	r4, r6
 8001942:	4327      	orrs	r7, r4
 8001944:	1bdc      	subs	r4, r3, r7
 8001946:	42a3      	cmp	r3, r4
 8001948:	419b      	sbcs	r3, r3
 800194a:	4662      	mov	r2, ip
 800194c:	425b      	negs	r3, r3
 800194e:	1ad3      	subs	r3, r2, r3
 8001950:	4699      	mov	r9, r3
 8001952:	464b      	mov	r3, r9
 8001954:	021b      	lsls	r3, r3, #8
 8001956:	d400      	bmi.n	800195a <__aeabi_dsub+0xaa>
 8001958:	e118      	b.n	8001b8c <__aeabi_dsub+0x2dc>
 800195a:	464b      	mov	r3, r9
 800195c:	0258      	lsls	r0, r3, #9
 800195e:	0a43      	lsrs	r3, r0, #9
 8001960:	4699      	mov	r9, r3
 8001962:	464b      	mov	r3, r9
 8001964:	2b00      	cmp	r3, #0
 8001966:	d100      	bne.n	800196a <__aeabi_dsub+0xba>
 8001968:	e137      	b.n	8001bda <__aeabi_dsub+0x32a>
 800196a:	4648      	mov	r0, r9
 800196c:	f000 fbdc 	bl	8002128 <__clzsi2>
 8001970:	0001      	movs	r1, r0
 8001972:	3908      	subs	r1, #8
 8001974:	2320      	movs	r3, #32
 8001976:	0022      	movs	r2, r4
 8001978:	4648      	mov	r0, r9
 800197a:	1a5b      	subs	r3, r3, r1
 800197c:	40da      	lsrs	r2, r3
 800197e:	4088      	lsls	r0, r1
 8001980:	408c      	lsls	r4, r1
 8001982:	4643      	mov	r3, r8
 8001984:	4310      	orrs	r0, r2
 8001986:	4588      	cmp	r8, r1
 8001988:	dd00      	ble.n	800198c <__aeabi_dsub+0xdc>
 800198a:	e136      	b.n	8001bfa <__aeabi_dsub+0x34a>
 800198c:	1ac9      	subs	r1, r1, r3
 800198e:	1c4b      	adds	r3, r1, #1
 8001990:	2b1f      	cmp	r3, #31
 8001992:	dd00      	ble.n	8001996 <__aeabi_dsub+0xe6>
 8001994:	e0ea      	b.n	8001b6c <__aeabi_dsub+0x2bc>
 8001996:	2220      	movs	r2, #32
 8001998:	0026      	movs	r6, r4
 800199a:	1ad2      	subs	r2, r2, r3
 800199c:	0001      	movs	r1, r0
 800199e:	4094      	lsls	r4, r2
 80019a0:	40de      	lsrs	r6, r3
 80019a2:	40d8      	lsrs	r0, r3
 80019a4:	2300      	movs	r3, #0
 80019a6:	4091      	lsls	r1, r2
 80019a8:	1e62      	subs	r2, r4, #1
 80019aa:	4194      	sbcs	r4, r2
 80019ac:	4681      	mov	r9, r0
 80019ae:	4698      	mov	r8, r3
 80019b0:	4331      	orrs	r1, r6
 80019b2:	430c      	orrs	r4, r1
 80019b4:	0763      	lsls	r3, r4, #29
 80019b6:	d009      	beq.n	80019cc <__aeabi_dsub+0x11c>
 80019b8:	230f      	movs	r3, #15
 80019ba:	4023      	ands	r3, r4
 80019bc:	2b04      	cmp	r3, #4
 80019be:	d005      	beq.n	80019cc <__aeabi_dsub+0x11c>
 80019c0:	1d23      	adds	r3, r4, #4
 80019c2:	42a3      	cmp	r3, r4
 80019c4:	41a4      	sbcs	r4, r4
 80019c6:	4264      	negs	r4, r4
 80019c8:	44a1      	add	r9, r4
 80019ca:	001c      	movs	r4, r3
 80019cc:	464b      	mov	r3, r9
 80019ce:	021b      	lsls	r3, r3, #8
 80019d0:	d400      	bmi.n	80019d4 <__aeabi_dsub+0x124>
 80019d2:	e0de      	b.n	8001b92 <__aeabi_dsub+0x2e2>
 80019d4:	4641      	mov	r1, r8
 80019d6:	4b8c      	ldr	r3, [pc, #560]	; (8001c08 <__aeabi_dsub+0x358>)
 80019d8:	3101      	adds	r1, #1
 80019da:	4299      	cmp	r1, r3
 80019dc:	d100      	bne.n	80019e0 <__aeabi_dsub+0x130>
 80019de:	e0e7      	b.n	8001bb0 <__aeabi_dsub+0x300>
 80019e0:	464b      	mov	r3, r9
 80019e2:	488a      	ldr	r0, [pc, #552]	; (8001c0c <__aeabi_dsub+0x35c>)
 80019e4:	08e4      	lsrs	r4, r4, #3
 80019e6:	4003      	ands	r3, r0
 80019e8:	0018      	movs	r0, r3
 80019ea:	0549      	lsls	r1, r1, #21
 80019ec:	075b      	lsls	r3, r3, #29
 80019ee:	0240      	lsls	r0, r0, #9
 80019f0:	4323      	orrs	r3, r4
 80019f2:	0d4a      	lsrs	r2, r1, #21
 80019f4:	0b04      	lsrs	r4, r0, #12
 80019f6:	0512      	lsls	r2, r2, #20
 80019f8:	07ed      	lsls	r5, r5, #31
 80019fa:	4322      	orrs	r2, r4
 80019fc:	432a      	orrs	r2, r5
 80019fe:	0018      	movs	r0, r3
 8001a00:	0011      	movs	r1, r2
 8001a02:	bcf0      	pop	{r4, r5, r6, r7}
 8001a04:	46bb      	mov	fp, r7
 8001a06:	46b2      	mov	sl, r6
 8001a08:	46a9      	mov	r9, r5
 8001a0a:	46a0      	mov	r8, r4
 8001a0c:	bdf8      	pop	{r3, r4, r5, r6, r7, pc}
 8001a0e:	4642      	mov	r2, r8
 8001a10:	1a12      	subs	r2, r2, r0
 8001a12:	2a00      	cmp	r2, #0
 8001a14:	dd52      	ble.n	8001abc <__aeabi_dsub+0x20c>
 8001a16:	2800      	cmp	r0, #0
 8001a18:	d100      	bne.n	8001a1c <__aeabi_dsub+0x16c>
 8001a1a:	e09c      	b.n	8001b56 <__aeabi_dsub+0x2a6>
 8001a1c:	45a0      	cmp	r8, r4
 8001a1e:	d100      	bne.n	8001a22 <__aeabi_dsub+0x172>
 8001a20:	e0ca      	b.n	8001bb8 <__aeabi_dsub+0x308>
 8001a22:	2080      	movs	r0, #128	; 0x80
 8001a24:	0400      	lsls	r0, r0, #16
 8001a26:	4301      	orrs	r1, r0
 8001a28:	2a38      	cmp	r2, #56	; 0x38
 8001a2a:	dd00      	ble.n	8001a2e <__aeabi_dsub+0x17e>
 8001a2c:	e149      	b.n	8001cc2 <__aeabi_dsub+0x412>
 8001a2e:	2a1f      	cmp	r2, #31
 8001a30:	dc00      	bgt.n	8001a34 <__aeabi_dsub+0x184>
 8001a32:	e197      	b.n	8001d64 <__aeabi_dsub+0x4b4>
 8001a34:	0010      	movs	r0, r2
 8001a36:	000e      	movs	r6, r1
 8001a38:	3820      	subs	r0, #32
 8001a3a:	40c6      	lsrs	r6, r0
 8001a3c:	2a20      	cmp	r2, #32
 8001a3e:	d004      	beq.n	8001a4a <__aeabi_dsub+0x19a>
 8001a40:	2040      	movs	r0, #64	; 0x40
 8001a42:	1a82      	subs	r2, r0, r2
 8001a44:	4091      	lsls	r1, r2
 8001a46:	430f      	orrs	r7, r1
 8001a48:	46b9      	mov	r9, r7
 8001a4a:	464c      	mov	r4, r9
 8001a4c:	1e62      	subs	r2, r4, #1
 8001a4e:	4194      	sbcs	r4, r2
 8001a50:	4334      	orrs	r4, r6
 8001a52:	e13a      	b.n	8001cca <__aeabi_dsub+0x41a>
 8001a54:	000a      	movs	r2, r1
 8001a56:	433a      	orrs	r2, r7
 8001a58:	d028      	beq.n	8001aac <__aeabi_dsub+0x1fc>
 8001a5a:	46b3      	mov	fp, r6
 8001a5c:	42b5      	cmp	r5, r6
 8001a5e:	d02b      	beq.n	8001ab8 <__aeabi_dsub+0x208>
 8001a60:	4a6b      	ldr	r2, [pc, #428]	; (8001c10 <__aeabi_dsub+0x360>)
 8001a62:	4442      	add	r2, r8
 8001a64:	2a00      	cmp	r2, #0
 8001a66:	d05d      	beq.n	8001b24 <__aeabi_dsub+0x274>
 8001a68:	4642      	mov	r2, r8
 8001a6a:	4644      	mov	r4, r8
 8001a6c:	1a82      	subs	r2, r0, r2
 8001a6e:	2c00      	cmp	r4, #0
 8001a70:	d000      	beq.n	8001a74 <__aeabi_dsub+0x1c4>
 8001a72:	e0f5      	b.n	8001c60 <__aeabi_dsub+0x3b0>
 8001a74:	4665      	mov	r5, ip
 8001a76:	431d      	orrs	r5, r3
 8001a78:	d100      	bne.n	8001a7c <__aeabi_dsub+0x1cc>
 8001a7a:	e19c      	b.n	8001db6 <__aeabi_dsub+0x506>
 8001a7c:	1e55      	subs	r5, r2, #1
 8001a7e:	2a01      	cmp	r2, #1
 8001a80:	d100      	bne.n	8001a84 <__aeabi_dsub+0x1d4>
 8001a82:	e1fb      	b.n	8001e7c <__aeabi_dsub+0x5cc>
 8001a84:	4c60      	ldr	r4, [pc, #384]	; (8001c08 <__aeabi_dsub+0x358>)
 8001a86:	42a2      	cmp	r2, r4
 8001a88:	d100      	bne.n	8001a8c <__aeabi_dsub+0x1dc>
 8001a8a:	e1bd      	b.n	8001e08 <__aeabi_dsub+0x558>
 8001a8c:	002a      	movs	r2, r5
 8001a8e:	e0f0      	b.n	8001c72 <__aeabi_dsub+0x3c2>
 8001a90:	0008      	movs	r0, r1
 8001a92:	4338      	orrs	r0, r7
 8001a94:	d100      	bne.n	8001a98 <__aeabi_dsub+0x1e8>
 8001a96:	e0c3      	b.n	8001c20 <__aeabi_dsub+0x370>
 8001a98:	1e50      	subs	r0, r2, #1
 8001a9a:	2a01      	cmp	r2, #1
 8001a9c:	d100      	bne.n	8001aa0 <__aeabi_dsub+0x1f0>
 8001a9e:	e1a8      	b.n	8001df2 <__aeabi_dsub+0x542>
 8001aa0:	4c59      	ldr	r4, [pc, #356]	; (8001c08 <__aeabi_dsub+0x358>)
 8001aa2:	42a2      	cmp	r2, r4
 8001aa4:	d100      	bne.n	8001aa8 <__aeabi_dsub+0x1f8>
 8001aa6:	e087      	b.n	8001bb8 <__aeabi_dsub+0x308>
 8001aa8:	0002      	movs	r2, r0
 8001aaa:	e736      	b.n	800191a <__aeabi_dsub+0x6a>
 8001aac:	2201      	movs	r2, #1
 8001aae:	4056      	eors	r6, r2
 8001ab0:	46b3      	mov	fp, r6
 8001ab2:	42b5      	cmp	r5, r6
 8001ab4:	d000      	beq.n	8001ab8 <__aeabi_dsub+0x208>
 8001ab6:	e721      	b.n	80018fc <__aeabi_dsub+0x4c>
 8001ab8:	4a55      	ldr	r2, [pc, #340]	; (8001c10 <__aeabi_dsub+0x360>)
 8001aba:	4442      	add	r2, r8
 8001abc:	2a00      	cmp	r2, #0
 8001abe:	d100      	bne.n	8001ac2 <__aeabi_dsub+0x212>
 8001ac0:	e0b5      	b.n	8001c2e <__aeabi_dsub+0x37e>
 8001ac2:	4642      	mov	r2, r8
 8001ac4:	4644      	mov	r4, r8
 8001ac6:	1a82      	subs	r2, r0, r2
 8001ac8:	2c00      	cmp	r4, #0
 8001aca:	d100      	bne.n	8001ace <__aeabi_dsub+0x21e>
 8001acc:	e138      	b.n	8001d40 <__aeabi_dsub+0x490>
 8001ace:	4e4e      	ldr	r6, [pc, #312]	; (8001c08 <__aeabi_dsub+0x358>)
 8001ad0:	42b0      	cmp	r0, r6
 8001ad2:	d100      	bne.n	8001ad6 <__aeabi_dsub+0x226>
 8001ad4:	e1de      	b.n	8001e94 <__aeabi_dsub+0x5e4>
 8001ad6:	2680      	movs	r6, #128	; 0x80
 8001ad8:	4664      	mov	r4, ip
 8001ada:	0436      	lsls	r6, r6, #16
 8001adc:	4334      	orrs	r4, r6
 8001ade:	46a4      	mov	ip, r4
 8001ae0:	2a38      	cmp	r2, #56	; 0x38
 8001ae2:	dd00      	ble.n	8001ae6 <__aeabi_dsub+0x236>
 8001ae4:	e196      	b.n	8001e14 <__aeabi_dsub+0x564>
 8001ae6:	2a1f      	cmp	r2, #31
 8001ae8:	dd00      	ble.n	8001aec <__aeabi_dsub+0x23c>
 8001aea:	e224      	b.n	8001f36 <__aeabi_dsub+0x686>
 8001aec:	2620      	movs	r6, #32
 8001aee:	1ab4      	subs	r4, r6, r2
 8001af0:	46a2      	mov	sl, r4
 8001af2:	4664      	mov	r4, ip
 8001af4:	4656      	mov	r6, sl
 8001af6:	40b4      	lsls	r4, r6
 8001af8:	46a1      	mov	r9, r4
 8001afa:	001c      	movs	r4, r3
 8001afc:	464e      	mov	r6, r9
 8001afe:	40d4      	lsrs	r4, r2
 8001b00:	4326      	orrs	r6, r4
 8001b02:	0034      	movs	r4, r6
 8001b04:	4656      	mov	r6, sl
 8001b06:	40b3      	lsls	r3, r6
 8001b08:	1e5e      	subs	r6, r3, #1
 8001b0a:	41b3      	sbcs	r3, r6
 8001b0c:	431c      	orrs	r4, r3
 8001b0e:	4663      	mov	r3, ip
 8001b10:	40d3      	lsrs	r3, r2
 8001b12:	18c9      	adds	r1, r1, r3
 8001b14:	19e4      	adds	r4, r4, r7
 8001b16:	42bc      	cmp	r4, r7
 8001b18:	41bf      	sbcs	r7, r7
 8001b1a:	427f      	negs	r7, r7
 8001b1c:	46b9      	mov	r9, r7
 8001b1e:	4680      	mov	r8, r0
 8001b20:	4489      	add	r9, r1
 8001b22:	e0d8      	b.n	8001cd6 <__aeabi_dsub+0x426>
 8001b24:	4640      	mov	r0, r8
 8001b26:	4c3b      	ldr	r4, [pc, #236]	; (8001c14 <__aeabi_dsub+0x364>)
 8001b28:	3001      	adds	r0, #1
 8001b2a:	4220      	tst	r0, r4
 8001b2c:	d000      	beq.n	8001b30 <__aeabi_dsub+0x280>
 8001b2e:	e0b4      	b.n	8001c9a <__aeabi_dsub+0x3ea>
 8001b30:	4640      	mov	r0, r8
 8001b32:	2800      	cmp	r0, #0
 8001b34:	d000      	beq.n	8001b38 <__aeabi_dsub+0x288>
 8001b36:	e144      	b.n	8001dc2 <__aeabi_dsub+0x512>
 8001b38:	4660      	mov	r0, ip
 8001b3a:	4318      	orrs	r0, r3
 8001b3c:	d100      	bne.n	8001b40 <__aeabi_dsub+0x290>
 8001b3e:	e190      	b.n	8001e62 <__aeabi_dsub+0x5b2>
 8001b40:	0008      	movs	r0, r1
 8001b42:	4338      	orrs	r0, r7
 8001b44:	d000      	beq.n	8001b48 <__aeabi_dsub+0x298>
 8001b46:	e1aa      	b.n	8001e9e <__aeabi_dsub+0x5ee>
 8001b48:	4661      	mov	r1, ip
 8001b4a:	08db      	lsrs	r3, r3, #3
 8001b4c:	0749      	lsls	r1, r1, #29
 8001b4e:	430b      	orrs	r3, r1
 8001b50:	4661      	mov	r1, ip
 8001b52:	08cc      	lsrs	r4, r1, #3
 8001b54:	e027      	b.n	8001ba6 <__aeabi_dsub+0x2f6>
 8001b56:	0008      	movs	r0, r1
 8001b58:	4338      	orrs	r0, r7
 8001b5a:	d061      	beq.n	8001c20 <__aeabi_dsub+0x370>
 8001b5c:	1e50      	subs	r0, r2, #1
 8001b5e:	2a01      	cmp	r2, #1
 8001b60:	d100      	bne.n	8001b64 <__aeabi_dsub+0x2b4>
 8001b62:	e139      	b.n	8001dd8 <__aeabi_dsub+0x528>
 8001b64:	42a2      	cmp	r2, r4
 8001b66:	d027      	beq.n	8001bb8 <__aeabi_dsub+0x308>
 8001b68:	0002      	movs	r2, r0
 8001b6a:	e75d      	b.n	8001a28 <__aeabi_dsub+0x178>
 8001b6c:	0002      	movs	r2, r0
 8001b6e:	391f      	subs	r1, #31
 8001b70:	40ca      	lsrs	r2, r1
 8001b72:	0011      	movs	r1, r2
 8001b74:	2b20      	cmp	r3, #32
 8001b76:	d003      	beq.n	8001b80 <__aeabi_dsub+0x2d0>
 8001b78:	2240      	movs	r2, #64	; 0x40
 8001b7a:	1ad3      	subs	r3, r2, r3
 8001b7c:	4098      	lsls	r0, r3
 8001b7e:	4304      	orrs	r4, r0
 8001b80:	1e63      	subs	r3, r4, #1
 8001b82:	419c      	sbcs	r4, r3
 8001b84:	2300      	movs	r3, #0
 8001b86:	4699      	mov	r9, r3
 8001b88:	4698      	mov	r8, r3
 8001b8a:	430c      	orrs	r4, r1
 8001b8c:	0763      	lsls	r3, r4, #29
 8001b8e:	d000      	beq.n	8001b92 <__aeabi_dsub+0x2e2>
 8001b90:	e712      	b.n	80019b8 <__aeabi_dsub+0x108>
 8001b92:	464b      	mov	r3, r9
 8001b94:	464a      	mov	r2, r9
 8001b96:	08e4      	lsrs	r4, r4, #3
 8001b98:	075b      	lsls	r3, r3, #29
 8001b9a:	4323      	orrs	r3, r4
 8001b9c:	08d4      	lsrs	r4, r2, #3
 8001b9e:	4642      	mov	r2, r8
 8001ba0:	4919      	ldr	r1, [pc, #100]	; (8001c08 <__aeabi_dsub+0x358>)
 8001ba2:	428a      	cmp	r2, r1
 8001ba4:	d00e      	beq.n	8001bc4 <__aeabi_dsub+0x314>
 8001ba6:	0324      	lsls	r4, r4, #12
 8001ba8:	0552      	lsls	r2, r2, #21
 8001baa:	0b24      	lsrs	r4, r4, #12
 8001bac:	0d52      	lsrs	r2, r2, #21
 8001bae:	e722      	b.n	80019f6 <__aeabi_dsub+0x146>
 8001bb0:	000a      	movs	r2, r1
 8001bb2:	2400      	movs	r4, #0
 8001bb4:	2300      	movs	r3, #0
 8001bb6:	e71e      	b.n	80019f6 <__aeabi_dsub+0x146>
 8001bb8:	08db      	lsrs	r3, r3, #3
 8001bba:	4662      	mov	r2, ip
 8001bbc:	0752      	lsls	r2, r2, #29
 8001bbe:	4313      	orrs	r3, r2
 8001bc0:	4662      	mov	r2, ip
 8001bc2:	08d4      	lsrs	r4, r2, #3
 8001bc4:	001a      	movs	r2, r3
 8001bc6:	4322      	orrs	r2, r4
 8001bc8:	d100      	bne.n	8001bcc <__aeabi_dsub+0x31c>
 8001bca:	e1fc      	b.n	8001fc6 <__aeabi_dsub+0x716>
 8001bcc:	2280      	movs	r2, #128	; 0x80
 8001bce:	0312      	lsls	r2, r2, #12
 8001bd0:	4314      	orrs	r4, r2
 8001bd2:	0324      	lsls	r4, r4, #12
 8001bd4:	4a0c      	ldr	r2, [pc, #48]	; (8001c08 <__aeabi_dsub+0x358>)
 8001bd6:	0b24      	lsrs	r4, r4, #12
 8001bd8:	e70d      	b.n	80019f6 <__aeabi_dsub+0x146>
 8001bda:	0020      	movs	r0, r4
 8001bdc:	f000 faa4 	bl	8002128 <__clzsi2>
 8001be0:	0001      	movs	r1, r0
 8001be2:	3118      	adds	r1, #24
 8001be4:	291f      	cmp	r1, #31
 8001be6:	dc00      	bgt.n	8001bea <__aeabi_dsub+0x33a>
 8001be8:	e6c4      	b.n	8001974 <__aeabi_dsub+0xc4>
 8001bea:	3808      	subs	r0, #8
 8001bec:	4084      	lsls	r4, r0
 8001bee:	4643      	mov	r3, r8
 8001bf0:	0020      	movs	r0, r4
 8001bf2:	2400      	movs	r4, #0
 8001bf4:	4588      	cmp	r8, r1
 8001bf6:	dc00      	bgt.n	8001bfa <__aeabi_dsub+0x34a>
 8001bf8:	e6c8      	b.n	800198c <__aeabi_dsub+0xdc>
 8001bfa:	4a04      	ldr	r2, [pc, #16]	; (8001c0c <__aeabi_dsub+0x35c>)
 8001bfc:	1a5b      	subs	r3, r3, r1
 8001bfe:	4010      	ands	r0, r2
 8001c00:	4698      	mov	r8, r3
 8001c02:	4681      	mov	r9, r0
 8001c04:	e6d6      	b.n	80019b4 <__aeabi_dsub+0x104>
 8001c06:	46c0      	nop			; (mov r8, r8)
 8001c08:	000007ff 	.word	0x000007ff
 8001c0c:	ff7fffff 	.word	0xff7fffff
 8001c10:	fffff801 	.word	0xfffff801
 8001c14:	000007fe 	.word	0x000007fe
 8001c18:	430f      	orrs	r7, r1
 8001c1a:	1e7a      	subs	r2, r7, #1
 8001c1c:	4197      	sbcs	r7, r2
 8001c1e:	e691      	b.n	8001944 <__aeabi_dsub+0x94>
 8001c20:	4661      	mov	r1, ip
 8001c22:	08db      	lsrs	r3, r3, #3
 8001c24:	0749      	lsls	r1, r1, #29
 8001c26:	430b      	orrs	r3, r1
 8001c28:	4661      	mov	r1, ip
 8001c2a:	08cc      	lsrs	r4, r1, #3
 8001c2c:	e7b8      	b.n	8001ba0 <__aeabi_dsub+0x2f0>
 8001c2e:	4640      	mov	r0, r8
 8001c30:	4cd3      	ldr	r4, [pc, #844]	; (8001f80 <__aeabi_dsub+0x6d0>)
 8001c32:	3001      	adds	r0, #1
 8001c34:	4220      	tst	r0, r4
 8001c36:	d000      	beq.n	8001c3a <__aeabi_dsub+0x38a>
 8001c38:	e0a2      	b.n	8001d80 <__aeabi_dsub+0x4d0>
 8001c3a:	4640      	mov	r0, r8
 8001c3c:	2800      	cmp	r0, #0
 8001c3e:	d000      	beq.n	8001c42 <__aeabi_dsub+0x392>
 8001c40:	e101      	b.n	8001e46 <__aeabi_dsub+0x596>
 8001c42:	4660      	mov	r0, ip
 8001c44:	4318      	orrs	r0, r3
 8001c46:	d100      	bne.n	8001c4a <__aeabi_dsub+0x39a>
 8001c48:	e15e      	b.n	8001f08 <__aeabi_dsub+0x658>
 8001c4a:	0008      	movs	r0, r1
 8001c4c:	4338      	orrs	r0, r7
 8001c4e:	d000      	beq.n	8001c52 <__aeabi_dsub+0x3a2>
 8001c50:	e15f      	b.n	8001f12 <__aeabi_dsub+0x662>
 8001c52:	4661      	mov	r1, ip
 8001c54:	08db      	lsrs	r3, r3, #3
 8001c56:	0749      	lsls	r1, r1, #29
 8001c58:	430b      	orrs	r3, r1
 8001c5a:	4661      	mov	r1, ip
 8001c5c:	08cc      	lsrs	r4, r1, #3
 8001c5e:	e7a2      	b.n	8001ba6 <__aeabi_dsub+0x2f6>
 8001c60:	4dc8      	ldr	r5, [pc, #800]	; (8001f84 <__aeabi_dsub+0x6d4>)
 8001c62:	42a8      	cmp	r0, r5
 8001c64:	d100      	bne.n	8001c68 <__aeabi_dsub+0x3b8>
 8001c66:	e0cf      	b.n	8001e08 <__aeabi_dsub+0x558>
 8001c68:	2580      	movs	r5, #128	; 0x80
 8001c6a:	4664      	mov	r4, ip
 8001c6c:	042d      	lsls	r5, r5, #16
 8001c6e:	432c      	orrs	r4, r5
 8001c70:	46a4      	mov	ip, r4
 8001c72:	2a38      	cmp	r2, #56	; 0x38
 8001c74:	dc56      	bgt.n	8001d24 <__aeabi_dsub+0x474>
 8001c76:	2a1f      	cmp	r2, #31
 8001c78:	dd00      	ble.n	8001c7c <__aeabi_dsub+0x3cc>
 8001c7a:	e0d1      	b.n	8001e20 <__aeabi_dsub+0x570>
 8001c7c:	2520      	movs	r5, #32
 8001c7e:	001e      	movs	r6, r3
 8001c80:	1aad      	subs	r5, r5, r2
 8001c82:	4664      	mov	r4, ip
 8001c84:	40ab      	lsls	r3, r5
 8001c86:	40ac      	lsls	r4, r5
 8001c88:	40d6      	lsrs	r6, r2
 8001c8a:	1e5d      	subs	r5, r3, #1
 8001c8c:	41ab      	sbcs	r3, r5
 8001c8e:	4334      	orrs	r4, r6
 8001c90:	4323      	orrs	r3, r4
 8001c92:	4664      	mov	r4, ip
 8001c94:	40d4      	lsrs	r4, r2
 8001c96:	1b09      	subs	r1, r1, r4
 8001c98:	e049      	b.n	8001d2e <__aeabi_dsub+0x47e>
 8001c9a:	4660      	mov	r0, ip
 8001c9c:	1bdc      	subs	r4, r3, r7
 8001c9e:	1a46      	subs	r6, r0, r1
 8001ca0:	42a3      	cmp	r3, r4
 8001ca2:	4180      	sbcs	r0, r0
 8001ca4:	4240      	negs	r0, r0
 8001ca6:	4681      	mov	r9, r0
 8001ca8:	0030      	movs	r0, r6
 8001caa:	464e      	mov	r6, r9
 8001cac:	1b80      	subs	r0, r0, r6
 8001cae:	4681      	mov	r9, r0
 8001cb0:	0200      	lsls	r0, r0, #8
 8001cb2:	d476      	bmi.n	8001da2 <__aeabi_dsub+0x4f2>
 8001cb4:	464b      	mov	r3, r9
 8001cb6:	4323      	orrs	r3, r4
 8001cb8:	d000      	beq.n	8001cbc <__aeabi_dsub+0x40c>
 8001cba:	e652      	b.n	8001962 <__aeabi_dsub+0xb2>
 8001cbc:	2400      	movs	r4, #0
 8001cbe:	2500      	movs	r5, #0
 8001cc0:	e771      	b.n	8001ba6 <__aeabi_dsub+0x2f6>
 8001cc2:	4339      	orrs	r1, r7
 8001cc4:	000c      	movs	r4, r1
 8001cc6:	1e62      	subs	r2, r4, #1
 8001cc8:	4194      	sbcs	r4, r2
 8001cca:	18e4      	adds	r4, r4, r3
 8001ccc:	429c      	cmp	r4, r3
 8001cce:	419b      	sbcs	r3, r3
 8001cd0:	425b      	negs	r3, r3
 8001cd2:	4463      	add	r3, ip
 8001cd4:	4699      	mov	r9, r3
 8001cd6:	464b      	mov	r3, r9
 8001cd8:	021b      	lsls	r3, r3, #8
 8001cda:	d400      	bmi.n	8001cde <__aeabi_dsub+0x42e>
 8001cdc:	e756      	b.n	8001b8c <__aeabi_dsub+0x2dc>
 8001cde:	2301      	movs	r3, #1
 8001ce0:	469c      	mov	ip, r3
 8001ce2:	4ba8      	ldr	r3, [pc, #672]	; (8001f84 <__aeabi_dsub+0x6d4>)
 8001ce4:	44e0      	add	r8, ip
 8001ce6:	4598      	cmp	r8, r3
 8001ce8:	d038      	beq.n	8001d5c <__aeabi_dsub+0x4ac>
 8001cea:	464b      	mov	r3, r9
 8001cec:	48a6      	ldr	r0, [pc, #664]	; (8001f88 <__aeabi_dsub+0x6d8>)
 8001cee:	2201      	movs	r2, #1
 8001cf0:	4003      	ands	r3, r0
 8001cf2:	0018      	movs	r0, r3
 8001cf4:	0863      	lsrs	r3, r4, #1
 8001cf6:	4014      	ands	r4, r2
 8001cf8:	431c      	orrs	r4, r3
 8001cfa:	07c3      	lsls	r3, r0, #31
 8001cfc:	431c      	orrs	r4, r3
 8001cfe:	0843      	lsrs	r3, r0, #1
 8001d00:	4699      	mov	r9, r3
 8001d02:	e657      	b.n	80019b4 <__aeabi_dsub+0x104>
 8001d04:	0010      	movs	r0, r2
 8001d06:	000e      	movs	r6, r1
 8001d08:	3820      	subs	r0, #32
 8001d0a:	40c6      	lsrs	r6, r0
 8001d0c:	2a20      	cmp	r2, #32
 8001d0e:	d004      	beq.n	8001d1a <__aeabi_dsub+0x46a>
 8001d10:	2040      	movs	r0, #64	; 0x40
 8001d12:	1a82      	subs	r2, r0, r2
 8001d14:	4091      	lsls	r1, r2
 8001d16:	430f      	orrs	r7, r1
 8001d18:	46b9      	mov	r9, r7
 8001d1a:	464f      	mov	r7, r9
 8001d1c:	1e7a      	subs	r2, r7, #1
 8001d1e:	4197      	sbcs	r7, r2
 8001d20:	4337      	orrs	r7, r6
 8001d22:	e60f      	b.n	8001944 <__aeabi_dsub+0x94>
 8001d24:	4662      	mov	r2, ip
 8001d26:	431a      	orrs	r2, r3
 8001d28:	0013      	movs	r3, r2
 8001d2a:	1e5a      	subs	r2, r3, #1
 8001d2c:	4193      	sbcs	r3, r2
 8001d2e:	1afc      	subs	r4, r7, r3
 8001d30:	42a7      	cmp	r7, r4
 8001d32:	41bf      	sbcs	r7, r7
 8001d34:	427f      	negs	r7, r7
 8001d36:	1bcb      	subs	r3, r1, r7
 8001d38:	4699      	mov	r9, r3
 8001d3a:	465d      	mov	r5, fp
 8001d3c:	4680      	mov	r8, r0
 8001d3e:	e608      	b.n	8001952 <__aeabi_dsub+0xa2>
 8001d40:	4666      	mov	r6, ip
 8001d42:	431e      	orrs	r6, r3
 8001d44:	d100      	bne.n	8001d48 <__aeabi_dsub+0x498>
 8001d46:	e0be      	b.n	8001ec6 <__aeabi_dsub+0x616>
 8001d48:	1e56      	subs	r6, r2, #1
 8001d4a:	2a01      	cmp	r2, #1
 8001d4c:	d100      	bne.n	8001d50 <__aeabi_dsub+0x4a0>
 8001d4e:	e109      	b.n	8001f64 <__aeabi_dsub+0x6b4>
 8001d50:	4c8c      	ldr	r4, [pc, #560]	; (8001f84 <__aeabi_dsub+0x6d4>)
 8001d52:	42a2      	cmp	r2, r4
 8001d54:	d100      	bne.n	8001d58 <__aeabi_dsub+0x4a8>
 8001d56:	e119      	b.n	8001f8c <__aeabi_dsub+0x6dc>
 8001d58:	0032      	movs	r2, r6
 8001d5a:	e6c1      	b.n	8001ae0 <__aeabi_dsub+0x230>
 8001d5c:	4642      	mov	r2, r8
 8001d5e:	2400      	movs	r4, #0
 8001d60:	2300      	movs	r3, #0
 8001d62:	e648      	b.n	80019f6 <__aeabi_dsub+0x146>
 8001d64:	2020      	movs	r0, #32
 8001d66:	000c      	movs	r4, r1
 8001d68:	1a80      	subs	r0, r0, r2
 8001d6a:	003e      	movs	r6, r7
 8001d6c:	4087      	lsls	r7, r0
 8001d6e:	4084      	lsls	r4, r0
 8001d70:	40d6      	lsrs	r6, r2
 8001d72:	1e78      	subs	r0, r7, #1
 8001d74:	4187      	sbcs	r7, r0
 8001d76:	40d1      	lsrs	r1, r2
 8001d78:	4334      	orrs	r4, r6
 8001d7a:	433c      	orrs	r4, r7
 8001d7c:	448c      	add	ip, r1
 8001d7e:	e7a4      	b.n	8001cca <__aeabi_dsub+0x41a>
 8001d80:	4a80      	ldr	r2, [pc, #512]	; (8001f84 <__aeabi_dsub+0x6d4>)
 8001d82:	4290      	cmp	r0, r2
 8001d84:	d100      	bne.n	8001d88 <__aeabi_dsub+0x4d8>
 8001d86:	e0e9      	b.n	8001f5c <__aeabi_dsub+0x6ac>
 8001d88:	19df      	adds	r7, r3, r7
 8001d8a:	429f      	cmp	r7, r3
 8001d8c:	419b      	sbcs	r3, r3
 8001d8e:	4461      	add	r1, ip
 8001d90:	425b      	negs	r3, r3
 8001d92:	18c9      	adds	r1, r1, r3
 8001d94:	07cc      	lsls	r4, r1, #31
 8001d96:	087f      	lsrs	r7, r7, #1
 8001d98:	084b      	lsrs	r3, r1, #1
 8001d9a:	4699      	mov	r9, r3
 8001d9c:	4680      	mov	r8, r0
 8001d9e:	433c      	orrs	r4, r7
 8001da0:	e6f4      	b.n	8001b8c <__aeabi_dsub+0x2dc>
 8001da2:	1afc      	subs	r4, r7, r3
 8001da4:	42a7      	cmp	r7, r4
 8001da6:	41bf      	sbcs	r7, r7
 8001da8:	4663      	mov	r3, ip
 8001daa:	427f      	negs	r7, r7
 8001dac:	1ac9      	subs	r1, r1, r3
 8001dae:	1bcb      	subs	r3, r1, r7
 8001db0:	4699      	mov	r9, r3
 8001db2:	465d      	mov	r5, fp
 8001db4:	e5d5      	b.n	8001962 <__aeabi_dsub+0xb2>
 8001db6:	08ff      	lsrs	r7, r7, #3
 8001db8:	074b      	lsls	r3, r1, #29
 8001dba:	465d      	mov	r5, fp
 8001dbc:	433b      	orrs	r3, r7
 8001dbe:	08cc      	lsrs	r4, r1, #3
 8001dc0:	e6ee      	b.n	8001ba0 <__aeabi_dsub+0x2f0>
 8001dc2:	4662      	mov	r2, ip
 8001dc4:	431a      	orrs	r2, r3
 8001dc6:	d000      	beq.n	8001dca <__aeabi_dsub+0x51a>
 8001dc8:	e082      	b.n	8001ed0 <__aeabi_dsub+0x620>
 8001dca:	000b      	movs	r3, r1
 8001dcc:	433b      	orrs	r3, r7
 8001dce:	d11b      	bne.n	8001e08 <__aeabi_dsub+0x558>
 8001dd0:	2480      	movs	r4, #128	; 0x80
 8001dd2:	2500      	movs	r5, #0
 8001dd4:	0324      	lsls	r4, r4, #12
 8001dd6:	e6f9      	b.n	8001bcc <__aeabi_dsub+0x31c>
 8001dd8:	19dc      	adds	r4, r3, r7
 8001dda:	429c      	cmp	r4, r3
 8001ddc:	419b      	sbcs	r3, r3
 8001dde:	4461      	add	r1, ip
 8001de0:	4689      	mov	r9, r1
 8001de2:	425b      	negs	r3, r3
 8001de4:	4499      	add	r9, r3
 8001de6:	464b      	mov	r3, r9
 8001de8:	021b      	lsls	r3, r3, #8
 8001dea:	d444      	bmi.n	8001e76 <__aeabi_dsub+0x5c6>
 8001dec:	2301      	movs	r3, #1
 8001dee:	4698      	mov	r8, r3
 8001df0:	e6cc      	b.n	8001b8c <__aeabi_dsub+0x2dc>
 8001df2:	1bdc      	subs	r4, r3, r7
 8001df4:	4662      	mov	r2, ip
 8001df6:	42a3      	cmp	r3, r4
 8001df8:	419b      	sbcs	r3, r3
 8001dfa:	1a51      	subs	r1, r2, r1
 8001dfc:	425b      	negs	r3, r3
 8001dfe:	1acb      	subs	r3, r1, r3
 8001e00:	4699      	mov	r9, r3
 8001e02:	2301      	movs	r3, #1
 8001e04:	4698      	mov	r8, r3
 8001e06:	e5a4      	b.n	8001952 <__aeabi_dsub+0xa2>
 8001e08:	08ff      	lsrs	r7, r7, #3
 8001e0a:	074b      	lsls	r3, r1, #29
 8001e0c:	465d      	mov	r5, fp
 8001e0e:	433b      	orrs	r3, r7
 8001e10:	08cc      	lsrs	r4, r1, #3
 8001e12:	e6d7      	b.n	8001bc4 <__aeabi_dsub+0x314>
 8001e14:	4662      	mov	r2, ip
 8001e16:	431a      	orrs	r2, r3
 8001e18:	0014      	movs	r4, r2
 8001e1a:	1e63      	subs	r3, r4, #1
 8001e1c:	419c      	sbcs	r4, r3
 8001e1e:	e679      	b.n	8001b14 <__aeabi_dsub+0x264>
 8001e20:	0015      	movs	r5, r2
 8001e22:	4664      	mov	r4, ip
 8001e24:	3d20      	subs	r5, #32
 8001e26:	40ec      	lsrs	r4, r5
 8001e28:	46a0      	mov	r8, r4
 8001e2a:	2a20      	cmp	r2, #32
 8001e2c:	d005      	beq.n	8001e3a <__aeabi_dsub+0x58a>
 8001e2e:	2540      	movs	r5, #64	; 0x40
 8001e30:	4664      	mov	r4, ip
 8001e32:	1aaa      	subs	r2, r5, r2
 8001e34:	4094      	lsls	r4, r2
 8001e36:	4323      	orrs	r3, r4
 8001e38:	469a      	mov	sl, r3
 8001e3a:	4654      	mov	r4, sl
 8001e3c:	1e63      	subs	r3, r4, #1
 8001e3e:	419c      	sbcs	r4, r3
 8001e40:	4643      	mov	r3, r8
 8001e42:	4323      	orrs	r3, r4
 8001e44:	e773      	b.n	8001d2e <__aeabi_dsub+0x47e>
 8001e46:	4662      	mov	r2, ip
 8001e48:	431a      	orrs	r2, r3
 8001e4a:	d023      	beq.n	8001e94 <__aeabi_dsub+0x5e4>
 8001e4c:	000a      	movs	r2, r1
 8001e4e:	433a      	orrs	r2, r7
 8001e50:	d000      	beq.n	8001e54 <__aeabi_dsub+0x5a4>
 8001e52:	e0a0      	b.n	8001f96 <__aeabi_dsub+0x6e6>
 8001e54:	4662      	mov	r2, ip
 8001e56:	08db      	lsrs	r3, r3, #3
 8001e58:	0752      	lsls	r2, r2, #29
 8001e5a:	4313      	orrs	r3, r2
 8001e5c:	4662      	mov	r2, ip
 8001e5e:	08d4      	lsrs	r4, r2, #3
 8001e60:	e6b0      	b.n	8001bc4 <__aeabi_dsub+0x314>
 8001e62:	000b      	movs	r3, r1
 8001e64:	433b      	orrs	r3, r7
 8001e66:	d100      	bne.n	8001e6a <__aeabi_dsub+0x5ba>
 8001e68:	e728      	b.n	8001cbc <__aeabi_dsub+0x40c>
 8001e6a:	08ff      	lsrs	r7, r7, #3
 8001e6c:	074b      	lsls	r3, r1, #29
 8001e6e:	465d      	mov	r5, fp
 8001e70:	433b      	orrs	r3, r7
 8001e72:	08cc      	lsrs	r4, r1, #3
 8001e74:	e697      	b.n	8001ba6 <__aeabi_dsub+0x2f6>
 8001e76:	2302      	movs	r3, #2
 8001e78:	4698      	mov	r8, r3
 8001e7a:	e736      	b.n	8001cea <__aeabi_dsub+0x43a>
 8001e7c:	1afc      	subs	r4, r7, r3
 8001e7e:	42a7      	cmp	r7, r4
 8001e80:	41bf      	sbcs	r7, r7
 8001e82:	4663      	mov	r3, ip
 8001e84:	427f      	negs	r7, r7
 8001e86:	1ac9      	subs	r1, r1, r3
 8001e88:	1bcb      	subs	r3, r1, r7
 8001e8a:	4699      	mov	r9, r3
 8001e8c:	2301      	movs	r3, #1
 8001e8e:	465d      	mov	r5, fp
 8001e90:	4698      	mov	r8, r3
 8001e92:	e55e      	b.n	8001952 <__aeabi_dsub+0xa2>
 8001e94:	074b      	lsls	r3, r1, #29
 8001e96:	08ff      	lsrs	r7, r7, #3
 8001e98:	433b      	orrs	r3, r7
 8001e9a:	08cc      	lsrs	r4, r1, #3
 8001e9c:	e692      	b.n	8001bc4 <__aeabi_dsub+0x314>
 8001e9e:	1bdc      	subs	r4, r3, r7
 8001ea0:	4660      	mov	r0, ip
 8001ea2:	42a3      	cmp	r3, r4
 8001ea4:	41b6      	sbcs	r6, r6
 8001ea6:	1a40      	subs	r0, r0, r1
 8001ea8:	4276      	negs	r6, r6
 8001eaa:	1b80      	subs	r0, r0, r6
 8001eac:	4681      	mov	r9, r0
 8001eae:	0200      	lsls	r0, r0, #8
 8001eb0:	d560      	bpl.n	8001f74 <__aeabi_dsub+0x6c4>
 8001eb2:	1afc      	subs	r4, r7, r3
 8001eb4:	42a7      	cmp	r7, r4
 8001eb6:	41bf      	sbcs	r7, r7
 8001eb8:	4663      	mov	r3, ip
 8001eba:	427f      	negs	r7, r7
 8001ebc:	1ac9      	subs	r1, r1, r3
 8001ebe:	1bcb      	subs	r3, r1, r7
 8001ec0:	4699      	mov	r9, r3
 8001ec2:	465d      	mov	r5, fp
 8001ec4:	e576      	b.n	80019b4 <__aeabi_dsub+0x104>
 8001ec6:	08ff      	lsrs	r7, r7, #3
 8001ec8:	074b      	lsls	r3, r1, #29
 8001eca:	433b      	orrs	r3, r7
 8001ecc:	08cc      	lsrs	r4, r1, #3
 8001ece:	e667      	b.n	8001ba0 <__aeabi_dsub+0x2f0>
 8001ed0:	000a      	movs	r2, r1
 8001ed2:	08db      	lsrs	r3, r3, #3
 8001ed4:	433a      	orrs	r2, r7
 8001ed6:	d100      	bne.n	8001eda <__aeabi_dsub+0x62a>
 8001ed8:	e66f      	b.n	8001bba <__aeabi_dsub+0x30a>
 8001eda:	4662      	mov	r2, ip
 8001edc:	0752      	lsls	r2, r2, #29
 8001ede:	4313      	orrs	r3, r2
 8001ee0:	4662      	mov	r2, ip
 8001ee2:	08d4      	lsrs	r4, r2, #3
 8001ee4:	2280      	movs	r2, #128	; 0x80
 8001ee6:	0312      	lsls	r2, r2, #12
 8001ee8:	4214      	tst	r4, r2
 8001eea:	d007      	beq.n	8001efc <__aeabi_dsub+0x64c>
 8001eec:	08c8      	lsrs	r0, r1, #3
 8001eee:	4210      	tst	r0, r2
 8001ef0:	d104      	bne.n	8001efc <__aeabi_dsub+0x64c>
 8001ef2:	465d      	mov	r5, fp
 8001ef4:	0004      	movs	r4, r0
 8001ef6:	08fb      	lsrs	r3, r7, #3
 8001ef8:	0749      	lsls	r1, r1, #29
 8001efa:	430b      	orrs	r3, r1
 8001efc:	0f5a      	lsrs	r2, r3, #29
 8001efe:	00db      	lsls	r3, r3, #3
 8001f00:	08db      	lsrs	r3, r3, #3
 8001f02:	0752      	lsls	r2, r2, #29
 8001f04:	4313      	orrs	r3, r2
 8001f06:	e65d      	b.n	8001bc4 <__aeabi_dsub+0x314>
 8001f08:	074b      	lsls	r3, r1, #29
 8001f0a:	08ff      	lsrs	r7, r7, #3
 8001f0c:	433b      	orrs	r3, r7
 8001f0e:	08cc      	lsrs	r4, r1, #3
 8001f10:	e649      	b.n	8001ba6 <__aeabi_dsub+0x2f6>
 8001f12:	19dc      	adds	r4, r3, r7
 8001f14:	429c      	cmp	r4, r3
 8001f16:	419b      	sbcs	r3, r3
 8001f18:	4461      	add	r1, ip
 8001f1a:	4689      	mov	r9, r1
 8001f1c:	425b      	negs	r3, r3
 8001f1e:	4499      	add	r9, r3
 8001f20:	464b      	mov	r3, r9
 8001f22:	021b      	lsls	r3, r3, #8
 8001f24:	d400      	bmi.n	8001f28 <__aeabi_dsub+0x678>
 8001f26:	e631      	b.n	8001b8c <__aeabi_dsub+0x2dc>
 8001f28:	464a      	mov	r2, r9
 8001f2a:	4b17      	ldr	r3, [pc, #92]	; (8001f88 <__aeabi_dsub+0x6d8>)
 8001f2c:	401a      	ands	r2, r3
 8001f2e:	2301      	movs	r3, #1
 8001f30:	4691      	mov	r9, r2
 8001f32:	4698      	mov	r8, r3
 8001f34:	e62a      	b.n	8001b8c <__aeabi_dsub+0x2dc>
 8001f36:	0016      	movs	r6, r2
 8001f38:	4664      	mov	r4, ip
 8001f3a:	3e20      	subs	r6, #32
 8001f3c:	40f4      	lsrs	r4, r6
 8001f3e:	46a0      	mov	r8, r4
 8001f40:	2a20      	cmp	r2, #32
 8001f42:	d005      	beq.n	8001f50 <__aeabi_dsub+0x6a0>
 8001f44:	2640      	movs	r6, #64	; 0x40
 8001f46:	4664      	mov	r4, ip
 8001f48:	1ab2      	subs	r2, r6, r2
 8001f4a:	4094      	lsls	r4, r2
 8001f4c:	4323      	orrs	r3, r4
 8001f4e:	469a      	mov	sl, r3
 8001f50:	4654      	mov	r4, sl
 8001f52:	1e63      	subs	r3, r4, #1
 8001f54:	419c      	sbcs	r4, r3
 8001f56:	4643      	mov	r3, r8
 8001f58:	431c      	orrs	r4, r3
 8001f5a:	e5db      	b.n	8001b14 <__aeabi_dsub+0x264>
 8001f5c:	0002      	movs	r2, r0
 8001f5e:	2400      	movs	r4, #0
 8001f60:	2300      	movs	r3, #0
 8001f62:	e548      	b.n	80019f6 <__aeabi_dsub+0x146>
 8001f64:	19dc      	adds	r4, r3, r7
 8001f66:	42bc      	cmp	r4, r7
 8001f68:	41bf      	sbcs	r7, r7
 8001f6a:	4461      	add	r1, ip
 8001f6c:	4689      	mov	r9, r1
 8001f6e:	427f      	negs	r7, r7
 8001f70:	44b9      	add	r9, r7
 8001f72:	e738      	b.n	8001de6 <__aeabi_dsub+0x536>
 8001f74:	464b      	mov	r3, r9
 8001f76:	4323      	orrs	r3, r4
 8001f78:	d100      	bne.n	8001f7c <__aeabi_dsub+0x6cc>
 8001f7a:	e69f      	b.n	8001cbc <__aeabi_dsub+0x40c>
 8001f7c:	e606      	b.n	8001b8c <__aeabi_dsub+0x2dc>
 8001f7e:	46c0      	nop			; (mov r8, r8)
 8001f80:	000007fe 	.word	0x000007fe
 8001f84:	000007ff 	.word	0x000007ff
 8001f88:	ff7fffff 	.word	0xff7fffff
 8001f8c:	08ff      	lsrs	r7, r7, #3
 8001f8e:	074b      	lsls	r3, r1, #29
 8001f90:	433b      	orrs	r3, r7
 8001f92:	08cc      	lsrs	r4, r1, #3
 8001f94:	e616      	b.n	8001bc4 <__aeabi_dsub+0x314>
 8001f96:	4662      	mov	r2, ip
 8001f98:	08db      	lsrs	r3, r3, #3
 8001f9a:	0752      	lsls	r2, r2, #29
 8001f9c:	4313      	orrs	r3, r2
 8001f9e:	4662      	mov	r2, ip
 8001fa0:	08d4      	lsrs	r4, r2, #3
 8001fa2:	2280      	movs	r2, #128	; 0x80
 8001fa4:	0312      	lsls	r2, r2, #12
 8001fa6:	4214      	tst	r4, r2
 8001fa8:	d007      	beq.n	8001fba <__aeabi_dsub+0x70a>
 8001faa:	08c8      	lsrs	r0, r1, #3
 8001fac:	4210      	tst	r0, r2
 8001fae:	d104      	bne.n	8001fba <__aeabi_dsub+0x70a>
 8001fb0:	465d      	mov	r5, fp
 8001fb2:	0004      	movs	r4, r0
 8001fb4:	08fb      	lsrs	r3, r7, #3
 8001fb6:	0749      	lsls	r1, r1, #29
 8001fb8:	430b      	orrs	r3, r1
 8001fba:	0f5a      	lsrs	r2, r3, #29
 8001fbc:	00db      	lsls	r3, r3, #3
 8001fbe:	0752      	lsls	r2, r2, #29
 8001fc0:	08db      	lsrs	r3, r3, #3
 8001fc2:	4313      	orrs	r3, r2
 8001fc4:	e5fe      	b.n	8001bc4 <__aeabi_dsub+0x314>
 8001fc6:	2300      	movs	r3, #0
 8001fc8:	4a01      	ldr	r2, [pc, #4]	; (8001fd0 <__aeabi_dsub+0x720>)
 8001fca:	001c      	movs	r4, r3
 8001fcc:	e513      	b.n	80019f6 <__aeabi_dsub+0x146>
 8001fce:	46c0      	nop			; (mov r8, r8)
 8001fd0:	000007ff 	.word	0x000007ff

08001fd4 <__aeabi_dcmpun>:
 8001fd4:	b570      	push	{r4, r5, r6, lr}
 8001fd6:	0005      	movs	r5, r0
 8001fd8:	480c      	ldr	r0, [pc, #48]	; (800200c <__aeabi_dcmpun+0x38>)
 8001fda:	031c      	lsls	r4, r3, #12
 8001fdc:	0016      	movs	r6, r2
 8001fde:	005b      	lsls	r3, r3, #1
 8001fe0:	030a      	lsls	r2, r1, #12
 8001fe2:	0049      	lsls	r1, r1, #1
 8001fe4:	0b12      	lsrs	r2, r2, #12
 8001fe6:	0d49      	lsrs	r1, r1, #21
 8001fe8:	0b24      	lsrs	r4, r4, #12
 8001fea:	0d5b      	lsrs	r3, r3, #21
 8001fec:	4281      	cmp	r1, r0
 8001fee:	d008      	beq.n	8002002 <__aeabi_dcmpun+0x2e>
 8001ff0:	4a06      	ldr	r2, [pc, #24]	; (800200c <__aeabi_dcmpun+0x38>)
 8001ff2:	2000      	movs	r0, #0
 8001ff4:	4293      	cmp	r3, r2
 8001ff6:	d103      	bne.n	8002000 <__aeabi_dcmpun+0x2c>
 8001ff8:	0020      	movs	r0, r4
 8001ffa:	4330      	orrs	r0, r6
 8001ffc:	1e43      	subs	r3, r0, #1
 8001ffe:	4198      	sbcs	r0, r3
 8002000:	bd70      	pop	{r4, r5, r6, pc}
 8002002:	2001      	movs	r0, #1
 8002004:	432a      	orrs	r2, r5
 8002006:	d1fb      	bne.n	8002000 <__aeabi_dcmpun+0x2c>
 8002008:	e7f2      	b.n	8001ff0 <__aeabi_dcmpun+0x1c>
 800200a:	46c0      	nop			; (mov r8, r8)
 800200c:	000007ff 	.word	0x000007ff

08002010 <__aeabi_d2iz>:
 8002010:	000a      	movs	r2, r1
 8002012:	b530      	push	{r4, r5, lr}
 8002014:	4c13      	ldr	r4, [pc, #76]	; (8002064 <__aeabi_d2iz+0x54>)
 8002016:	0053      	lsls	r3, r2, #1
 8002018:	0309      	lsls	r1, r1, #12
 800201a:	0005      	movs	r5, r0
 800201c:	0b09      	lsrs	r1, r1, #12
 800201e:	2000      	movs	r0, #0
 8002020:	0d5b      	lsrs	r3, r3, #21
 8002022:	0fd2      	lsrs	r2, r2, #31
 8002024:	42a3      	cmp	r3, r4
 8002026:	dd04      	ble.n	8002032 <__aeabi_d2iz+0x22>
 8002028:	480f      	ldr	r0, [pc, #60]	; (8002068 <__aeabi_d2iz+0x58>)
 800202a:	4283      	cmp	r3, r0
 800202c:	dd02      	ble.n	8002034 <__aeabi_d2iz+0x24>
 800202e:	4b0f      	ldr	r3, [pc, #60]	; (800206c <__aeabi_d2iz+0x5c>)
 8002030:	18d0      	adds	r0, r2, r3
 8002032:	bd30      	pop	{r4, r5, pc}
 8002034:	2080      	movs	r0, #128	; 0x80
 8002036:	0340      	lsls	r0, r0, #13
 8002038:	4301      	orrs	r1, r0
 800203a:	480d      	ldr	r0, [pc, #52]	; (8002070 <__aeabi_d2iz+0x60>)
 800203c:	1ac0      	subs	r0, r0, r3
 800203e:	281f      	cmp	r0, #31
 8002040:	dd08      	ble.n	8002054 <__aeabi_d2iz+0x44>
 8002042:	480c      	ldr	r0, [pc, #48]	; (8002074 <__aeabi_d2iz+0x64>)
 8002044:	1ac3      	subs	r3, r0, r3
 8002046:	40d9      	lsrs	r1, r3
 8002048:	000b      	movs	r3, r1
 800204a:	4258      	negs	r0, r3
 800204c:	2a00      	cmp	r2, #0
 800204e:	d1f0      	bne.n	8002032 <__aeabi_d2iz+0x22>
 8002050:	0018      	movs	r0, r3
 8002052:	e7ee      	b.n	8002032 <__aeabi_d2iz+0x22>
 8002054:	4c08      	ldr	r4, [pc, #32]	; (8002078 <__aeabi_d2iz+0x68>)
 8002056:	40c5      	lsrs	r5, r0
 8002058:	46a4      	mov	ip, r4
 800205a:	4463      	add	r3, ip
 800205c:	4099      	lsls	r1, r3
 800205e:	000b      	movs	r3, r1
 8002060:	432b      	orrs	r3, r5
 8002062:	e7f2      	b.n	800204a <__aeabi_d2iz+0x3a>
 8002064:	000003fe 	.word	0x000003fe
 8002068:	0000041d 	.word	0x0000041d
 800206c:	7fffffff 	.word	0x7fffffff
 8002070:	00000433 	.word	0x00000433
 8002074:	00000413 	.word	0x00000413
 8002078:	fffffbed 	.word	0xfffffbed

0800207c <__aeabi_i2d>:
 800207c:	b570      	push	{r4, r5, r6, lr}
 800207e:	2800      	cmp	r0, #0
 8002080:	d016      	beq.n	80020b0 <__aeabi_i2d+0x34>
 8002082:	17c3      	asrs	r3, r0, #31
 8002084:	18c5      	adds	r5, r0, r3
 8002086:	405d      	eors	r5, r3
 8002088:	0fc4      	lsrs	r4, r0, #31
 800208a:	0028      	movs	r0, r5
 800208c:	f000 f84c 	bl	8002128 <__clzsi2>
 8002090:	4a11      	ldr	r2, [pc, #68]	; (80020d8 <__aeabi_i2d+0x5c>)
 8002092:	1a12      	subs	r2, r2, r0
 8002094:	280a      	cmp	r0, #10
 8002096:	dc16      	bgt.n	80020c6 <__aeabi_i2d+0x4a>
 8002098:	0003      	movs	r3, r0
 800209a:	002e      	movs	r6, r5
 800209c:	3315      	adds	r3, #21
 800209e:	409e      	lsls	r6, r3
 80020a0:	230b      	movs	r3, #11
 80020a2:	1a18      	subs	r0, r3, r0
 80020a4:	40c5      	lsrs	r5, r0
 80020a6:	0552      	lsls	r2, r2, #21
 80020a8:	032d      	lsls	r5, r5, #12
 80020aa:	0b2d      	lsrs	r5, r5, #12
 80020ac:	0d53      	lsrs	r3, r2, #21
 80020ae:	e003      	b.n	80020b8 <__aeabi_i2d+0x3c>
 80020b0:	2400      	movs	r4, #0
 80020b2:	2300      	movs	r3, #0
 80020b4:	2500      	movs	r5, #0
 80020b6:	2600      	movs	r6, #0
 80020b8:	051b      	lsls	r3, r3, #20
 80020ba:	432b      	orrs	r3, r5
 80020bc:	07e4      	lsls	r4, r4, #31
 80020be:	4323      	orrs	r3, r4
 80020c0:	0030      	movs	r0, r6
 80020c2:	0019      	movs	r1, r3
 80020c4:	bd70      	pop	{r4, r5, r6, pc}
 80020c6:	380b      	subs	r0, #11
 80020c8:	4085      	lsls	r5, r0
 80020ca:	0552      	lsls	r2, r2, #21
 80020cc:	032d      	lsls	r5, r5, #12
 80020ce:	2600      	movs	r6, #0
 80020d0:	0b2d      	lsrs	r5, r5, #12
 80020d2:	0d53      	lsrs	r3, r2, #21
 80020d4:	e7f0      	b.n	80020b8 <__aeabi_i2d+0x3c>
 80020d6:	46c0      	nop			; (mov r8, r8)
 80020d8:	0000041e 	.word	0x0000041e

080020dc <__aeabi_ui2d>:
 80020dc:	b510      	push	{r4, lr}
 80020de:	1e04      	subs	r4, r0, #0
 80020e0:	d010      	beq.n	8002104 <__aeabi_ui2d+0x28>
 80020e2:	f000 f821 	bl	8002128 <__clzsi2>
 80020e6:	4b0f      	ldr	r3, [pc, #60]	; (8002124 <__aeabi_ui2d+0x48>)
 80020e8:	1a1b      	subs	r3, r3, r0
 80020ea:	280a      	cmp	r0, #10
 80020ec:	dc11      	bgt.n	8002112 <__aeabi_ui2d+0x36>
 80020ee:	220b      	movs	r2, #11
 80020f0:	0021      	movs	r1, r4
 80020f2:	1a12      	subs	r2, r2, r0
 80020f4:	40d1      	lsrs	r1, r2
 80020f6:	3015      	adds	r0, #21
 80020f8:	030a      	lsls	r2, r1, #12
 80020fa:	055b      	lsls	r3, r3, #21
 80020fc:	4084      	lsls	r4, r0
 80020fe:	0b12      	lsrs	r2, r2, #12
 8002100:	0d5b      	lsrs	r3, r3, #21
 8002102:	e001      	b.n	8002108 <__aeabi_ui2d+0x2c>
 8002104:	2300      	movs	r3, #0
 8002106:	2200      	movs	r2, #0
 8002108:	051b      	lsls	r3, r3, #20
 800210a:	4313      	orrs	r3, r2
 800210c:	0020      	movs	r0, r4
 800210e:	0019      	movs	r1, r3
 8002110:	bd10      	pop	{r4, pc}
 8002112:	0022      	movs	r2, r4
 8002114:	380b      	subs	r0, #11
 8002116:	4082      	lsls	r2, r0
 8002118:	055b      	lsls	r3, r3, #21
 800211a:	0312      	lsls	r2, r2, #12
 800211c:	2400      	movs	r4, #0
 800211e:	0b12      	lsrs	r2, r2, #12
 8002120:	0d5b      	lsrs	r3, r3, #21
 8002122:	e7f1      	b.n	8002108 <__aeabi_ui2d+0x2c>
 8002124:	0000041e 	.word	0x0000041e

08002128 <__clzsi2>:
 8002128:	211c      	movs	r1, #28
 800212a:	2301      	movs	r3, #1
 800212c:	041b      	lsls	r3, r3, #16
 800212e:	4298      	cmp	r0, r3
 8002130:	d301      	bcc.n	8002136 <__clzsi2+0xe>
 8002132:	0c00      	lsrs	r0, r0, #16
 8002134:	3910      	subs	r1, #16
 8002136:	0a1b      	lsrs	r3, r3, #8
 8002138:	4298      	cmp	r0, r3
 800213a:	d301      	bcc.n	8002140 <__clzsi2+0x18>
 800213c:	0a00      	lsrs	r0, r0, #8
 800213e:	3908      	subs	r1, #8
 8002140:	091b      	lsrs	r3, r3, #4
 8002142:	4298      	cmp	r0, r3
 8002144:	d301      	bcc.n	800214a <__clzsi2+0x22>
 8002146:	0900      	lsrs	r0, r0, #4
 8002148:	3904      	subs	r1, #4
 800214a:	a202      	add	r2, pc, #8	; (adr r2, 8002154 <__clzsi2+0x2c>)
 800214c:	5c10      	ldrb	r0, [r2, r0]
 800214e:	1840      	adds	r0, r0, r1
 8002150:	4770      	bx	lr
 8002152:	46c0      	nop			; (mov r8, r8)
 8002154:	02020304 	.word	0x02020304
 8002158:	01010101 	.word	0x01010101
	...

08002164 <main>:

/**
  * @brief  The application entry point.
  * @retval int
  */
int main(void){
<<<<<<< HEAD
 8002164:	b580      	push	{r7, lr}
 8002166:	b088      	sub	sp, #32
 8002168:	af04      	add	r7, sp, #16
=======
 8002164:	b5f0      	push	{r4, r5, r6, r7, lr}
 8002166:	46ce      	mov	lr, r9
 8002168:	4647      	mov	r7, r8
 800216a:	b580      	push	{r7, lr}
 800216c:	b0b9      	sub	sp, #228	; 0xe4
 800216e:	af06      	add	r7, sp, #24
>>>>>>> 7d7ca595f0febf8d38881680e06789eb0f92c049
  /* USER CODE END 1 */

  /* MCU Configuration--------------------------------------------------------*/

  /* Reset of all peripherals, Initializes the Flash interface and the Systick. */
  HAL_Init();
<<<<<<< HEAD
 800216a:	f000 ff13 	bl	8002f94 <HAL_Init>
=======
 8002170:	f000 fea8 	bl	8002ec4 <HAL_Init>
>>>>>>> 7d7ca595f0febf8d38881680e06789eb0f92c049
  /* USER CODE BEGIN Init */

  /* USER CODE END Init */

  /* Configure the system clock */
  SystemClock_Config();
<<<<<<< HEAD
 800216e:	f000 f8df 	bl	8002330 <SystemClock_Config>
=======
 8002174:	f000 f86a 	bl	800224c <SystemClock_Config>
>>>>>>> 7d7ca595f0febf8d38881680e06789eb0f92c049
  /* USER CODE BEGIN SysInit */

  /* USER CODE END SysInit */

  /* Initialize all configured peripherals */
  MX_GPIO_Init();
<<<<<<< HEAD
 8002172:	f000 f9cd 	bl	8002510 <MX_GPIO_Init>
  MX_I2C1_Init();
 8002176:	f000 f93d 	bl	80023f4 <MX_I2C1_Init>
  MX_DMA_Init();
 800217a:	f000 f9ab 	bl	80024d4 <MX_DMA_Init>
  MX_USART2_UART_Init();
 800217e:	f000 f979 	bl	8002474 <MX_USART2_UART_Init>

=======
 8002178:	f000 f958 	bl	800242c <MX_GPIO_Init>
  MX_I2C1_Init();
 800217c:	f000 f8c8 	bl	8002310 <MX_I2C1_Init>
  MX_DMA_Init();
 8002180:	f000 f936 	bl	80023f0 <MX_DMA_Init>
  MX_USART2_UART_Init();
 8002184:	f000 f904 	bl	8002390 <MX_USART2_UART_Init>
>>>>>>> 7d7ca595f0febf8d38881680e06789eb0f92c049

  //TO DO
  //TASK 6
  //YOUR CODE HERE
<<<<<<< HEAD
  setTime (0,  0,  0,  4,  20,  9,  22);
 8002182:	2316      	movs	r3, #22
 8002184:	9302      	str	r3, [sp, #8]
 8002186:	2309      	movs	r3, #9
 8002188:	9301      	str	r3, [sp, #4]
 800218a:	2314      	movs	r3, #20
 800218c:	9300      	str	r3, [sp, #0]
 800218e:	2304      	movs	r3, #4
 8002190:	2200      	movs	r2, #0
 8002192:	2100      	movs	r1, #0
 8002194:	2000      	movs	r0, #0
 8002196:	f000 fc27 	bl	80029e8 <setTime>

  int num1 = 5;
 800219a:	2305      	movs	r3, #5
 800219c:	60fb      	str	r3, [r7, #12]
  int num2 = 21;
 800219e:	2315      	movs	r3, #21
 80021a0:	60bb      	str	r3, [r7, #8]

  int ret1 = decToBcd(num1);
 80021a2:	68fb      	ldr	r3, [r7, #12]
 80021a4:	0018      	movs	r0, r3
 80021a6:	f000 fa5b 	bl	8002660 <decToBcd>
 80021aa:	0003      	movs	r3, r0
 80021ac:	607b      	str	r3, [r7, #4]
  int ret2 = bcdToDec(num2);
 80021ae:	68bb      	ldr	r3, [r7, #8]
 80021b0:	b2db      	uxtb	r3, r3
 80021b2:	0018      	movs	r0, r3
 80021b4:	f000 fb3c 	bl	8002830 <bcdToDec>
 80021b8:	0003      	movs	r3, r0
 80021ba:	603b      	str	r3, [r7, #0]

  sprintf(test, "Number to decToBCD: %d, Result: %d \r\n ", num1, ret1);
 80021bc:	687b      	ldr	r3, [r7, #4]
 80021be:	68fa      	ldr	r2, [r7, #12]
 80021c0:	4950      	ldr	r1, [pc, #320]	; (8002304 <main+0x1a0>)
 80021c2:	4851      	ldr	r0, [pc, #324]	; (8002308 <main+0x1a4>)
 80021c4:	f003 fe50 	bl	8005e68 <siprintf>
  HAL_UART_Transmit(&huart2, (uint8_t *)test, sizeof(test) , 1000);
 80021c8:	23fa      	movs	r3, #250	; 0xfa
 80021ca:	009b      	lsls	r3, r3, #2
 80021cc:	494e      	ldr	r1, [pc, #312]	; (8002308 <main+0x1a4>)
 80021ce:	484f      	ldr	r0, [pc, #316]	; (800230c <main+0x1a8>)
 80021d0:	2264      	movs	r2, #100	; 0x64
 80021d2:	f002 fecd 	bl	8004f70 <HAL_UART_Transmit>
  memset(test, '\0', sizeof(test));
 80021d6:	4b4c      	ldr	r3, [pc, #304]	; (8002308 <main+0x1a4>)
 80021d8:	2264      	movs	r2, #100	; 0x64
 80021da:	2100      	movs	r1, #0
 80021dc:	0018      	movs	r0, r3
 80021de:	f003 fe3b 	bl	8005e58 <memset>

  sprintf(test, "Number to bcdToDec: %d, Result: %d \r\n\n ", num2, ret2);
 80021e2:	683b      	ldr	r3, [r7, #0]
 80021e4:	68ba      	ldr	r2, [r7, #8]
 80021e6:	494a      	ldr	r1, [pc, #296]	; (8002310 <main+0x1ac>)
 80021e8:	4847      	ldr	r0, [pc, #284]	; (8002308 <main+0x1a4>)
 80021ea:	f003 fe3d 	bl	8005e68 <siprintf>
  HAL_UART_Transmit(&huart2, (uint8_t *)test, sizeof(test) , 1000);
 80021ee:	23fa      	movs	r3, #250	; 0xfa
 80021f0:	009b      	lsls	r3, r3, #2
 80021f2:	4945      	ldr	r1, [pc, #276]	; (8002308 <main+0x1a4>)
 80021f4:	4845      	ldr	r0, [pc, #276]	; (800230c <main+0x1a8>)
 80021f6:	2264      	movs	r2, #100	; 0x64
 80021f8:	f002 feba 	bl	8004f70 <HAL_UART_Transmit>
  memset(test, '\0', sizeof(test));
 80021fc:	4b42      	ldr	r3, [pc, #264]	; (8002308 <main+0x1a4>)
 80021fe:	2264      	movs	r2, #100	; 0x64
 8002200:	2100      	movs	r1, #0
 8002202:	0018      	movs	r0, r3
 8002204:	f003 fe28 	bl	8005e58 <memset>
	//First run this with nothing else in the loop and scope pin PC8 on an oscilloscope

	//HAL_GPIO_TogglePin(GPIOC, GPIO_PIN_8);
	//HAL_Delay(1000);

	HAL_GPIO_TogglePin(GPIOC, GPIO_PIN_8);
 8002208:	2380      	movs	r3, #128	; 0x80
 800220a:	005b      	lsls	r3, r3, #1
 800220c:	4a41      	ldr	r2, [pc, #260]	; (8002314 <main+0x1b0>)
 800220e:	0019      	movs	r1, r3
 8002210:	0010      	movs	r0, r2
 8002212:	f001 fb12 	bl	800383a <HAL_GPIO_TogglePin>
	pause_sec(1);
 8002216:	23fe      	movs	r3, #254	; 0xfe
 8002218:	059b      	lsls	r3, r3, #22
 800221a:	1c18      	adds	r0, r3, #0
 800221c:	f000 f9f0 	bl	8002600 <pause_sec>

	getTime();
 8002220:	f000 fc52 	bl	8002ac8 <getTime>

	//TO DO:
	//TASK 6

	sprintf(buffer, "Time : 20%d:%d:", time.year ,time.month);
 8002224:	4b3c      	ldr	r3, [pc, #240]	; (8002318 <main+0x1b4>)
 8002226:	799b      	ldrb	r3, [r3, #6]
 8002228:	001a      	movs	r2, r3
 800222a:	4b3b      	ldr	r3, [pc, #236]	; (8002318 <main+0x1b4>)
 800222c:	795b      	ldrb	r3, [r3, #5]
 800222e:	493b      	ldr	r1, [pc, #236]	; (800231c <main+0x1b8>)
 8002230:	483b      	ldr	r0, [pc, #236]	; (8002320 <main+0x1bc>)
 8002232:	f003 fe19 	bl	8005e68 <siprintf>
	HAL_UART_Transmit(&huart2, (uint8_t *)buffer, sizeof(buffer) , 1000);
 8002236:	23fa      	movs	r3, #250	; 0xfa
 8002238:	009b      	lsls	r3, r3, #2
 800223a:	4939      	ldr	r1, [pc, #228]	; (8002320 <main+0x1bc>)
 800223c:	4833      	ldr	r0, [pc, #204]	; (800230c <main+0x1a8>)
 800223e:	2214      	movs	r2, #20
 8002240:	f002 fe96 	bl	8004f70 <HAL_UART_Transmit>
	memset(buffer, '\0', sizeof(buffer));
 8002244:	4b36      	ldr	r3, [pc, #216]	; (8002320 <main+0x1bc>)
 8002246:	2214      	movs	r2, #20
 8002248:	2100      	movs	r1, #0
 800224a:	0018      	movs	r0, r3
 800224c:	f003 fe04 	bl	8005e58 <memset>

	sprintf(buffer, "%d:%d:", time.dayofmonth, time.dayofweek);
 8002250:	4b31      	ldr	r3, [pc, #196]	; (8002318 <main+0x1b4>)
 8002252:	791b      	ldrb	r3, [r3, #4]
 8002254:	001a      	movs	r2, r3
 8002256:	4b30      	ldr	r3, [pc, #192]	; (8002318 <main+0x1b4>)
 8002258:	78db      	ldrb	r3, [r3, #3]
 800225a:	4932      	ldr	r1, [pc, #200]	; (8002324 <main+0x1c0>)
 800225c:	4830      	ldr	r0, [pc, #192]	; (8002320 <main+0x1bc>)
 800225e:	f003 fe03 	bl	8005e68 <siprintf>
	HAL_UART_Transmit(&huart2, (uint8_t *)buffer, sizeof(buffer) , 1000);
 8002262:	23fa      	movs	r3, #250	; 0xfa
 8002264:	009b      	lsls	r3, r3, #2
 8002266:	492e      	ldr	r1, [pc, #184]	; (8002320 <main+0x1bc>)
 8002268:	4828      	ldr	r0, [pc, #160]	; (800230c <main+0x1a8>)
 800226a:	2214      	movs	r2, #20
 800226c:	f002 fe80 	bl	8004f70 <HAL_UART_Transmit>
	memset(buffer, '\0', sizeof(buffer));
 8002270:	4b2b      	ldr	r3, [pc, #172]	; (8002320 <main+0x1bc>)
 8002272:	2214      	movs	r2, #20
 8002274:	2100      	movs	r1, #0
 8002276:	0018      	movs	r0, r3
 8002278:	f003 fdee 	bl	8005e58 <memset>

	sprintf(buffer, "%d:%d:", time.hour ,time.minutes);
 800227c:	4b26      	ldr	r3, [pc, #152]	; (8002318 <main+0x1b4>)
 800227e:	789b      	ldrb	r3, [r3, #2]
 8002280:	001a      	movs	r2, r3
 8002282:	4b25      	ldr	r3, [pc, #148]	; (8002318 <main+0x1b4>)
 8002284:	785b      	ldrb	r3, [r3, #1]
 8002286:	4927      	ldr	r1, [pc, #156]	; (8002324 <main+0x1c0>)
 8002288:	4825      	ldr	r0, [pc, #148]	; (8002320 <main+0x1bc>)
 800228a:	f003 fded 	bl	8005e68 <siprintf>
	HAL_UART_Transmit(&huart2, (uint8_t *)buffer, sizeof(buffer) , 1000);
 800228e:	23fa      	movs	r3, #250	; 0xfa
 8002290:	009b      	lsls	r3, r3, #2
 8002292:	4923      	ldr	r1, [pc, #140]	; (8002320 <main+0x1bc>)
 8002294:	481d      	ldr	r0, [pc, #116]	; (800230c <main+0x1a8>)
 8002296:	2214      	movs	r2, #20
 8002298:	f002 fe6a 	bl	8004f70 <HAL_UART_Transmit>
	memset(buffer, '\0', sizeof(buffer));
 800229c:	4b20      	ldr	r3, [pc, #128]	; (8002320 <main+0x1bc>)
 800229e:	2214      	movs	r2, #20
 80022a0:	2100      	movs	r1, #0
 80022a2:	0018      	movs	r0, r3
 80022a4:	f003 fdd8 	bl	8005e58 <memset>

	sprintf(buffer, "%d\r\n",time.seconds);
 80022a8:	4b1b      	ldr	r3, [pc, #108]	; (8002318 <main+0x1b4>)
 80022aa:	781b      	ldrb	r3, [r3, #0]
 80022ac:	001a      	movs	r2, r3
 80022ae:	491e      	ldr	r1, [pc, #120]	; (8002328 <main+0x1c4>)
 80022b0:	4b1b      	ldr	r3, [pc, #108]	; (8002320 <main+0x1bc>)
 80022b2:	0018      	movs	r0, r3
 80022b4:	f003 fdd8 	bl	8005e68 <siprintf>
	HAL_UART_Transmit(&huart2, (uint8_t *)buffer, sizeof(buffer) , 1000);
 80022b8:	23fa      	movs	r3, #250	; 0xfa
 80022ba:	009b      	lsls	r3, r3, #2
 80022bc:	4918      	ldr	r1, [pc, #96]	; (8002320 <main+0x1bc>)
 80022be:	4813      	ldr	r0, [pc, #76]	; (800230c <main+0x1a8>)
 80022c0:	2214      	movs	r2, #20
 80022c2:	f002 fe55 	bl	8004f70 <HAL_UART_Transmit>
	memset(buffer, '\0', sizeof(buffer));
 80022c6:	4b16      	ldr	r3, [pc, #88]	; (8002320 <main+0x1bc>)
 80022c8:	2214      	movs	r2, #20
 80022ca:	2100      	movs	r1, #0
 80022cc:	0018      	movs	r0, r3
 80022ce:	f003 fdc3 	bl	8005e58 <memset>

	sprintf(buffer, "Epoch: %d\r\n\n", epochFromTime(time));
 80022d2:	4b11      	ldr	r3, [pc, #68]	; (8002318 <main+0x1b4>)
 80022d4:	6818      	ldr	r0, [r3, #0]
 80022d6:	6859      	ldr	r1, [r3, #4]
 80022d8:	f000 fc56 	bl	8002b88 <epochFromTime>
 80022dc:	0002      	movs	r2, r0
 80022de:	4913      	ldr	r1, [pc, #76]	; (800232c <main+0x1c8>)
 80022e0:	4b0f      	ldr	r3, [pc, #60]	; (8002320 <main+0x1bc>)
 80022e2:	0018      	movs	r0, r3
 80022e4:	f003 fdc0 	bl	8005e68 <siprintf>
	HAL_UART_Transmit(&huart2, (uint8_t *)buffer, sizeof(buffer), 1000);
 80022e8:	23fa      	movs	r3, #250	; 0xfa
 80022ea:	009b      	lsls	r3, r3, #2
 80022ec:	490c      	ldr	r1, [pc, #48]	; (8002320 <main+0x1bc>)
 80022ee:	4807      	ldr	r0, [pc, #28]	; (800230c <main+0x1a8>)
 80022f0:	2214      	movs	r2, #20
 80022f2:	f002 fe3d 	bl	8004f70 <HAL_UART_Transmit>
	memset(buffer, '\0', sizeof(buffer));
 80022f6:	4b0a      	ldr	r3, [pc, #40]	; (8002320 <main+0x1bc>)
 80022f8:	2214      	movs	r2, #20
 80022fa:	2100      	movs	r1, #0
 80022fc:	0018      	movs	r0, r3
 80022fe:	f003 fdab 	bl	8005e58 <memset>
	HAL_GPIO_TogglePin(GPIOC, GPIO_PIN_8);
 8002302:	e781      	b.n	8002208 <main+0xa4>
 8002304:	08007b00 	.word	0x08007b00
 8002308:	200001b4 	.word	0x200001b4
 800230c:	200000d8 	.word	0x200000d8
 8002310:	08007b28 	.word	0x08007b28
 8002314:	48000800 	.word	0x48000800
 8002318:	20000218 	.word	0x20000218
 800231c:	08007b50 	.word	0x08007b50
 8002320:	200001a0 	.word	0x200001a0
 8002324:	08007b60 	.word	0x08007b60
 8002328:	08007b68 	.word	0x08007b68
 800232c:	08007b70 	.word	0x08007b70

08002330 <SystemClock_Config>:
=======

  setTime ( 0,  0,  0, 6,  1,  1,  22);
 8002188:	2316      	movs	r3, #22
 800218a:	9302      	str	r3, [sp, #8]
 800218c:	2301      	movs	r3, #1
 800218e:	9301      	str	r3, [sp, #4]
 8002190:	2301      	movs	r3, #1
 8002192:	9300      	str	r3, [sp, #0]
 8002194:	2306      	movs	r3, #6
 8002196:	2200      	movs	r2, #0
 8002198:	2100      	movs	r1, #0
 800219a:	2000      	movs	r0, #0
 800219c:	f000 fbb2 	bl	8002904 <setTime>
  /* USER CODE END 2 */

  /* Infinite loop */
  /* USER CODE BEGIN WHILE */

  char buffer[200]= {'\0'};
 80021a0:	003b      	movs	r3, r7
 80021a2:	2200      	movs	r2, #0
 80021a4:	601a      	str	r2, [r3, #0]
 80021a6:	3304      	adds	r3, #4
 80021a8:	22c4      	movs	r2, #196	; 0xc4
 80021aa:	2100      	movs	r1, #0
 80021ac:	0018      	movs	r0, r3
 80021ae:	f003 fdeb 	bl	8005d88 <memset>
  {
    /* USER CODE END WHILE */
	//TO DO:
	//TASK 1
	//First run this with nothing else in the loop and scope pin PC8 on an oscilloscope
	  HAL_GPIO_TogglePin(GPIOC, GPIO_PIN_8);
 80021b2:	2380      	movs	r3, #128	; 0x80
 80021b4:	005b      	lsls	r3, r3, #1
 80021b6:	4a20      	ldr	r2, [pc, #128]	; (8002238 <main+0xd4>)
 80021b8:	0019      	movs	r1, r3
 80021ba:	0010      	movs	r0, r2
 80021bc:	f001 fad5 	bl	800376a <HAL_GPIO_TogglePin>
	  pause_sec(1);
 80021c0:	23fe      	movs	r3, #254	; 0xfe
 80021c2:	059b      	lsls	r3, r3, #22
 80021c4:	1c18      	adds	r0, r3, #0
 80021c6:	f000 f9a9 	bl	800251c <pause_sec>
	  getTime();
 80021ca:	f000 fc0b 	bl	80029e4 <getTime>

	//TO DO:
	//TASK 6
	memset(buffer, "\0",sizeof(buffer));
 80021ce:	491b      	ldr	r1, [pc, #108]	; (800223c <main+0xd8>)
 80021d0:	003b      	movs	r3, r7
 80021d2:	22c8      	movs	r2, #200	; 0xc8
 80021d4:	0018      	movs	r0, r3
 80021d6:	f003 fdd7 	bl	8005d88 <memset>
	sprintf(buffer, "%d \r\n %d \r\n %d: %d: %d: %d: %d: %d: %d \r\n", epochFromTime(time), time.year ,time.month, time.dayofmonth, time.dayofweek ,time.hour ,time.minutes ,time.seconds);
 80021da:	4b19      	ldr	r3, [pc, #100]	; (8002240 <main+0xdc>)
 80021dc:	6818      	ldr	r0, [r3, #0]
 80021de:	6859      	ldr	r1, [r3, #4]
 80021e0:	f000 fc6a 	bl	8002ab8 <epochFromTime>
 80021e4:	0002      	movs	r2, r0
 80021e6:	4b16      	ldr	r3, [pc, #88]	; (8002240 <main+0xdc>)
 80021e8:	799b      	ldrb	r3, [r3, #6]
 80021ea:	4699      	mov	r9, r3
 80021ec:	4b14      	ldr	r3, [pc, #80]	; (8002240 <main+0xdc>)
 80021ee:	795b      	ldrb	r3, [r3, #5]
 80021f0:	001c      	movs	r4, r3
 80021f2:	4b13      	ldr	r3, [pc, #76]	; (8002240 <main+0xdc>)
 80021f4:	791b      	ldrb	r3, [r3, #4]
 80021f6:	001d      	movs	r5, r3
 80021f8:	4b11      	ldr	r3, [pc, #68]	; (8002240 <main+0xdc>)
 80021fa:	78db      	ldrb	r3, [r3, #3]
 80021fc:	001e      	movs	r6, r3
 80021fe:	4b10      	ldr	r3, [pc, #64]	; (8002240 <main+0xdc>)
 8002200:	789b      	ldrb	r3, [r3, #2]
 8002202:	469c      	mov	ip, r3
 8002204:	4b0e      	ldr	r3, [pc, #56]	; (8002240 <main+0xdc>)
 8002206:	785b      	ldrb	r3, [r3, #1]
 8002208:	4698      	mov	r8, r3
 800220a:	4b0d      	ldr	r3, [pc, #52]	; (8002240 <main+0xdc>)
 800220c:	781b      	ldrb	r3, [r3, #0]
 800220e:	490d      	ldr	r1, [pc, #52]	; (8002244 <main+0xe0>)
 8002210:	0038      	movs	r0, r7
 8002212:	9305      	str	r3, [sp, #20]
 8002214:	4643      	mov	r3, r8
 8002216:	9304      	str	r3, [sp, #16]
 8002218:	4663      	mov	r3, ip
 800221a:	9303      	str	r3, [sp, #12]
 800221c:	9602      	str	r6, [sp, #8]
 800221e:	9501      	str	r5, [sp, #4]
 8002220:	9400      	str	r4, [sp, #0]
 8002222:	464b      	mov	r3, r9
 8002224:	f003 fdb8 	bl	8005d98 <siprintf>
	HAL_UART_Transmit(&huart2, buffer, sizeof(buffer), 1000);
 8002228:	23fa      	movs	r3, #250	; 0xfa
 800222a:	009b      	lsls	r3, r3, #2
 800222c:	0039      	movs	r1, r7
 800222e:	4806      	ldr	r0, [pc, #24]	; (8002248 <main+0xe4>)
 8002230:	22c8      	movs	r2, #200	; 0xc8
 8002232:	f002 fe35 	bl	8004ea0 <HAL_UART_Transmit>
	  HAL_GPIO_TogglePin(GPIOC, GPIO_PIN_8);
 8002236:	e7bc      	b.n	80021b2 <main+0x4e>
 8002238:	48000800 	.word	0x48000800
 800223c:	08007a30 	.word	0x08007a30
 8002240:	200001a0 	.word	0x200001a0
 8002244:	08007a34 	.word	0x08007a34
 8002248:	200000d8 	.word	0x200000d8

0800224c <SystemClock_Config>:
>>>>>>> 7d7ca595f0febf8d38881680e06789eb0f92c049
/**
  * @brief System Clock Configuration
  * @retval None
  */
void SystemClock_Config(void)
{
<<<<<<< HEAD
 8002330:	b590      	push	{r4, r7, lr}
 8002332:	b097      	sub	sp, #92	; 0x5c
 8002334:	af00      	add	r7, sp, #0
  RCC_OscInitTypeDef RCC_OscInitStruct = {0};
 8002336:	2428      	movs	r4, #40	; 0x28
 8002338:	193b      	adds	r3, r7, r4
 800233a:	0018      	movs	r0, r3
 800233c:	2330      	movs	r3, #48	; 0x30
 800233e:	001a      	movs	r2, r3
 8002340:	2100      	movs	r1, #0
 8002342:	f003 fd89 	bl	8005e58 <memset>
  RCC_ClkInitTypeDef RCC_ClkInitStruct = {0};
 8002346:	2318      	movs	r3, #24
 8002348:	18fb      	adds	r3, r7, r3
 800234a:	0018      	movs	r0, r3
 800234c:	2310      	movs	r3, #16
 800234e:	001a      	movs	r2, r3
 8002350:	2100      	movs	r1, #0
 8002352:	f003 fd81 	bl	8005e58 <memset>
  RCC_PeriphCLKInitTypeDef PeriphClkInit = {0};
 8002356:	1d3b      	adds	r3, r7, #4
 8002358:	0018      	movs	r0, r3
 800235a:	2314      	movs	r3, #20
 800235c:	001a      	movs	r2, r3
 800235e:	2100      	movs	r1, #0
 8002360:	f003 fd7a 	bl	8005e58 <memset>
=======
 800224c:	b590      	push	{r4, r7, lr}
 800224e:	b097      	sub	sp, #92	; 0x5c
 8002250:	af00      	add	r7, sp, #0
  RCC_OscInitTypeDef RCC_OscInitStruct = {0};
 8002252:	2428      	movs	r4, #40	; 0x28
 8002254:	193b      	adds	r3, r7, r4
 8002256:	0018      	movs	r0, r3
 8002258:	2330      	movs	r3, #48	; 0x30
 800225a:	001a      	movs	r2, r3
 800225c:	2100      	movs	r1, #0
 800225e:	f003 fd93 	bl	8005d88 <memset>
  RCC_ClkInitTypeDef RCC_ClkInitStruct = {0};
 8002262:	2318      	movs	r3, #24
 8002264:	18fb      	adds	r3, r7, r3
 8002266:	0018      	movs	r0, r3
 8002268:	2310      	movs	r3, #16
 800226a:	001a      	movs	r2, r3
 800226c:	2100      	movs	r1, #0
 800226e:	f003 fd8b 	bl	8005d88 <memset>
  RCC_PeriphCLKInitTypeDef PeriphClkInit = {0};
 8002272:	1d3b      	adds	r3, r7, #4
 8002274:	0018      	movs	r0, r3
 8002276:	2314      	movs	r3, #20
 8002278:	001a      	movs	r2, r3
 800227a:	2100      	movs	r1, #0
 800227c:	f003 fd84 	bl	8005d88 <memset>
>>>>>>> 7d7ca595f0febf8d38881680e06789eb0f92c049

  /** Initializes the RCC Oscillators according to the specified parameters
  * in the RCC_OscInitTypeDef structure.
  */
  RCC_OscInitStruct.OscillatorType = RCC_OSCILLATORTYPE_HSI;
<<<<<<< HEAD
 8002364:	0021      	movs	r1, r4
 8002366:	187b      	adds	r3, r7, r1
 8002368:	2202      	movs	r2, #2
 800236a:	601a      	str	r2, [r3, #0]
  RCC_OscInitStruct.HSIState = RCC_HSI_ON;
 800236c:	187b      	adds	r3, r7, r1
 800236e:	2201      	movs	r2, #1
 8002370:	60da      	str	r2, [r3, #12]
  RCC_OscInitStruct.HSICalibrationValue = RCC_HSICALIBRATION_DEFAULT;
 8002372:	187b      	adds	r3, r7, r1
 8002374:	2210      	movs	r2, #16
 8002376:	611a      	str	r2, [r3, #16]
  RCC_OscInitStruct.PLL.PLLState = RCC_PLL_ON;
 8002378:	187b      	adds	r3, r7, r1
 800237a:	2202      	movs	r2, #2
 800237c:	621a      	str	r2, [r3, #32]
  RCC_OscInitStruct.PLL.PLLSource = RCC_PLLSOURCE_HSI;
 800237e:	187b      	adds	r3, r7, r1
 8002380:	2200      	movs	r2, #0
 8002382:	625a      	str	r2, [r3, #36]	; 0x24
  RCC_OscInitStruct.PLL.PLLMUL = RCC_PLL_MUL12;
 8002384:	187b      	adds	r3, r7, r1
 8002386:	22a0      	movs	r2, #160	; 0xa0
 8002388:	0392      	lsls	r2, r2, #14
 800238a:	629a      	str	r2, [r3, #40]	; 0x28
  RCC_OscInitStruct.PLL.PREDIV = RCC_PREDIV_DIV1;
 800238c:	187b      	adds	r3, r7, r1
 800238e:	2200      	movs	r2, #0
 8002390:	62da      	str	r2, [r3, #44]	; 0x2c
  if (HAL_RCC_OscConfig(&RCC_OscInitStruct) != HAL_OK)
 8002392:	187b      	adds	r3, r7, r1
 8002394:	0018      	movs	r0, r3
 8002396:	f002 f84d 	bl	8004434 <HAL_RCC_OscConfig>
 800239a:	1e03      	subs	r3, r0, #0
 800239c:	d001      	beq.n	80023a2 <SystemClock_Config+0x72>
  {
    Error_Handler();
 800239e:	f000 fc6d 	bl	8002c7c <Error_Handler>
=======
 8002280:	0021      	movs	r1, r4
 8002282:	187b      	adds	r3, r7, r1
 8002284:	2202      	movs	r2, #2
 8002286:	601a      	str	r2, [r3, #0]
  RCC_OscInitStruct.HSIState = RCC_HSI_ON;
 8002288:	187b      	adds	r3, r7, r1
 800228a:	2201      	movs	r2, #1
 800228c:	60da      	str	r2, [r3, #12]
  RCC_OscInitStruct.HSICalibrationValue = RCC_HSICALIBRATION_DEFAULT;
 800228e:	187b      	adds	r3, r7, r1
 8002290:	2210      	movs	r2, #16
 8002292:	611a      	str	r2, [r3, #16]
  RCC_OscInitStruct.PLL.PLLState = RCC_PLL_ON;
 8002294:	187b      	adds	r3, r7, r1
 8002296:	2202      	movs	r2, #2
 8002298:	621a      	str	r2, [r3, #32]
  RCC_OscInitStruct.PLL.PLLSource = RCC_PLLSOURCE_HSI;
 800229a:	187b      	adds	r3, r7, r1
 800229c:	2200      	movs	r2, #0
 800229e:	625a      	str	r2, [r3, #36]	; 0x24
  RCC_OscInitStruct.PLL.PLLMUL = RCC_PLL_MUL12;
 80022a0:	187b      	adds	r3, r7, r1
 80022a2:	22a0      	movs	r2, #160	; 0xa0
 80022a4:	0392      	lsls	r2, r2, #14
 80022a6:	629a      	str	r2, [r3, #40]	; 0x28
  RCC_OscInitStruct.PLL.PREDIV = RCC_PREDIV_DIV1;
 80022a8:	187b      	adds	r3, r7, r1
 80022aa:	2200      	movs	r2, #0
 80022ac:	62da      	str	r2, [r3, #44]	; 0x2c
  if (HAL_RCC_OscConfig(&RCC_OscInitStruct) != HAL_OK)
 80022ae:	187b      	adds	r3, r7, r1
 80022b0:	0018      	movs	r0, r3
 80022b2:	f002 f857 	bl	8004364 <HAL_RCC_OscConfig>
 80022b6:	1e03      	subs	r3, r0, #0
 80022b8:	d001      	beq.n	80022be <SystemClock_Config+0x72>
  {
    Error_Handler();
 80022ba:	f000 fc77 	bl	8002bac <Error_Handler>
>>>>>>> 7d7ca595f0febf8d38881680e06789eb0f92c049
  }

  /** Initializes the CPU, AHB and APB buses clocks
  */
  RCC_ClkInitStruct.ClockType = RCC_CLOCKTYPE_HCLK|RCC_CLOCKTYPE_SYSCLK
<<<<<<< HEAD
 80023a2:	2118      	movs	r1, #24
 80023a4:	187b      	adds	r3, r7, r1
 80023a6:	2207      	movs	r2, #7
 80023a8:	601a      	str	r2, [r3, #0]
                              |RCC_CLOCKTYPE_PCLK1;
  RCC_ClkInitStruct.SYSCLKSource = RCC_SYSCLKSOURCE_PLLCLK;
 80023aa:	187b      	adds	r3, r7, r1
 80023ac:	2202      	movs	r2, #2
 80023ae:	605a      	str	r2, [r3, #4]
  RCC_ClkInitStruct.AHBCLKDivider = RCC_SYSCLK_DIV1;
 80023b0:	187b      	adds	r3, r7, r1
 80023b2:	2200      	movs	r2, #0
 80023b4:	609a      	str	r2, [r3, #8]
  RCC_ClkInitStruct.APB1CLKDivider = RCC_HCLK_DIV1;
 80023b6:	187b      	adds	r3, r7, r1
 80023b8:	2200      	movs	r2, #0
 80023ba:	60da      	str	r2, [r3, #12]

  if (HAL_RCC_ClockConfig(&RCC_ClkInitStruct, FLASH_LATENCY_1) != HAL_OK)
 80023bc:	187b      	adds	r3, r7, r1
 80023be:	2101      	movs	r1, #1
 80023c0:	0018      	movs	r0, r3
 80023c2:	f002 fb51 	bl	8004a68 <HAL_RCC_ClockConfig>
 80023c6:	1e03      	subs	r3, r0, #0
 80023c8:	d001      	beq.n	80023ce <SystemClock_Config+0x9e>
  {
    Error_Handler();
 80023ca:	f000 fc57 	bl	8002c7c <Error_Handler>
  }
  PeriphClkInit.PeriphClockSelection = RCC_PERIPHCLK_I2C1;
 80023ce:	1d3b      	adds	r3, r7, #4
 80023d0:	2220      	movs	r2, #32
 80023d2:	601a      	str	r2, [r3, #0]
  PeriphClkInit.I2c1ClockSelection = RCC_I2C1CLKSOURCE_HSI;
 80023d4:	1d3b      	adds	r3, r7, #4
 80023d6:	2200      	movs	r2, #0
 80023d8:	60da      	str	r2, [r3, #12]
  if (HAL_RCCEx_PeriphCLKConfig(&PeriphClkInit) != HAL_OK)
 80023da:	1d3b      	adds	r3, r7, #4
 80023dc:	0018      	movs	r0, r3
 80023de:	f002 fc95 	bl	8004d0c <HAL_RCCEx_PeriphCLKConfig>
 80023e2:	1e03      	subs	r3, r0, #0
 80023e4:	d001      	beq.n	80023ea <SystemClock_Config+0xba>
  {
    Error_Handler();
 80023e6:	f000 fc49 	bl	8002c7c <Error_Handler>
  }
}
 80023ea:	46c0      	nop			; (mov r8, r8)
 80023ec:	46bd      	mov	sp, r7
 80023ee:	b017      	add	sp, #92	; 0x5c
 80023f0:	bd90      	pop	{r4, r7, pc}
	...

080023f4 <MX_I2C1_Init>:
=======
 80022be:	2118      	movs	r1, #24
 80022c0:	187b      	adds	r3, r7, r1
 80022c2:	2207      	movs	r2, #7
 80022c4:	601a      	str	r2, [r3, #0]
                              |RCC_CLOCKTYPE_PCLK1;
  RCC_ClkInitStruct.SYSCLKSource = RCC_SYSCLKSOURCE_PLLCLK;
 80022c6:	187b      	adds	r3, r7, r1
 80022c8:	2202      	movs	r2, #2
 80022ca:	605a      	str	r2, [r3, #4]
  RCC_ClkInitStruct.AHBCLKDivider = RCC_SYSCLK_DIV1;
 80022cc:	187b      	adds	r3, r7, r1
 80022ce:	2200      	movs	r2, #0
 80022d0:	609a      	str	r2, [r3, #8]
  RCC_ClkInitStruct.APB1CLKDivider = RCC_HCLK_DIV1;
 80022d2:	187b      	adds	r3, r7, r1
 80022d4:	2200      	movs	r2, #0
 80022d6:	60da      	str	r2, [r3, #12]

  if (HAL_RCC_ClockConfig(&RCC_ClkInitStruct, FLASH_LATENCY_1) != HAL_OK)
 80022d8:	187b      	adds	r3, r7, r1
 80022da:	2101      	movs	r1, #1
 80022dc:	0018      	movs	r0, r3
 80022de:	f002 fb5b 	bl	8004998 <HAL_RCC_ClockConfig>
 80022e2:	1e03      	subs	r3, r0, #0
 80022e4:	d001      	beq.n	80022ea <SystemClock_Config+0x9e>
  {
    Error_Handler();
 80022e6:	f000 fc61 	bl	8002bac <Error_Handler>
  }
  PeriphClkInit.PeriphClockSelection = RCC_PERIPHCLK_I2C1;
 80022ea:	1d3b      	adds	r3, r7, #4
 80022ec:	2220      	movs	r2, #32
 80022ee:	601a      	str	r2, [r3, #0]
  PeriphClkInit.I2c1ClockSelection = RCC_I2C1CLKSOURCE_HSI;
 80022f0:	1d3b      	adds	r3, r7, #4
 80022f2:	2200      	movs	r2, #0
 80022f4:	60da      	str	r2, [r3, #12]
  if (HAL_RCCEx_PeriphCLKConfig(&PeriphClkInit) != HAL_OK)
 80022f6:	1d3b      	adds	r3, r7, #4
 80022f8:	0018      	movs	r0, r3
 80022fa:	f002 fc9f 	bl	8004c3c <HAL_RCCEx_PeriphCLKConfig>
 80022fe:	1e03      	subs	r3, r0, #0
 8002300:	d001      	beq.n	8002306 <SystemClock_Config+0xba>
  {
    Error_Handler();
 8002302:	f000 fc53 	bl	8002bac <Error_Handler>
  }
}
 8002306:	46c0      	nop			; (mov r8, r8)
 8002308:	46bd      	mov	sp, r7
 800230a:	b017      	add	sp, #92	; 0x5c
 800230c:	bd90      	pop	{r4, r7, pc}
	...

08002310 <MX_I2C1_Init>:
>>>>>>> 7d7ca595f0febf8d38881680e06789eb0f92c049
  * @brief I2C1 Initialization Function
  * @param None
  * @retval None
  */
static void MX_I2C1_Init(void)
{
<<<<<<< HEAD
 80023f4:	b580      	push	{r7, lr}
 80023f6:	af00      	add	r7, sp, #0
=======
 8002310:	b580      	push	{r7, lr}
 8002312:	af00      	add	r7, sp, #0
>>>>>>> 7d7ca595f0febf8d38881680e06789eb0f92c049
  /* USER CODE END I2C1_Init 0 */

  /* USER CODE BEGIN I2C1_Init 1 */

  /* USER CODE END I2C1_Init 1 */
  hi2c1.Instance = I2C1;
<<<<<<< HEAD
 80023f8:	4b1b      	ldr	r3, [pc, #108]	; (8002468 <MX_I2C1_Init+0x74>)
 80023fa:	4a1c      	ldr	r2, [pc, #112]	; (800246c <MX_I2C1_Init+0x78>)
 80023fc:	601a      	str	r2, [r3, #0]
  hi2c1.Init.Timing = 0x2000090E;
 80023fe:	4b1a      	ldr	r3, [pc, #104]	; (8002468 <MX_I2C1_Init+0x74>)
 8002400:	4a1b      	ldr	r2, [pc, #108]	; (8002470 <MX_I2C1_Init+0x7c>)
 8002402:	605a      	str	r2, [r3, #4]
  hi2c1.Init.OwnAddress1 = 0;
 8002404:	4b18      	ldr	r3, [pc, #96]	; (8002468 <MX_I2C1_Init+0x74>)
 8002406:	2200      	movs	r2, #0
 8002408:	609a      	str	r2, [r3, #8]
  hi2c1.Init.AddressingMode = I2C_ADDRESSINGMODE_7BIT;
 800240a:	4b17      	ldr	r3, [pc, #92]	; (8002468 <MX_I2C1_Init+0x74>)
 800240c:	2201      	movs	r2, #1
 800240e:	60da      	str	r2, [r3, #12]
  hi2c1.Init.DualAddressMode = I2C_DUALADDRESS_DISABLE;
 8002410:	4b15      	ldr	r3, [pc, #84]	; (8002468 <MX_I2C1_Init+0x74>)
 8002412:	2200      	movs	r2, #0
 8002414:	611a      	str	r2, [r3, #16]
  hi2c1.Init.OwnAddress2 = 0;
 8002416:	4b14      	ldr	r3, [pc, #80]	; (8002468 <MX_I2C1_Init+0x74>)
 8002418:	2200      	movs	r2, #0
 800241a:	615a      	str	r2, [r3, #20]
  hi2c1.Init.OwnAddress2Masks = I2C_OA2_NOMASK;
 800241c:	4b12      	ldr	r3, [pc, #72]	; (8002468 <MX_I2C1_Init+0x74>)
 800241e:	2200      	movs	r2, #0
 8002420:	619a      	str	r2, [r3, #24]
  hi2c1.Init.GeneralCallMode = I2C_GENERALCALL_DISABLE;
 8002422:	4b11      	ldr	r3, [pc, #68]	; (8002468 <MX_I2C1_Init+0x74>)
 8002424:	2200      	movs	r2, #0
 8002426:	61da      	str	r2, [r3, #28]
  hi2c1.Init.NoStretchMode = I2C_NOSTRETCH_DISABLE;
 8002428:	4b0f      	ldr	r3, [pc, #60]	; (8002468 <MX_I2C1_Init+0x74>)
 800242a:	2200      	movs	r2, #0
 800242c:	621a      	str	r2, [r3, #32]
  if (HAL_I2C_Init(&hi2c1) != HAL_OK)
 800242e:	4b0e      	ldr	r3, [pc, #56]	; (8002468 <MX_I2C1_Init+0x74>)
 8002430:	0018      	movs	r0, r3
 8002432:	f001 fa1d 	bl	8003870 <HAL_I2C_Init>
 8002436:	1e03      	subs	r3, r0, #0
 8002438:	d001      	beq.n	800243e <MX_I2C1_Init+0x4a>
  {
    Error_Handler();
 800243a:	f000 fc1f 	bl	8002c7c <Error_Handler>
=======
 8002314:	4b1b      	ldr	r3, [pc, #108]	; (8002384 <MX_I2C1_Init+0x74>)
 8002316:	4a1c      	ldr	r2, [pc, #112]	; (8002388 <MX_I2C1_Init+0x78>)
 8002318:	601a      	str	r2, [r3, #0]
  hi2c1.Init.Timing = 0x2000090E;
 800231a:	4b1a      	ldr	r3, [pc, #104]	; (8002384 <MX_I2C1_Init+0x74>)
 800231c:	4a1b      	ldr	r2, [pc, #108]	; (800238c <MX_I2C1_Init+0x7c>)
 800231e:	605a      	str	r2, [r3, #4]
  hi2c1.Init.OwnAddress1 = 0;
 8002320:	4b18      	ldr	r3, [pc, #96]	; (8002384 <MX_I2C1_Init+0x74>)
 8002322:	2200      	movs	r2, #0
 8002324:	609a      	str	r2, [r3, #8]
  hi2c1.Init.AddressingMode = I2C_ADDRESSINGMODE_7BIT;
 8002326:	4b17      	ldr	r3, [pc, #92]	; (8002384 <MX_I2C1_Init+0x74>)
 8002328:	2201      	movs	r2, #1
 800232a:	60da      	str	r2, [r3, #12]
  hi2c1.Init.DualAddressMode = I2C_DUALADDRESS_DISABLE;
 800232c:	4b15      	ldr	r3, [pc, #84]	; (8002384 <MX_I2C1_Init+0x74>)
 800232e:	2200      	movs	r2, #0
 8002330:	611a      	str	r2, [r3, #16]
  hi2c1.Init.OwnAddress2 = 0;
 8002332:	4b14      	ldr	r3, [pc, #80]	; (8002384 <MX_I2C1_Init+0x74>)
 8002334:	2200      	movs	r2, #0
 8002336:	615a      	str	r2, [r3, #20]
  hi2c1.Init.OwnAddress2Masks = I2C_OA2_NOMASK;
 8002338:	4b12      	ldr	r3, [pc, #72]	; (8002384 <MX_I2C1_Init+0x74>)
 800233a:	2200      	movs	r2, #0
 800233c:	619a      	str	r2, [r3, #24]
  hi2c1.Init.GeneralCallMode = I2C_GENERALCALL_DISABLE;
 800233e:	4b11      	ldr	r3, [pc, #68]	; (8002384 <MX_I2C1_Init+0x74>)
 8002340:	2200      	movs	r2, #0
 8002342:	61da      	str	r2, [r3, #28]
  hi2c1.Init.NoStretchMode = I2C_NOSTRETCH_DISABLE;
 8002344:	4b0f      	ldr	r3, [pc, #60]	; (8002384 <MX_I2C1_Init+0x74>)
 8002346:	2200      	movs	r2, #0
 8002348:	621a      	str	r2, [r3, #32]
  if (HAL_I2C_Init(&hi2c1) != HAL_OK)
 800234a:	4b0e      	ldr	r3, [pc, #56]	; (8002384 <MX_I2C1_Init+0x74>)
 800234c:	0018      	movs	r0, r3
 800234e:	f001 fa27 	bl	80037a0 <HAL_I2C_Init>
 8002352:	1e03      	subs	r3, r0, #0
 8002354:	d001      	beq.n	800235a <MX_I2C1_Init+0x4a>
  {
    Error_Handler();
 8002356:	f000 fc29 	bl	8002bac <Error_Handler>
>>>>>>> 7d7ca595f0febf8d38881680e06789eb0f92c049
  }

  /** Configure Analogue filter
  */
  if (HAL_I2CEx_ConfigAnalogFilter(&hi2c1, I2C_ANALOGFILTER_ENABLE) != HAL_OK)
<<<<<<< HEAD
 800243e:	4b0a      	ldr	r3, [pc, #40]	; (8002468 <MX_I2C1_Init+0x74>)
 8002440:	2100      	movs	r1, #0
 8002442:	0018      	movs	r0, r3
 8002444:	f001 ff5e 	bl	8004304 <HAL_I2CEx_ConfigAnalogFilter>
 8002448:	1e03      	subs	r3, r0, #0
 800244a:	d001      	beq.n	8002450 <MX_I2C1_Init+0x5c>
  {
    Error_Handler();
 800244c:	f000 fc16 	bl	8002c7c <Error_Handler>
=======
 800235a:	4b0a      	ldr	r3, [pc, #40]	; (8002384 <MX_I2C1_Init+0x74>)
 800235c:	2100      	movs	r1, #0
 800235e:	0018      	movs	r0, r3
 8002360:	f001 ff68 	bl	8004234 <HAL_I2CEx_ConfigAnalogFilter>
 8002364:	1e03      	subs	r3, r0, #0
 8002366:	d001      	beq.n	800236c <MX_I2C1_Init+0x5c>
  {
    Error_Handler();
 8002368:	f000 fc20 	bl	8002bac <Error_Handler>
>>>>>>> 7d7ca595f0febf8d38881680e06789eb0f92c049
  }

  /** Configure Digital filter
  */
  if (HAL_I2CEx_ConfigDigitalFilter(&hi2c1, 0) != HAL_OK)
<<<<<<< HEAD
 8002450:	4b05      	ldr	r3, [pc, #20]	; (8002468 <MX_I2C1_Init+0x74>)
 8002452:	2100      	movs	r1, #0
 8002454:	0018      	movs	r0, r3
 8002456:	f001 ffa1 	bl	800439c <HAL_I2CEx_ConfigDigitalFilter>
 800245a:	1e03      	subs	r3, r0, #0
 800245c:	d001      	beq.n	8002462 <MX_I2C1_Init+0x6e>
  {
    Error_Handler();
 800245e:	f000 fc0d 	bl	8002c7c <Error_Handler>
=======
 800236c:	4b05      	ldr	r3, [pc, #20]	; (8002384 <MX_I2C1_Init+0x74>)
 800236e:	2100      	movs	r1, #0
 8002370:	0018      	movs	r0, r3
 8002372:	f001 ffab 	bl	80042cc <HAL_I2CEx_ConfigDigitalFilter>
 8002376:	1e03      	subs	r3, r0, #0
 8002378:	d001      	beq.n	800237e <MX_I2C1_Init+0x6e>
  {
    Error_Handler();
 800237a:	f000 fc17 	bl	8002bac <Error_Handler>
>>>>>>> 7d7ca595f0febf8d38881680e06789eb0f92c049
  }
  /* USER CODE BEGIN I2C1_Init 2 */

  /* USER CODE END I2C1_Init 2 */

}
<<<<<<< HEAD
 8002462:	46c0      	nop			; (mov r8, r8)
 8002464:	46bd      	mov	sp, r7
 8002466:	bd80      	pop	{r7, pc}
 8002468:	2000008c 	.word	0x2000008c
 800246c:	40005400 	.word	0x40005400
 8002470:	2000090e 	.word	0x2000090e

08002474 <MX_USART2_UART_Init>:
=======
 800237e:	46c0      	nop			; (mov r8, r8)
 8002380:	46bd      	mov	sp, r7
 8002382:	bd80      	pop	{r7, pc}
 8002384:	2000008c 	.word	0x2000008c
 8002388:	40005400 	.word	0x40005400
 800238c:	2000090e 	.word	0x2000090e

08002390 <MX_USART2_UART_Init>:
>>>>>>> 7d7ca595f0febf8d38881680e06789eb0f92c049
  * @brief USART2 Initialization Function
  * @param None
  * @retval None
  */
static void MX_USART2_UART_Init(void)
{
<<<<<<< HEAD
 8002474:	b580      	push	{r7, lr}
 8002476:	af00      	add	r7, sp, #0
=======
 8002390:	b580      	push	{r7, lr}
 8002392:	af00      	add	r7, sp, #0
>>>>>>> 7d7ca595f0febf8d38881680e06789eb0f92c049
  /* USER CODE END USART2_Init 0 */

  /* USER CODE BEGIN USART2_Init 1 */

  /* USER CODE END USART2_Init 1 */
  huart2.Instance = USART2;
<<<<<<< HEAD
 8002478:	4b14      	ldr	r3, [pc, #80]	; (80024cc <MX_USART2_UART_Init+0x58>)
 800247a:	4a15      	ldr	r2, [pc, #84]	; (80024d0 <MX_USART2_UART_Init+0x5c>)
 800247c:	601a      	str	r2, [r3, #0]
  huart2.Init.BaudRate = 9600;
 800247e:	4b13      	ldr	r3, [pc, #76]	; (80024cc <MX_USART2_UART_Init+0x58>)
 8002480:	2296      	movs	r2, #150	; 0x96
 8002482:	0192      	lsls	r2, r2, #6
 8002484:	605a      	str	r2, [r3, #4]
  huart2.Init.WordLength = UART_WORDLENGTH_8B;
